:020000040800F2
:1000000000500020B50E0008050F0008050F00087D
:10001000050F0008050F0008050F0008000000008C
:10002000000000000000000000000000050F0008B4
:10003000050F000800000000050F0008050F00086C
:10004000050F0008050F0008050F0008050F000840
:10005000050F0008050F0008C9020008ED0200089E
:10006000110300083503000859030008050F0008B4
:10007000050F0008050F0008050F0008050F000810
:10008000050F0008050F00089D020008050F000875
:10009000050F0008050F0008050F00087D03000884
:1000A000050F000839090008050F0008050F0008B2
:1000B000010900086509000891090008050F0008FA
:1000C000050F0008050F0008050F0008050F0008C0
:1000D000050F0008F10C0008050D0008190D0008B7
:1000E00025040008050F000800000000050F0008A7
:1000F000050F0008050F0008050F0008050F000890
:10010000050F0008050F0008050F0008050F00087F
:10011000050F0008050F0008050F0008050F00086F
:10012000050F0008050F0008050F0008050F00085F
:1001300010B5054C237833B9044B13B10448AFF321
:1001400000800123237010BD080000200000000083
:10015000500F000808B5034B1BB103490348AFF328
:10016000008008BD000000000C000020500F0008B7
:1001700080B485B000AF7860434B9B69424A43F03E
:1001800004039361404B9B693F4A43F400739361BE
:100190003E4B1B683D4A23F0FF0313603C4B9B68BA
:1001A0003B4A43F0010393607B685A78384B5A63AB
:1001B000374B5B687A6812781146354A0B435360B7
:1001C0007B689B68334A13607B68DB78012B06D120
:1001D0002F4B9B682E4A43F00203936009E07B6833
:1001E000DB78002B05D12A4B9B68294A23F00203B8
:1001F00093607B681B79002B06D1254B9B68244AB2
:1002000023F40063936009E07B681B79012B05D11F
:100210001F4B9B681E4A43F4006393607B685B79C5
:10022000012B0CD11C4B1B681B4A43F48023136029
:10023000174B5B68164A43F02003536009E07B6864
:100240005B79002B05D1124B5B68114A23F0200328
:1002500053600023FB6002E0FB680133FB60FB6836
:10026000B3F57A7FF8DD0A4B9B68094A43F0010336
:100270009360074B9B68064A43F46023936000BF7A
:100280001437BD4680BC7047001002400008014092
:10029000002401402C00002000E100E080B500AF08
:1002A000074B1B68002B02D0054B1B689847054B7A
:1002B0001B68044A23F00203136000BF80BD00BF27
:1002C0002C0000200024014080B500AF054B5B6985
:1002D000044A43F001035361034B1B68984700BF76
:1002E00080BD00BF000401403000002080B500AF99
:1002F000054B5B69044A43F002035361034B5B689F
:10030000984700BF80BD00BF0004014030000020BE
:1003100080B500AF054B5B69044A43F004035361A9
:10032000034B9B68984700BF80BD00BF000401409D
:100330003000002080B500AF054B5B69044A43F0F4
:1003400008035361034BDB68984700BF80BD00BFC3
:10035000000401403000002080B500AF054B5B6910
:10036000044A43F010035361034B1B69984700BFD5
:1003700080BD00BF000401403000002080B500AF08
:10038000264B5B6903F02003002B08D0234B5B69ED
:10039000224A43F020035361214B5B6998471F4B6E
:1003A0005B6903F04003002B08D01C4B5B691B4AC0
:1003B00043F0400353611A4B9B699847174B5B69A5
:1003C00003F08003002B08D0144B5B69134A43F001
:1003D00080035361124BDB699847104B5B6903F450
:1003E0008073002B08D00D4B5B690C4A43F480737B
:1003F00053610B4B1B6A9847084B5B6903F400730E
:10040000002B08D0054B5B69044A43F40073536129
:10041000034B5B6A984700BF80BD00BF00040140EA
:100420003000002080B500AF354B5B6903F480637A
:10043000002B08D0324B5B69314A43F4806353612F
:10044000304B9B6A98472E4B5B6903F48063002B0B
:1004500008D02B4B5B692A4A43F480635361294BD4
:100460009B6A9847264B5B6903F40063002B08D016
:10047000234B5B69224A43F400635361214BDB6ADF
:1004800098471F4B5B6903F48053002B08D01C4B2B
:100490005B691B4A43F4805353611A4B1B6B9847AB
:1004A000174B5B6903F40053002B08D0144B5B69B6
:1004B000134A43F400535361124B5B6B9847104B44
:1004C0005B6903F48043002B08D00D4B5B690C4A39
:1004D00043F4804353610B4B9B6B9847084B5B691C
:1004E00003F40043002B08D0054B5B69044A43F436
:1004F00000435361034BDB6B984700BF80BD00BFD7
:10050000000401403000002080B483B000AF0346F7
:10051000FB80FB88802B42D0802B11DC082B36D04F
:10052000082B06DC022B2ED0042B2ED0012B28D03A
:1005300047E0202B2FD0402B2FD0102B29D040E08C
:10054000B3F5006F33D0B3F5006F09DCB3F5007F6E
:1005500029D0B3F5806F28D0B3F5807F21D030E06B
:10056000B3F5005F27D0B3F5005F03DCB3F5805F20
:100570001FD026E0B3F5804F1FD0B3F5004F1ED03B
:100580001FE000231EE004231CE008231AE00C23D4
:1005900018E0102316E0142314E0182312E01C23A3
:1005A00010E000230EE004230CE008230AE00C23F3
:1005B00008E0102306E0142304E0182302E01C23C3
:1005C00000E0002318460C37BD4680BC704790B54C
:1005D00085B000AF786039600023BB600023FB73F7
:1005E0003B681B88802B02D97B68043300E07B6862
:1005F000BB603B681B881846FFF786FF02460F2347
:100600009340DA43BB681B681A40BB681A603B68BA
:100610009B78042B0BD03B689B78052B07D03B685D
:100620009B78062B03D03B689B78072B0ED13B6849
:100630009B78043B9B005AB23B68DB785BB203F0CB
:100640000F035BB213435BB2FB7339E03B689B78EB
:10065000012B03D03B689B78002B0CD13B689B7827
:100660009B005BB203F00F035AB297F90F301343AC
:100670005BB2FB7324E03B689B78082B04D1FB7BC7
:1006800043F00403FB731BE0FB7B43F00803FB73A5
:100690003B689B78022B07D17B68DB683A6812883D
:1006A0001A437B68DA600BE03B689B78032B07D129
:1006B0007B68DB683A681288D2431A407B68DA604C
:1006C000FC7B3B681B881846FFF71EFF034604FAB5
:1006D00003F2BB681B681A43BB681A6000BF14377B
:1006E000BD4690BD80B400AF0B4B5B689B0803F028
:1006F0000303012B06D0012B02D3022B04D005E00B
:10070000064B04E0064B02E0064B00E000231846CF
:10071000BD4680BC704700BF0010024000127A0046
:10072000006A18000024F40080B500AFFFF7DAFF7C
:100730000146054B5B681B0903F00F03034AD35CBA
:1007400021FA03F3184680BD00100240840F000810
:1007500080B500AFFFF7E8FF0146054B5B681B0A59
:1007600003F00703034AD35C21FA03F3184680BD64
:10077000001002407C0F000880B500AFFFF7D4FFE7
:100780000146054B5B68DB0A03F00703034AD35CB1
:1007900021FA03F3184680BD001002407C0F0008C8
:1007A00080B489B000AF03463A60FB800B467B7192
:1007B0004F4B01221A704F4BDB694E4A43F0010345
:1007C000D3614FF080431B684FF0804223F0010358
:1007D00013600123FB770023BB6101237B614FF48E
:1007E0007A733B610223FB737B79002B0DD14FF4AD
:1007F0007A733B61FB8840F6B832934202D9642396
:10080000FB7330E00A23FB732DE03B4B3B61FB881D
:1008100040F6B832934202D90A23FB7323E0052342
:10082000FB7320E03A683B69B2FBF3F3FA8802FB02
:1008300003F27B69B2FBF3F3BB61BB69B3F5FA4F1B
:100840000FD37B694FF6FA72934205D94FF6FA73CC
:100850007B610023FB7706E0FB7B7A6913447B61B5
:1008600001E00023FB77FB7F012BDBD04FF08043BF
:100870001B684FF0804223F0010313604FF0804368
:100880001B684FF0804243F0040313604FF0804335
:10089000DB684FF0804243F00103D3604FF08042A9
:1008A000BB69D3624FF080427B69013B93624FF09A
:1008B00080435B694FF0804243F0010353614FF086
:1008C00080431B684FF0804243F0010313600B4BE1
:1008D0001B680A4A43F08053136000BF044B1B7827
:1008E000002BFBD100BF2437BD4680BC704700BF42
:1008F000000000200010024040420F0000E100E034
:1009000080B400AF4FF080431B694FF0804223F06A
:1009100001031361074B00221A704FF080431B68DC
:100920004FF0804223F00103136000BFBD4680BC3E
:10093000704700BF0000002080B400AF074B1B6968
:10094000064A23F001031361054B1B8801339AB259
:10095000034B1A8000BFBD4680BC7047002C01408D
:100960002800002080B400AF074B1B69064A23F023
:1009700001031361054B1B8801339AB2034B1A80A4
:1009800000BFBD4680BC7047000400402600002028
:1009900080B400AF074B1B69064A23F001031361C3
:1009A000054B1B8801339AB2034B1A8000BFBD462A
:1009B00080BC7047000800402400002080B582B051
:1009C00000AF786039607B685D4A934209D15D4A27
:1009D0003B6813605C4B9B695B4A43F480439361C3
:1009E0001AE07B68594A934209D1564A3B685360E2
:1009F000554BDB69544A43F40033D3610CE07B6808
:100A0000534A934208D14F4A3B6893604E4BDB698F
:100A10004D4A43F48023D3617B68DB6843F4005282
:100A20007B68DA607B68DB683A6812781A437B6817
:100A3000DA607B68DB683A68127A1A437B68DA60AE
:100A40007B681B693A68527A1A437B681A617B6833
:100A50001B693A68927A1A437B681A617B685B6902
:100A60003A68D27A1A437B685A617B68344A934267
:100A700005D1FFF781FE0246364B1A6004E0FFF70E
:100A800067FE0246334B1A60324B1A683B685B685C
:100A90001B01B2FBF3F319012E4B1A6813469B009E
:100AA00013449A001A443B685B689B00B2FBF3F264
:100AB000284B18683B685B681B01B0FBF3F36420AC
:100AC00000FB03F3D31A1B01234AA2FB03235B0998
:100AD00003F00F030B43214A1360204B1A687B6815
:100AE0009A603B681B7B002B26D07B68DB683A68EA
:100AF000127B1A437B68DA607B68114A934206D105
:100B0000174B1B68164A43F02003136014E07B6800
:100B10000E4A934206D1124B1B68114A43F0400320
:100B2000136009E07B680A4A934205D10C4B1B68AD
:100B30000B4A43F08003136000BF0837BD4680BDF9
:100B400000380140780000200010024000440040BE
:100B500000480140740000201F85EB517000002008
:100B600004E100E080B489B000AFF860B9601146DC
:100B70001A460B46FB711346BB71BB68FB61FB68F1
:100B8000254A934203D1254B1B681B7A0AE0FB6878
:100B9000234A934203D1214B5B681B7A02E01F4B2F
:100BA0009B681B7AFB75FB681B4A934203D11B4B66
:100BB0001B685B7A0AE0FB68194A934203D1174B22
:100BC0005B685B7A02E0154B9B685B7ABB75FB7DCB
:100BD000002B1CD10023BB6115E0FB691B787B75E2
:100BE000BB79002B06D100BFFB681B6803F08003B4
:100BF000002BF9D07A7DFB685A60FB690133FB61F9
:100C0000BB690133BB61FB79BA699A42E5DB00BF7E
:100C10002437BD4680BC7047003801407800002072
:100C20000044004080B584B000AF78607B682B4AF8
:100C3000934218D14FF40073BB810623BB73012389
:100C4000FB7307F10C0319462548FFF7C0FC4FF46E
:100C50008063BB810823BB7307F10C03194620484E
:100C6000FFF7B5FC36E07B681E4A934216D1042399
:100C7000BB810623BB730123FB7307F10C031946E9
:100C80001748FFF7A4FC0823BB810823BB7307F1B7
:100C90000C0319461248FFF79AFC1BE07B68124AC6
:100CA000934217D14FF48063BB810623BB730123AA
:100CB000FB7307F10C0319460C48FFF788FC4FF44F
:100CC0000063BB810823BB7307F10C031946074877
:100CD000FFF77DFC00BF1037BD4680BD00380140E6
:100CE000000801400044004000480140000C014061
:100CF00080B500AF024B1B681B69984700BF80BDE1
:100D00007800002080B500AF024B5B681B699847F4
:100D100000BF80BD7800002080B500AF024B9B680B
:100D20001B69984700BF80BD7800002080B400AFE9
:100D30000F4BD96C0F4B1B78DBB21A4689B20E4BA6
:100D400023F812100B4B1B78DBB20133002B03F09E
:100D50000103B8BF5B42DAB2064B1A70074B1B683F
:100D60001433064A136000BFBD4680BC704700BF05
:100D7000002401402A0000208400002004000020FC
:100D800080B400AF074B9B69064A43F004039361AC
:100D9000044B9B69034A43F00103936100BFBD46C6
:100DA00080BC70470010024080B590B000AFFFF7E4
:100DB000E7FF4FF41653FB62002387F8343000231B
:100DC00087F83330002387F831300C2387F8283038
:100DD000002387F83030002387F832300023BB63CC
:100DE00007F1280319462D48FFF7E8FD2B48FFF7C8
:100DF00019FF2B4A07F11C0307CA03C31A7007F136
:100E00001C01002308222548FFF7ACFE00233B7499
:100E100020237B740023FB740123BB7400233B75E8
:100E200001237B751F4BBB6107F110031846FFF7C9
:100E30009FF90823FB631C4A07F1080392E80300AB
:100E400018600433198002330A0C1A7007F1080184
:100E5000002306221148FFF785FEFB6B082B02D109
:100E60000023FB6301E00823FB63104B1B889BB24C
:100E70001A46FB6B02FA03F3DBB23033DBB2FB71D1
:100E8000F91D002301220548FFF76CFE084A0021E6
:100E90004FF47A70FFF784FCDFE700BF00380140B1
:100EA000680F00082D0D0008740F00088400002052
:100EB00000127A000D488546AFF300800C480D49BA
:100EC0000D4A002302E0D458C4500433C4188C42A5
:100ED000F9D30A4A0A4C002301E013600432A2420B
:100EE000FBD300F011F8FFF75FFFFEE70050002092
:100EF0000000002008000020A00F000808000020CB
:100F000088000020FEE7000070B500250C4E0D4C57
:100F1000A41BA410A54209D100F01AF800250A4E1E
:100F20000A4CA41BA410A54205D170BD56F825306B
:100F300098470135EEE756F8253098470135F2E736
:100F4000980F0008980F0008980F00089C0F0008E1
:100F5000F8B500BFF8BC08BC9E467047F8B500BFA6
:080F6000F8BC08BC9E46704776
:100F68004D6F68616D656420000000004D61676425
:100F7800690A0000000000000102030400000000EC
:100F8800000000000102030405060708090000002C
:040F980055010008F7
:040F9C003101000817
:080FA000010000001400000034
:0400000508000EB52C
:00000001FF
