:020000040800F2
:1000000000500020BD6100080D6200080D6200086C
:100010000D6200080D6200080D620008000000007B
:10002000000000000000000000000000714F000808
:100030000D6200080000000061500008A95000088F
:100040000D6200080D6200080D6200080D620008D4
:100050000D6200080D620008192A00083D2A0008F8
:10006000612A0008852A0008A92A00080D620008F4
:100070000D6200080D6200080D6200080D620008A4
:100080000D6200080D620008DD2900080D620008FD
:100090000D6200080D6200080D620008CD2A0008FC
:1000A0000D620008892F00080D6200080D6200082B
:1000B000552F0008B52F0008E12F00080D62000839
:1000C0000D6200080D6200080D6200080D62000854
:1000D0000D62000829600008BD320008D132000816
:1000E000752B00080D620008000000000D6200087A
:1000F0000D6200080D6200080D6200080D62000824
:100100000D6200080D6200080D6200080D62000813
:100110000D6200080D6200080D6200080D62000803
:100120000D6200080D6200080D6200080D620008F3
:1001300010B5054C237833B9044B13B10448AFF321
:1001400000800123237010BDEC010020000000009E
:1001500084AD000808B5034B1BB103490348AFF356
:10016000008008BD00000000F001002084AD000800
:1001700010F8012B11F8013B012A28BF9A42F7D051
:10018000D01A7047034613F8012B002AFBD1181A26
:100190000138704781F0004102E000BF83F0004366
:1001A00030B54FEA41044FEA430594EA050F08BF12
:1001B00090EA020F1FBF54EA000C55EA020C7FEAD6
:1001C000645C7FEA655C00F0E2804FEA5454D4EB53
:1001D0005555B8BF6D420CDD2C4480EA020281EA1D
:1001E000030382EA000083EA010180EA020281EA55
:1001F0000303362D88BF30BD11F0004F4FEA0131A7
:100200004FF4801C4CEA113102D0404261EB4101B5
:1002100013F0004F4FEA03334CEA133302D052423B
:1002200063EB430394EA050F00F0A780A4F10104F7
:10023000D5F1200E0DDB02FA0EFC22FA05F2801831
:1002400041F1000103FA0EF2801843FA05F3594117
:100250000EE0A5F120050EF1200E012A03FA0EFC96
:1002600028BF4CF0020C43FA05F3C01851EBE371C0
:1002700001F0004507D54FF0000EDCF1000C7EEBDD
:1002800000006EEB0101B1F5801F1BD3B1F5001F1B
:100290000CD349085FEA30004FEA3C0C04F101043A
:1002A0004FEA445212F5800F80F09A80BCF1004F63
:1002B00008BF5FEA500C50F1000041EB045141EAE5
:1002C000050130BD5FEA4C0C404141EB010111F4E6
:1002D000801FA4F10104E9D191F0000F04BF014691
:1002E0000020B1FA81F308BF2033A3F10B03B3F16F
:1002F00020020CDA0C3208DD02F1140CC2F10C02FF
:1003000001FA0CF021FA02F10CE002F11402D8BF5C
:10031000C2F1200C01FA02F120FA0CFCDCBF41EA28
:100320000C019040E41AA2BF01EB0451294330BDF7
:100330006FEA04041F3C1CDA0C340EDC04F11404D4
:10034000C4F1200220FA04F001FA02F340EA0300AB
:1003500021FA04F345EA030130BDC4F10C04C4F1F1
:10036000200220FA02F001FA04F340EA03002946D1
:1003700030BD21FA04F0294630BD94F0000F83F41B
:10038000801306BF81F480110134013D4EE77FEAFE
:10039000645C18BF7FEA655C29D094EA050F08BF4A
:1003A00090EA020F05D054EA000C04BF194610462B
:1003B00030BD91EA030F1EBF0021002030BD5FEA6F
:1003C000545C05D14000494128BF41F0004130BD97
:1003D00014F580043CBF01F5801130BD01F00045EB
:1003E00045F0FE4141F470014FF0000030BD7FEA5E
:1003F000645C1ABF194610467FEA655C1CBF0B4659
:10040000024650EA013406BF52EA033591EA030F6F
:1004100041F4002130BD00BF90F0000F04BF002167
:10042000704730B54FF4806404F132044FF000059A
:100430004FF0000150E700BF90F0000F04BF002113
:10044000704730B54FF4806404F1320410F0004579
:1004500048BF40424FF000013EE700BF42004FEA74
:10046000E2014FEA31014FEA02701FBF12F07F43F1
:1004700093F07F4F81F06051704732F07F4208BFA8
:10048000704793F07F4F04BF41F40021704730B5AF
:100490004FF4607401F0004521F000411CE700BFFB
:1004A00050EA010208BF704730B54FF000050AE07E
:1004B00050EA010208BF704730B511F0004502D57F
:1004C000404261EB41014FF4806404F132045FEA81
:1004D000915C3FF4D8AE4FF003025FEADC0C18BF2A
:1004E00003325FEADC0C18BF033202EBDC02C2F11C
:1004F000200300FA03FC20FA02F001FA03FE40EAAE
:100500000E0021FA02F11444BDE600BF70B54FF0B1
:10051000FF0C4CF4E06C1CEA11541DBF1CEA13558F
:1005200094EA0C0F95EA0C0F00F0DEF82C4481EAF7
:10053000030621EA4C5123EA4C5350EA013518BF17
:1005400052EA033541F4801143F4801338D0A0FB04
:1005500002CE4FF00005E1FB02E506F00042E0FBB1
:1005600003E54FF00006E1FB03569CF0000F18BFB7
:100570004EF0010EA4F1FF04B6F5007F64F540745F
:1005800004D25FEA4E0E6D4146EB060642EAC621F2
:1005900041EA55514FEAC52040EA5E504FEACE2E5F
:1005A000B4F1FD0C88BFBCF5E06F1ED8BEF1004F62
:1005B00008BF5FEA500E50F1000041EB045170BDDE
:1005C00006F0004646EA010140EA020081EA030122
:1005D000B4EB5C04C2BFD4EB0C0541EA045170BD1E
:1005E00041F480114FF0000E013C00F3AB8014F198
:1005F000360FDEBF002001F0004170BDC4F10004E1
:10060000203C35DA0C341BDC04F11404C4F1200561
:1006100000FA05F320FA04F001FA05F240EA0200BC
:1006200001F0004221F0004110EBD37021FA04F6F2
:1006300042EB06015EEA430E08BF20EAD37070BDAC
:10064000C4F10C04C4F1200500FA04F320FA05F00B
:1006500001FA04F240EA020001F0004110EBD3700D
:1006600041F100015EEA430E08BF20EAD37070BD7D
:10067000C4F1200500FA05F24EEA020E20FA04F356
:1006800001FA05F243EA020321FA04F001F0004105
:1006900021FA04F220EA020000EBD3705EEA430E76
:1006A00008BF20EAD37070BD94F0000F0FD101F0A5
:1006B0000046400041EB010111F4801F08BF013CDE
:1006C000F7D041EA060195F0000F18BF704703F01C
:1006D0000046520043EB030313F4801F08BF013DA3
:1006E000F7D043EA0603704794EA0C0F0CEA13555F
:1006F00018BF95EA0C0F0CD050EA410618BF52EA19
:100700004306D1D181EA030101F000414FF000001E
:1007100070BD50EA410606BF1046194652EA43062C
:1007200019D094EA0C0F02D150EA013613D195EAA0
:100730000C0F05D152EA03361CBF104619460AD1E8
:1007400081EA030101F0004141F0FE4141F47001F2
:100750004FF0000070BD41F0FE4141F4780170BDE2
:1007600070B54FF0FF0C4CF4E06C1CEA11541DBF47
:100770001CEA135594EA0C0F95EA0C0F00F0A7F849
:10078000A4EB050481EA030E52EA03354FEA013176
:1007900000F088804FEA03334FF0805545EA131389
:1007A00043EA12634FEA022245EA111545EA106551
:1007B0004FEA00260EF000419D4208BF964244F1E8
:1007C000FD0404F5407402D25B084FEA3202B61A07
:1007D00065EB03055B084FEA32024FF480104FF4DB
:1007E000002CB6EB020E75EB030E22BFB61A75464F
:1007F00040EA0C005B084FEA3202B6EB020E75EBE2
:10080000030E22BFB61A754640EA5C005B084FEA49
:100810003202B6EB020E75EB030E22BFB61A754616
:1008200040EA9C005B084FEA3202B6EB020E75EB21
:10083000030E22BFB61A754640EADC0055EA060EE2
:1008400018D04FEA051545EA16754FEA06164FEA25
:10085000C30343EA52734FEAC2025FEA1C1CC0D1D1
:1008600011F4801F0BD141EA00014FF000004FF05E
:10087000004CB6E711F4801F04BF01430020B4F11F
:10088000FD0C88BFBCF5E06F3FF6AFAEB5EB030CD7
:1008900004BFB6EB020C5FEA500C50F1000041EBD4
:1008A000045170BD0EF0004E4EEA113114EB5C04A1
:1008B000C2BFD4EB0C0541EA045170BD41F4801174
:1008C0004FF0000E013C90E645EA060E8DE60CEA7C
:1008D000135594EA0C0F08BF95EA0C0F3FF43BAF99
:1008E00094EA0C0F0AD150EA01347FF434AF95EA50
:1008F0000C0F7FF425AF104619462CE795EA0C0F34
:1009000006D152EA03353FF4FDAE1046194622E700
:1009100050EA410618BF52EA43067FF4C5AE50EADA
:1009200041047FF40DAF52EA43057FF4EBAE12E7CA
:100930004FF0FF3C06E000BF4FF0010C02E000BFAB
:100940004FF0010C4DF804CD4FEA410C7FEA6C5C8E
:100950004FEA430C18BF7FEA6C5C1BD001B050EA31
:10096000410C0CBF52EA430C91EA030F02BF90EA1C
:10097000020F0020704710F1000F91EA030F58BFDB
:10098000994208BF90422CBFD8176FEAE37040F03D
:10099000010070474FEA410C7FEA6C5C02D150EADB
:1009A000013C07D14FEA430C7FEA6C5CD6D152EA96
:1009B000033CD3D05DF8040B704700BF844610465B
:1009C00062468C461946634600E000BF01B5FFF75A
:1009D000B7FF002848BF10F1000F01BD4DF808ED2A
:1009E000FFF7F4FF0CBF012000205DF808FB00BFFB
:1009F0004DF808EDFFF7EAFF34BF012000205DF855
:100A000008FB00BF4DF808EDFFF7E0FF94BF0120A1
:100A100000205DF808FB00BF4DF808EDFFF7CEFFA2
:100A200094BF012000205DF808FB00BF4DF808EDE1
:100A3000FFF7C4FF34BF012000205DF808FB00BFB2
:100A40004FEA410C7FEA6C5C02D150EA013C0AD1CA
:100A50004FEA430C7FEA6C5C02D152EA033C02D1BC
:100A60004FF0000070474FF0010070474FEA41021D
:100A700012F5001215D211D56FF47873B3EB6252F0
:100A800012D94FEAC12343F0004343EA505311F017
:100A9000004F23FA02F018BF404270474FF00000A9
:100AA000704750EA013005D111F0004008BF6FF0E7
:100AB000004070474FF00000704700BF4A0011D25D
:100AC00012F5001211D20DD56FF47873B3EB6252A8
:100AD0000ED44FEAC12343F0004343EA505323FAB4
:100AE00002F070474FF00000704750EA013002D129
:100AF0004FF0FF3070474FF0000070474FEA41025F
:100B0000B2F1E04324BFB3F5001CDCF1FE5C0DD96B
:100B100001F0004C4FEAC0024CEA5070B2F1004FB5
:100B200040EB830008BF20F00100704711F0804FB8
:100B300021D113F13872BCBF01F00040704741F47D
:100B400080114FEA5252C2F11802C2F1200C10FA81
:100B50000CF320FA02F018BF40F001004FEAC12365
:100B60004FEAD32303FA0CFC40EA0C0023FA02F309
:100B70004FEA4303CCE77FEA625307D150EA0133DF
:100B80001EBF4FF0FE4040F44000704701F00040AF
:100B900040F0FE4040F40000704700BF80F000408D
:100BA00002E000BF81F0004142001FBF5FEA410345
:100BB00092EA030F7FEA226C7FEA236C6AD04FEA45
:100BC0001262D2EB1363C1BFD2184140484041408A
:100BD000B8BF5B42192B88BF704710F0004F40F43C
:100BE000000020F07F4018BF404211F0004F41F458
:100BF000000121F07F4118BF494292EA030F3FD024
:100C0000A2F1010241FA03FC10EB0C00C3F1200336
:100C100001FA03F100F0004302D5494260EB4000C5
:100C2000B0F5000F13D3B0F1807F06D340084FEA30
:100C3000310102F10102FE2A51D2B1F1004F40EB25
:100C4000C25008BF20F0010040EA0300704749008D
:100C500040EB000010F4000FA2F10102EDD1B0FA58
:100C600080FCACF1080CB2EB0C0200FA0CF0AABF4D
:100C700000EBC25052421843BCBFD04018437047EB
:100C800092F0000F81F4000106BF80F400000132F1
:100C9000013BB5E74FEA41037FEA226C18BF7FEAC8
:100CA000236C21D092EA030F04D092F0000F08BF0A
:100CB0000846704790EA010F1CBF0020704712F0F1
:100CC0007F4F04D1400028BF40F00040704712F130
:100CD00000723CBF00F50000704700F0004343F095
:100CE000FE4040F4000070477FEA226216BF0846CB
:100CF0007FEA23630146420206BF5FEA412390EA8E
:100D0000010F40F4800070474FF0000304E000BF83
:100D100010F0004348BF40425FEA000C08BF704734
:100D200043F0964301464FF000001CE050EA0102F8
:100D300008BF70474FF000030AE000BF50EA01020D
:100D400008BF704711F0004302D5404261EB4101FA
:100D50005FEA010C02BF84460146002043F0B6431F
:100D600008BFA3F18053A3F50003BCFA8CF2083A44
:100D7000A3EBC25310DB01FA02FC634400FA02FC4D
:100D8000C2F12002BCF1004F20FA02F243EB020054
:100D900008BF20F00100704702F1200201FA02FCB6
:100DA000C2F1200250EA4C0021FA02F243EB0200A9
:100DB00008BF20EADC7070474FF0FF0C1CEAD052ED
:100DC0001EBF1CEAD15392EA0C0F93EA0C0F6FD0AE
:100DD0001A4480EA010C400218BF5FEA41211ED08C
:100DE0004FF0006343EA501043EA5111A0FB013178
:100DF0000CF00040B1F5000F3EBF490041EAD3714D
:100E00005B0040EA010062F17F02FD2A1DD8B3F1C8
:100E1000004F40EBC25008BF20F00100704790F037
:100E2000000F0CF0004C08BF49024CEA502040EA89
:100E300051207F3AC2BFD2F1FF0340EAC25070474F
:100E400040F400004FF00003013A5DDC12F1190F8D
:100E5000DCBF00F000407047C2F10002410021FAFF
:100E600002F1C2F1200200FA02FC5FEA310040F117
:100E7000000053EA4C0308BF20EADC70704792F090
:100E8000000F00F0004C02BF400010F4000F013AC8
:100E9000F9D040EA0C0093F0000F01F0004C02BFC3
:100EA000490011F4000F013BF9D041EA0C018FE732
:100EB0000CEAD15392EA0C0F18BF93EA0C0F0AD038
:100EC00030F0004C18BF31F0004CD8D180EA01005E
:100ED00000F00040704790F0000F17BF90F0004FF7
:100EE000084691F0000F91F0004F14D092EA0C0FD9
:100EF00001D142020FD193EA0C0F03D14B0218BF6C
:100F0000084608D180EA010000F0004040F0FE40B1
:100F100040F40000704740F0FE4040F4400070474D
:100F20004FF0FF0C1CEAD0521EBF1CEAD15392EACC
:100F30000C0F93EA0C0F69D0A2EB030280EA010CBC
:100F400049024FEA402037D04FF0805343EA111155
:100F500043EA10130CF000408B4238BF5B0042F1B3
:100F60007D024FF4000C8B4224BF5B1A40EA0C0058
:100F7000B3EB510F24BFA3EB510340EA5C00B3EB8A
:100F8000910F24BFA3EB910340EA9C00B3EBD10F78
:100F900024BFA3EBD10340EADC001B0118BF5FEACA
:100FA0001C1CE0D1FD2A3FF650AF8B4240EBC250F3
:100FB00008BF20F0010070470CF0004C4CEA5020B4
:100FC0007F32C2BFD2F1FF0340EAC250704740F403
:100FD00000004FF00003013A37E792F0000F00F0F5
:100FE000004C02BF400010F4000F013AF9D040EA73
:100FF0000C0093F0000F01F0004C02BF490011F407
:10100000000F013BF9D041EA0C0195E70CEAD153FE
:1010100092EA0C0F08D142027FF47DAF93EA0C0FE5
:101020007FF470AF084676E793EA0C0F04D14B02C9
:101030003FF44CAF08466EE730F0004C18BF31F07B
:10104000004CCAD130F000427FF45CAF31F0004375
:101050007FF43CAF5FE700BF4FF0FF3C06E000BF0E
:101060004FF0010C02E000BF4FF0010C4DF804CD31
:101070004FEA40024FEA41037FEA226C18BF7FEA41
:10108000236C11D001B052EA530C18BF90EA010F43
:1010900058BFB2EB030088BFC81738BF6FEAE170D2
:1010A00018BF40F0010070477FEA226C02D15FEA6E
:1010B000402C05D17FEA236CE4D15FEA412CE1D0DA
:1010C0005DF8040B704700BF844608466146FFE7A1
:1010D0000FB5FFF7C9FF002848BF10F1000F0FBD83
:1010E0004DF808EDFFF7F4FF0CBF012000205DF87C
:1010F00008FB00BF4DF808EDFFF7EAFF34BF012001
:1011000000205DF808FB00BF4DF808EDFFF7E0FF99
:1011100094BF012000205DF808FB00BF4DF808EDEA
:10112000FFF7D2FF94BF012000205DF808FB00BF4D
:101130004DF808EDFFF7C8FF34BF012000205DF82F
:1011400008FB00BF90B58DB000AF0346FB80464B57
:10115000BB62464B7B62464B3B62464BFB61FB8866
:101160001846FFF7D5FD0346B96A1846FFF724FE77
:1011700003464FF08B411846FFF7D2FE0346BB6192
:10118000B969B86AFFF7CCFE03464FF07E511846A6
:10119000FFF708FD03461946786AFFF70DFE034680
:1011A0007B617869FFF75AF903460C4618462146D9
:1011B00009F0B2FB03460C4618462146FFF79EFC99
:1011C00003463B61386AFFF749F903460C46184667
:1011D000214609F0A1FB03460C4618462146FFF7BD
:1011E0008DFC0346FB60F869FFF738F903460C46AF
:1011F0001846214609F090FB03460C461846214646
:10120000FFF77CFC0346BB60F9683869FFF7CAFC4E
:1012100003461C46F968B868FFF7C4FC0346194644
:101220002046FFF77DFE034611491846FFF7C4FD2F
:101230000346FB620E49F86AFFF77AFF0346002B6C
:1012400002D00B4BFB620AE04FF00001F86AFFF797
:1012500051FF0346002B02D04FF00003FB62FB6AF4
:1012600018463437BD4690BD3333534000401C46CA
:101270000000C8420050434880B584B000AF3B46F0
:1012800000221A605A609A60DA603B4602221946D0
:10129000044801F0D9FA00F007F800BF1037BD4646
:1012A00080BD00BF0024014080B582B000AF0121A5
:1012B0000A4801F071FB03467B807B88002B05D038
:1012C0007B881846FFF73EFF786002E04FF000038E
:1012D0007B607B6818460837BD4680BD002401400E
:1012E00080B584B000AF3B4600221A605A609A6015
:1012F000DA603B4601221946044801F0A5FA00F0E5
:1013000007F800BF1037BD4680BD00BF0024014074
:1013100090B585B000AF0023FB810021164801F095
:101320003BFB0346FB81FB891846FFF785F810A3BA
:10133000D3E90023FFF7EAF803460C461846214696
:101340004FF000020D4BFFF70BFA03460C46184610
:101350002146FFF7D3FB0346BB600949B868FFF796
:101360002BFD03467B607B6818461437BD4690BD55
:101370006666666666660A40002401400000B0406A
:101380000000C84280B584B000AF78600B467B8017
:101390000423BB730223FB737B88BB8107F10C031F
:1013A0001946786801F0BBFC00BF1037BD4680BD10
:1013B00080B582B000AF78600B467B8013467B70AF
:1013C0007B78012B06D17B8801221946786801F0D1
:1013D00045FD05E07B8800221946786801F03EFD56
:1013E00000BF0837BD4680BD90B585B000AF7860BE
:1013F00039607B68002B02D03B68002B01D10123B0
:101400005EE07A683B689A420DD1002358E07B6821
:101410001B78002B01D1002352E07B6801337B60F5
:101420003B6801333B607B681B78FB7304F01EFF55
:101430000246FB7B013313441B7803F00303012BAB
:1014400003D1FB7B03F1200400E0FC7B3B681B78AD
:10145000BB7304F00BFF0246BB7B013313441B78C4
:1014600003F00303012B02D1BB7B203300E0BB7BE5
:101470009C42CCD07B681B787B7304F0F7FE02465D
:101480007B7B013313441B7803F00303012B03D14F
:101490007B7B03F1200400E07C7B3B681B783B7383
:1014A00004F0E4FE02463B7B013313441B7803F057
:1014B0000303012B02D13B7B203300E03B7BE31A8B
:1014C00018461437BD4690BD80B584B000AF786033
:1014D0007B681B6828209847F860FB68002B04D0C5
:1014E00028220021F86804F0FCFEFB68184610373B
:1014F000BD4680BD80B584B000AF78600023FB603E
:101500003DE07B681B68FB607B68DB6803F48073ED
:10151000002B08D17B689B68002B04D07B689B68FC
:101520001846FFF7E7FF7B68DB6803F48073002B46
:101530000CD17B681B69002B08D0144B5B687A6860
:101540001269104698477B6800221A617B68DB6845
:1015500003F40073002B0CD17B681B6A002B08D0AE
:101560000A4B5B687A68126A104698477B680022CB
:101570001A62064B5B6878689847FB687B607B68FB
:10158000002BBED100BF1037BD4680BD000000203B
:1015900080B400AF2E231846BD4680BC70470000C3
:1015A00090B599B000AF786039604FF000034FF00C
:1015B0000004C7E914340023BB64FFF7E9FF0346C6
:1015C00087F84F300023FB653B68002B03D03B6856
:1015D0001B68002B01D1002304E10023FB659FE081
:1015E0003B681A683B689968FB6D0B4413441B7891
:1015F0002B3B3A2B00F2A48001A252F823F000BF4B
:10160000ED16000841170008ED1600080B1700083A
:1016100041170008ED160008ED160008ED16000849
:10162000ED160008ED160008ED160008ED1600088E
:10163000ED160008ED160008ED1600084117000829
:10164000411700084117000841170008411700081A
:10165000411700084117000841170008411700080A
:101660004117000841170008ED160008411700084F
:1016700041170008411700084117000841170008EA
:1016800041170008411700084117000841170008DA
:1016900041170008411700084117000841170008CA
:1016A00041170008411700084117000841170008BA
:1016B00041170008411700084117000841170008AA
:1016C000411700084117000841170008411700089A
:1016D000411700084117000841170008411700088A
:1016E0004117000841170008ED1600083B681A680A
:1016F0003B689968FB6D0B441344197807F10802A5
:10170000FB6D13440A461A7007E007F10802FB6DEF
:10171000134497F84F201A7000BFFB6D0133FB652F
:10172000FB6D3E2B0ED83B68002B0BD03B689A68B4
:10173000FB6D1A443B685B689A42FFF451AF01E0CD
:1017400000BF00E000BF07F10802FB6D1344002258
:101750001A7007F1480207F108031146184606F00F
:1017600007FAC7E91401BA6C07F108039A4201D1DC
:10177000002337E07A68D7E91434C2E906341CA3A1
:10178000D3E90023D7E91401FFF746F90346002BFC
:1017900004D07B686FF000425A6115E04FF0000200
:1017A000154BD7E91401FFF72DF90346002B04D0A0
:1017B0007B684FF000425A6106E0D7E91401FFF759
:1017C00055F902467B685A617B680822DA603B68FB
:1017D0009B68BA6C114607F108028A1A1A443B68E2
:1017E0009A60012318466437BD4690BDAFF3008070
:1017F0000000C0FFFFFFDF410000E0C180B485B002
:1018000000AF78600023FB600023BB600023BB6057
:101810004CE07A68BB6813441B782F2B0FD97A6889
:10182000BB6813441B78392B09D87A68BB6813440A
:101830001B781A46FB681344303BFB602DE07A6846
:10184000BB6813441B78402B0FD97A68BB681344DC
:101850001B78462B09D87A68BB6813441B781A4654
:10186000FB681344373BFB6017E07A68BB6813449E
:101870001B78602B0FD97A68BB6813441B78662BE2
:1018800009D87A68BB6813441B781A46FB6813446E
:10189000573BFB6001E000230CE0BB68022B02D841
:1018A000FB681B01FB60BB680133BB60BB68032B9B
:1018B000AFD9FB6818461437BD4680BC704700009E
:1018C00080B58AB000AFF860B9607A6000237B62AF
:1018D0000023FB61FB68BB61002387F823300023F2
:1018E00087F82230002387F82130002387F8203042
:1018F000BA68BB69D31A052B40F3B780BB690233C2
:101900001846FFF77BFFF861FB69B3F55C4F04D322
:10191000FB69B3F5604FC0F0AA80FB69B3F5584F7F
:1019200037D3FB69B3F55C4F33D2BB6906337B61B8
:1019300000233B610C2387F82130BA687B69D31AF6
:10194000052B40F396807B691B785C2B40F09380DD
:101950007B6901331B78752B40F08D807B690233E6
:101960001846FFF74BFF38613B69B3F55C4FC0F099
:1019700082803B69B3F5604F7DD2FB699A02424B8E
:1019800013403A69C2F30902134303F580337B62C3
:1019900004E0062387F82130FB697B627B6A7F2B9A
:1019A00003D8012387F823301FE07B6AB3F5006F6B
:1019B00006D2022387F82330C02387F8203014E0B2
:1019C0007B6AB3F5803F06D2032387F82330E023F8
:1019D00087F8203009E07B6AB3F5881F4DD20423D5
:1019E00087F82330F02387F8203097F82330013B25
:1019F00087F8223015E07B6ADBB203F03F03DAB2EE
:101A00007B68196897F822300B4462F07F02D2B2EB
:101A10001A707B6A9B097B6297F82230013B87F83A
:101A2000223097F82230002BE5D197F82330012B94
:101A300009D97B6AD9B27B681B6897F820200A43D2
:101A4000D2B21A7007E07B6ADAB27B681B6802F0D8
:101A50007F02D2B21A707B681A6897F823301A4452
:101A60007B681A6097F8213009E000BF06E000BFEC
:101A700004E000BF02E000BF00E000BF0023184602
:101A80002837BD4680BD00BF00FC0F0080B58AB07E
:101A900000AF786039603B681A683B689B68013327
:101AA00013447B623B681A683B689B6801331344AC
:101AB0003B620023FB600023FB613B681A683B68C4
:101AC0009B6813441B78222B40F06C8100233B6100
:101AD0000023BB6118E03B6A1B785C2B11D13B6A89
:101AE00001331A463B681B68D31A1A463B685B6889
:101AF0009A4280F05981BB690133BB613B6A013373
:101B00003B623B6A01333B623B6A3A6812689B1A4C
:101B10001A463B685B689A4203D23B6A1B78222BC9
:101B2000D9D13B6A3A6812689B1A1A463B685B68CF
:101B30009A4280F03B813B6A1B78222B40F0368131
:101B40003B6A3A6811683A6892680A449B1A1A46D6
:101B5000BB69D31A3B613B681B693A690132104685
:101B60009847F861FB69002B00F02281FB69FB605C
:101B7000FCE07B6A1B785C2B08D07A6A531C7B6282
:101B8000FB68591CF96012781A70EFE00223FB75AC
:101B90003A6A7B6AD31A002B40F30C817B6A0133CB
:101BA0001B78223B532B00F2078101A252F823F04D
:101BB0003D1D0008B91D0008B91D0008B91D000829
:101BC000B91D0008B91D0008B91D0008B91D00089D
:101BD000B91D0008B91D0008B91D0008B91D00088D
:101BE000B91D00083D1D0008B91D0008B91D0008F9
:101BF000B91D0008B91D0008B91D0008B91D00086D
:101C0000B91D0008B91D0008B91D0008B91D00085C
:101C1000B91D0008B91D0008B91D0008B91D00084C
:101C2000B91D0008B91D0008B91D0008B91D00083C
:101C3000B91D0008B91D0008B91D0008B91D00082C
:101C4000B91D0008B91D0008B91D0008B91D00081C
:101C5000B91D0008B91D0008B91D0008B91D00080C
:101C6000B91D0008B91D0008B91D0008B91D0008FC
:101C7000B91D0008B91D0008B91D0008B91D0008EC
:101C8000B91D0008B91D0008B91D0008B91D0008DC
:101C9000B91D0008B91D00083D1D0008B91D000848
:101CA000B91D0008B91D0008B91D0008B91D0008BC
:101CB000011D0008B91D0008B91D0008B91D000864
:101CC0000D1D0008B91D0008B91D0008B91D000848
:101CD000B91D0008B91D0008B91D0008B91D00088C
:101CE000191D0008B91D0008B91D0008B91D00081C
:101CF000251D0008B91D0008311D00084B1D0008F6
:101D0000FB685A1CFA6008221A702BE0FB685A1C08
:101D1000FA600C221A7025E0FB685A1CFA600A224D
:101D20001A701FE0FB685A1CFA600D221A7019E045
:101D3000FB685A1CFA6009221A7013E0FB685A1CEF
:101D4000FA607A6A52781A700CE007F10C031A46AE
:101D5000396A786AFFF7B4FD0346FB75FB7D002BFB
:101D60002CD000BFFB7D7A6A13447B627A6A3B6A9F
:101D70009A42FFF4FEAEFB6800221A707B681022C4
:101D8000DA607B68FA691A613B6A3A6812689B1AE2
:101D90001A463B689A603B689B685A1C3B689A608D
:101DA000012320E000BF0AE000BF08E000BF06E01A
:101DB00000BF04E000BF02E000BF00E000BFFB691D
:101DC000002B05D03B685B69F86998470023FB61ED
:101DD0007B6A002B06D07B6A3A6812689B1A1A4607
:101DE0003B689A60002318462837BD4680BD00BF77
:101DF00080B483B000AF78607B68002B03D07B6831
:101E00001B68002B01D100232CE07B68002B05D040
:101E10007B689A687B685B689A4206D37B6821E09E
:101E20007B689B685A1C7B689A607B68002B0DD08E
:101E30007B689A687B685B689A4207D27B681A68FD
:101E40007B689B6813441B78202BE9D97B689A68D0
:101E50007B685B689A4204D17B689B685A1E7B68EA
:101E60009A607B6818460C37BD4680BC70470000FE
:101E700080B582B000AF78607B68002B07D07B68AC
:101E80001B68002B03D07B689B68002B01D00023CC
:101E90001CE07B68002B18D07B689B681A1D7B6850
:101EA0005B689A4211D27B681A687B689B6813440E
:101EB00003220849184605F026F80346002B04D1F2
:101EC0007B689B68DA1C7B689A607B6818460837D9
:101ED000BD4680BDD8AD000880B586B000AFF860C3
:101EE000B9607A60FB68002B01D100230CE0F86830
:101EF000FEF748F9034601337B617B68BA6879696C
:101F0000F86800F005F8034618461837BD4680BD4E
:101F100080B58EB000AFF860B9607A603B6007F1C1
:101F2000180300221A605A609A60DA601A615A61D6
:101F30009A6100237B63404B00221A603E4B0022D3
:101F40005A60FB68002B42D0BB68002B3FD0FB6877
:101F5000BB61BB68FB6100233B62384A07F1280381
:101F600007CA83E807003548FFF7AEFA78637B6B52
:101F7000002B2ED007F118031846FFF779FF034610
:101F80001846FFF735FF03461946786B00F066F8F0
:101F90000346002B1FD03B68002B0ED007F118031F
:101FA0001846FFF725FF3A6AFB699A420FD2BA69D1
:101FB0003B6A13441B78002B09D17B68002B04D0AB
:101FC000BA693B6A1A447B681A607B6B2FE000BFDA
:101FD00002E000BF00E000BF7B6B002B02D0786BFB
:101FE000FFF788FAFB68002B20D0FB683B610023D9
:101FF0007B613A6AFB699A4202D23B6A7B6105E0E7
:10200000FB69002B02D0FB69013B7B617B68002BE5
:1020100004D03A697B691A447B681A60064B1A46F9
:1020200007F1100393E8030082E803000023184639
:102030003837BD4680BD00BF0802002000000020E8
:1020400080B582B000AF7860002200217868FFF789
:1020500043FF034618460837BD4680BD80B582B0B1
:1020600000AF786039603B68002B03D03B681B6889
:10207000002B01D10023D2E03B68002B1DD03B6830
:102080009B681A1D3B685B689A4216D83B681A68C1
:102090003B689B68134404226349184604F033FFED
:1020A0000346002B09D17B680422DA603B689B68F9
:1020B0001A1D3B689A600123B1E03B68002B1DD0DC
:1020C0003B689B685A1D3B685B689A4216D83B6820
:1020D0001A683B689B68134405225449184604F06B
:1020E00012FF0346002B09D17B680122DA603B68AE
:1020F0009B685A1D3B689A60012390E03B68002B67
:1021000020D03B689B681A1D3B685B689A4219D8CF
:102110003B681A683B689B6813440422444918468C
:1021200004F0F1FE0346002B0CD17B680222DA603A
:102130007B6801225A613B689B681A1D3B689A6064
:1021400001236CE03B68002B13D03B689A683B6826
:102150005B689A420DD23B681A683B689B681344DF
:102160001B78222B05D139687868FFF78FFC03466E
:1021700055E03B68002B23D03B689A683B685B685E
:102180009A421DD23B681A683B689B6813441B78CF
:102190002D2B0FD03B681A683B689B6813441B7853
:1021A0002F2B0DD93B681A683B689B6813441B783A
:1021B000392B05D839687868FFF7F2F903462EE025
:1021C0003B68002B13D03B689A683B685B689A4277
:1021D0000DD23B681A683B689B6813441B785B2BE5
:1021E00005D13968786800F025F8034617E03B68A8
:1021F000002B13D03B689A683B685B689A420DD20B
:102200003B681A683B689B6813441B787B2B05D19D
:102210003968786800F0D2F8034600E000231846D9
:102220000837BD4680BD00BFACAD0008DCAD00087E
:10223000E4AD000880B586B000AF78603960002357
:102240007B6100233B613B68DB68B3F57A7F01D398
:102250000023AFE03B68DB685A1C3B68DA603B68F0
:102260001A683B689B6813441B785B2B40F0948092
:102270003B689B685A1C3B689A603868FFF7B8FD5A
:102280003B68002B0DD03B689A683B685B689A42BC
:1022900007D23B681A683B689B6813441B785D2B28
:1022A00061D03B68002B05D03B689A683B685B684F
:1022B0009A4205D33B689B685A1E3B689A6072E05D
:1022C0003B689B685A1E3B689A603B68103318460F
:1022D000FFF7FAF8F860FB68002B5FD07B69002BF2
:1022E00004D1FB687B617B693B6107E03B69FA686D
:1022F0001A60FB683A695A60FB683B613B689B68FF
:102300005A1C3B689A603868FFF772FD3968386973
:10231000FFF7A4FE0346002B42D03868FFF768FDA4
:102320003B68002B0DD03B689A683B685B689A421B
:1023300007D23B681A683B689B6813441B782C2BB8
:10234000C3D03B68002B2DD03B689A683B685B6824
:102350009A4227D23B681A683B689B6813441B78F3
:102360005D2B1FD100E000BF3B68DB685A1E3B6855
:10237000DA607B69002B02D07B693A695A607B681E
:102380002022DA607B687A699A603B689B685A1CF5
:102390003B689A6001230DE000BF04E000BF02E04B
:1023A00000BF00E000BF7B69002B02D07869FFF717
:1023B000A1F8002318461837BD4680BD80B586B009
:1023C00000AF7860396000237B6100233B613B688C
:1023D000DB68B3F57A7F01D30023F0E03B68DB686C
:1023E0005A1C3B68DA603B68002B00F0DA803B68DF
:1023F0009A683B685B689A4280F0D3803B681A68B1
:102400003B689B6813441B787B2B40F0CA803B6879
:102410009B685A1C3B689A603868FFF7E9FC3B6888
:10242000002B0ED03B689A683B685B689A4208D2E2
:102430003B681A683B689B6813441B787D2B00F04F
:1024400097803B68002B05D03B689A683B685B68C7
:102450009A4205D33B689B685A1E3B689A60A7E086
:102460003B689B685A1E3B689A603B68103318466D
:10247000FFF72AF8F860FB68002B00F094807B6976
:10248000002B04D1FB687B617B693B6107E03B6902
:10249000FA681A60FB683A695A60FB683B613B68FE
:1024A000002B7ED03B689B685A1C3B685B689A4255
:1024B00077D23B689B685A1C3B689A603868FFF784
:1024C00097FC39683869FFF7E1FA0346002B6CD0B6
:1024D0003868FFF78DFC3B691A693B691A623B69F2
:1024E00000221A613B68002B5BD03B689A683B680E
:1024F0005B689A4255D23B681A683B689B681344F4
:102500001B783A2B4DD13B689B685A1C3B689A60FC
:102510003868FFF76DFC39683869FFF79FFD03469F
:10252000002B44D03868FFF763FC3B68002B0DD0CC
:102530003B689A683B685B689A4207D23B681A68B6
:102540003B689B6813441B782C2B8ED03B68002B78
:1025500027D03B689A683B685B689A4221D23B6807
:102560001A683B689B6813441B787D2B19D100E0E7
:1025700000BF3B68DB685A1E3B68DA607B69002B52
:1025800002D07B693A695A607B684022DA607B68D6
:102590007A699A603B689B685A1C3B689A60012381
:1025A0000DE000BF04E000BF02E000BF00E000BF9C
:1025B0007B69002B02D07869FEF79CFF0023184648
:1025C0001837BD4680BD80B586B000AFF860B960F1
:1025D0007A6000237B61FB68002B02D0BB68002B74
:1025E00001D1002333E0FB689B687B617B68002B93
:1025F00017D002E07B691B687B617B69002B1CD0D4
:102600007B691B6A002B18D07B691B6A1946B86866
:10261000FDF7AEFD0346002BECD10EE07B691B6895
:102620007B617B69002B08D07B691B6A1946B868FF
:10263000FEF7DAFE0346002BF0D17B69002B03D0B6
:102640007B691B6A002B01D1002300E07B691846DF
:102650001837BD4680BD80B582B000AF7860396064
:10266000012239687868FFF7AEFF0346184608373D
:10267000BD4680BD80B483B000AF78607B68002B1E
:1026800001D1002307E07B68DB68DBB2042B0CBFC1
:1026900001230023DBB218460C37BD4680BC7047CF
:1026A00080B483B000AF78607B68002B01D1002339
:1026B00007E07B68DB68DBB2102B0CBF0123002333
:1026C000DBB218460C37BD4680BC704780B588B079
:1026D00000AF786039607868FFF7B2FCB861BB6919
:1026E000002B03D1384804F057FB6AE03749B8693A
:1026F000FFF7B1FF78613649B869FFF7ACFF386181
:102700003449B869FFF7A7FFF8607869FFF7C8FF99
:102710000346002B2FD03869FFF7C2FF0346002B7A
:1027200029D03A687B691B691946104604F0E3FB1F
:102730003B685A1D3B691B691946104604F0DBFBD8
:10274000F868FFF797FF0346002B02D1FB68002BC8
:1027500007D13B680A33204A1068186012791A7151
:102760002CE03B6803F10A02FB681B69194610461E
:1027700004F0C1FB22E0194BBB600023FB610BE0BE
:10278000FB69BA6813441B7800221946144800F00C
:1027900011FDFB690133FB61B868FDF7F3FC0246EC
:1027A000FB699A42ECD83B6800221A703B680533FB
:1027B00000221A703B680A3300221A70B869FEF7CB
:1027C00099FE2037BD4680BD14AE000830AE00082B
:1027D00038AE000840AE000848AE000850AE000811
:1027E0000038014080B586B000AF78607868FFF7A8
:1027F00027FC38613B69002B19D1114BFB6000238A
:102800007B610BE07B69FA6813441B780022194650
:102810000C4800F0CFFC7B6901337B61F868FDF761
:10282000B1FC02467B699A42ECD8002303E0386988
:10283000FEF760FE012318461837BD4680BD00BF75
:102840006CAE00080038014080B586B000AFF8607B
:10285000B9601346FB804A4B9B69494A43F0040325
:102860009361FB68474A934206D1454B9B69444AB2
:1028700043F40073936109E0FB68434A934205D136
:102880003F4B9B693E4A43F4806393610023BB74D2
:10289000FB883B8207F1100319463C4800F03FFAE1
:1028A0003A4B1B68394A23F0FF031360FB689B68AF
:1028B00043F00102FB689A60FB685A68BB681B68BA
:1028C0001A43FB685A60BB689B79012B06D1FB68F1
:1028D0009B6843F00202FB689A6009E0BB689B7941
:1028E000002B05D1FB689B6823F00202FB689A600D
:1028F000BB68DB79002B06D1FB689B6823F4006280
:10290000FB689A6009E0BB68DB79012B05D1FB68A5
:102910009B6843F40062FB689A60BB681B7A012BDA
:102920000CD11B4B1B681A4A43F480231360FB68CD
:102930005B6843F02002FB685A6009E0BB681B7AC1
:10294000002B05D1FB685B6823F02002FB685A600E
:10295000BB68DB680F4A136000237B6102E07B6980
:1029600001337B617B69B3F57A7FF8DDFB689B6897
:1029700043F00102FB689A6000BF1837BD4680BD76
:1029800000100240002401400028014000080140DE
:1029900000E100E09033002080B485B000AF7860A3
:1029A0000B467B800023FB817A887B685A637B68B7
:1029B0009B6843F480027B689A6000BF7B681B6859
:1029C00003F00203002BF9D07B68DB6CFB81FB89F1
:1029D00018461437BD4680BC7047000080B500AF74
:1029E0000A4B1B68002B02D0084B1B689847084B0A
:1029F0001B68074A23F002031360064B1B68054A55
:102A000023F00203136000BF80BD00BF903300209D
:102A1000002401400028014080B500AF054B5B69F0
:102A2000044A43F001035361034B1B68984700BFFE
:102A300080BD00BF000401409433002080B500AF8A
:102A4000054B5B69044A43F002035361034B5B6827
:102A5000984700BF80BD00BF0004014094330020B0
:102A600080B500AF054B5B69044A43F00403536132
:102A7000034B9B68984700BF80BD00BF0004014026
:102A80009433002080B500AF054B5B69044A43F0E6
:102A900008035361034BDB68984700BF80BD00BF4C
:102AA000000401409433002080B500AF054B5B6902
:102AB000044A43F010035361034B1B69984700BF5E
:102AC00080BD00BF000401409433002080B500AFFA
:102AD000264B5B6903F02003002B08D0234B5B6976
:102AE000224A43F020035361214B5B6998471F4BF7
:102AF0005B6903F04003002B08D01C4B5B691B4A49
:102B000043F0400353611A4B9B699847174B5B692D
:102B100003F08003002B08D0144B5B69134A43F089
:102B200080035361124BDB699847104B5B6903F4D8
:102B30008073002B08D00D4B5B690C4A43F4807303
:102B400053610B4B1B6A9847084B5B6903F4007396
:102B5000002B08D0054B5B69044A43F400735361B2
:102B6000034B5B6A984700BF80BD00BF0004014073
:102B70009433002080B500AF354B5B6903F480636C
:102B8000002B08D0324B5B69314A43F480635361B8
:102B9000304B9B6A98472E4B5B6903F48063002B94
:102BA00008D02B4B5B692A4A43F480635361294B5D
:102BB0009B6A9847264B5B6903F40063002B08D09F
:102BC000234B5B69224A43F400635361214BDB6A68
:102BD00098471F4B5B6903F48053002B08D01C4BB4
:102BE0005B691B4A43F4805353611A4B1B6B984734
:102BF000174B5B6903F40053002B08D0144B5B693F
:102C0000134A43F400535361124B5B6B9847104BCC
:102C10005B6903F48043002B08D00D4B5B690C4AC1
:102C200043F4804353610B4B9B6B9847084B5B69A4
:102C300003F40043002B08D0054B5B69044A43F4BE
:102C400000435361034BDB6B984700BF80BD00BF5F
:102C5000000401409433002080B483B000AF0346E9
:102C6000FB80FB88802B42D0802B11DC082B36D0D8
:102C7000082B06DC022B2ED0042B2ED0012B28D0C3
:102C800047E0202B2FD0402B2FD0102B29D040E015
:102C9000B3F5006F33D0B3F5006F09DCB3F5007FF7
:102CA00029D0B3F5806F28D0B3F5807F21D030E0F4
:102CB000B3F5005F27D0B3F5005F03DCB3F5805FA9
:102CC0001FD026E0B3F5804F1FD0B3F5004F1ED0C4
:102CD0001FE000231EE004231CE008231AE00C235D
:102CE00018E0102316E0142314E0182312E01C232C
:102CF00010E000230EE004230CE008230AE00C237C
:102D000008E0102306E0142304E0182302E01C234B
:102D100000E0002318460C37BD4680BC704790B5D4
:102D200085B000AF786039600023BB600023FB737F
:102D30003B681B88802B02D97B68043300E07B68EA
:102D4000BB603B681B881846FFF786FF02460F23CF
:102D50009340DA43BB681B681A40BB681A603B6843
:102D60009B78042B0BD03B689B78052B07D03B68E6
:102D70009B78062B03D03B689B78072B0ED13B68D2
:102D80009B78043B9B005AB23B68DB785BB203F054
:102D90000F035BB213435BB2FB7339E03B689B7874
:102DA000012B03D03B689B78002B0CD13B689B78B0
:102DB0009B005BB203F00F035AB297F90F30134335
:102DC0005BB2FB7324E03B689B78082B04D1FB7B50
:102DD00043F00403FB731BE0FB7B43F00803FB732E
:102DE0003B689B78022B07D17B68DB683A681288C6
:102DF0001A437B68DA600BE03B689B78032B07D1B2
:102E00007B68DB683A681288D2431A407B68DA60D4
:102E1000FC7B3B681B881846FFF71EFF034604FA3D
:102E200003F2BB681B681A43BB681A6000BF143703
:102E3000BD4690BD80B483B000AF78600B467B8008
:102E40007B689A687B881340002B01D0012300E047
:102E5000002318460C37BD4680BC704780B483B051
:102E600000AF78600B467B8013467B707B78012B2C
:102E700006D17B68DA687B881A437B68DA6006E0F3
:102E80007B68DB687A88D2431A407B68DA6000BFCF
:102E90000C37BD4680BC704780B400AF0B4B5B68FD
:102EA0009B0803F00303012B06D0012B02D3022B56
:102EB00004D005E0064B04E0064B02E0064B00E0C0
:102EC00000231846BD4680BC704700BF001002407A
:102ED00000127A00006A18000024F40080B500AFE8
:102EE000FFF7DAFF0146054B5B681B0903F00F0390
:102EF000034AD35C21FA03F3184680BD0010024058
:102F000074B1000880B500AFFFF7E8FF0146054B3C
:102F10005B681B0A03F00703034AD35C21FA03F33F
:102F2000184680BD001002406CB1000880B500AFAB
:102F3000FFF7D4FF0146054B5B68DB0A03F007038C
:102F4000034AD35C21FA03F3184680BD0010024007
:102F50006CB1000880B400AF4FF080431B6903F0F0
:102F60000103002B0AD04FF080431B694FF08042D1
:102F700023F001031361034B00221A7000BFBD460A
:102F800080BC70470C00002080B400AF074B1B6969
:102F9000064A23F001031361054B1B8801339AB2E3
:102FA000034B1A8000BFBD4680BC7047002C014017
:102FB0001402002080B400AF074B1B69064A23F0BF
:102FC00001031361054B1B8801339AB2034B1A802E
:102FD00000BFBD4680BC70470004004012020020C4
:102FE00080B400AF074B1B69064A23F0010313614D
:102FF000054B1B8801339AB2034B1A8000BFBD46B4
:1030000080BC7047000800401002002080B582B0EC
:1030100000AF786039607B685D4A934209D15D4AB0
:103020003B6813605C4B9B695B4A43F4804393614C
:103030001AE07B68594A934209D1564A3B6853606B
:10304000554BDB69544A43F40033D3610CE07B6891
:10305000534A934208D14F4A3B6893604E4BDB6919
:103060004D4A43F48023D3617B68DB6843F400520C
:103070007B68DA607B68DB683A6812781A437B68A1
:10308000DA607B68DB683A68127A1A437B68DA6038
:103090007B681B693A68527A1A437B681A617B68BD
:1030A0001B693A68927A1A437B681A617B685B698C
:1030B0003A68D27A1A437B685A617B68344A9342F1
:1030C00005D1FFF733FF0246364B1A6004E0FFF7E5
:1030D00019FF0246334B1A60324B1A683B685B6833
:1030E0001B01B2FBF3F319012E4B1A6813469B0028
:1030F00013449A001A443B685B689B00B2FBF3F2EE
:10310000284B18683B685B681B01B0FBF3F3642035
:1031100000FB03F3D31A1B01234AA2FB03235B0921
:1031200003F00F030B43214A1360204B1A687B689E
:103130009A603B681B7B002B26D07B68DB683A6873
:10314000127B1A437B68DA607B68114A934206D18E
:10315000174B1B68164A43F02003136014E07B688A
:103160000E4A934206D1124B1B68114A43F04003AA
:10317000136009E07B680A4A934205D10C4B1B6837
:103180000B4A43F08003136000BF0837BD4680BD83
:1031900000380140DC3300200010024000440040B1
:1031A00000480140D83300201F85EB51D433002064
:1031B00004E100E080B483B000AF78600B46FB70A0
:1031C0001346BB7000BF7B681B6803F08003002BB5
:1031D000F9D0FA787B685A6000BF7B681B6803F0FF
:1031E0004003002BF9D000BF0C37BD4680BC7047B0
:1031F00080B584B000AF78607B682B4A934218D1C9
:103200004FF40073BB810623BB730123FB7307F1EB
:103210000C0319462548FFF782FD4FF48063BB81FC
:103220000823BB7307F10C0319462048FFF777FD0D
:1032300036E07B681E4A934216D10423BB810623E5
:10324000BB730123FB7307F10C0319461748FFF703
:1032500066FD0823BB810823BB7307F10C031946E5
:103260001248FFF75CFD1BE07B68124A934217D1BE
:103270004FF48063BB810623BB730123FB7307F10B
:103280000C0319460C48FFF74AFD4FF40063BB815D
:103290000823BB7307F10C0319460748FFF73FFDEE
:1032A00000BF1037BD4680BD003801400008014016
:1032B0000044004000480140000C014080B500AFD0
:1032C000024B5B681B69984700BF80BDDC33002060
:1032D00080B500AF024B9B681B69984700BF80BD5B
:1032E000DC33002080B483B000AF78607B6803F1EA
:1032F00008027B685A607B684FF0FF329A607B68F7
:1033000003F108027B68DA607B6803F108027B68DE
:103310001A617B6800221A6000BF0C37BD4680BC72
:10332000704780B483B000AF78607B6800221A6178
:1033300000BF0C37BD4680BC704780B485B000AF7D
:10334000786039603B681B68BB60BB68B3F1FF3FC6
:1033500003D17B681B69FB600CE07B680833FB6072
:1033600002E0FB685B68FB60FB685B681B68BA682F
:103370009A42F6D2FB685A683B685A603B685B68C1
:103380003A689A603B68FA689A60FB683A685A60E3
:103390003B687A681A617B681B685A1C7B681A60F4
:1033A00000BF1437BD4680BC704780B485B000AF05
:1033B00078607B681B69FB607B685B687A689268F1
:1033C0009A607B689B687A6852685A60FB685B68A1
:1033D0007A689A4203D17B689A68FB685A607B6876
:1033E00000221A61FB681B685A1EFB681A60FB68A2
:1033F0001B6818461437BD4680BC704790B585B031
:1034000000AF786039600123FB607B68BB60BB68FC
:10341000002B63D0BB68DB6B002B5FD0BB681A6CE2
:10342000BB68DB6B0020A2FB03124FF000034FF0E0
:10343000000413000024002B00D001200346002BC1
:103440004CD101F0DBFDBB681A68BB68DB6BB96867
:10345000096C01FB03F31A44BB689A60BB68002245
:103460009A63BB681A68BB685A60BB681A68BB6815
:10347000DB6B013BB968096C01FB03F31A44BB68C1
:10348000DA60BB68FF2283F84420BB68FF2283F820
:1034900045203B68002B14D1BB681B69002B1AD058
:1034A000BB681033184600F0B7FF0346002B12D05C
:1034B0000E4B4FF080521A60BFF34F8FBFF36F8FE8
:1034C00009E0BB6810331846FFF70CFFBB682433D4
:1034D0001846FFF707FF01F0A9FD01E00023FB609C
:1034E000FB6818461437BD4690BD00BF04ED00E0F0
:1034F00090B58BB002AFF860B9601346FB71002342
:10350000FB61FB68002B33D00020BA68FB68A2FB8C
:1035100003124FF000034FF0000413000024002BAF
:1035200000D001200346002B22D1FB68BA6802FBC1
:1035300003F313F1490F1BD8FB68BA6802FB03F3CE
:10354000BB61BB694833184601F0E8FDF861FB69CF
:10355000002B0DD0FB697B617B6948337B61FA7975
:10356000FB69009313467A69B968F86800F005F8BA
:10357000FB6918462437BD4690BD80B584B000AFC6
:10358000F860B9607A60FB70BB68002B03D1BB693F
:10359000BA691A6002E0BB697A681A60BB69FA68A6
:1035A000DA63BB69BA681A640121B869FFF726FFBC
:1035B00000BF1037BD4680BD80B58AB000AFF8604F
:1035C000B9607A603B6000237B62FB683B6201F07C
:1035D00015FD3B6A9A6B3B6ADB6B9A4202D33B68F0
:1035E000022B29D13A68B968386A00F08DF9F86180
:1035F0003B6A5B6A002B10D03B6A2433184600F00C
:103600000BFF0346002B13D03F4B4FF080521A6044
:10361000BFF34F8FBFF36F8F0AE0FB69002B07D01A
:10362000394B4FF080521A60BFF34F8FBFF36F8F4B
:1036300001F0FCFC012363E07B68002B03D101F067
:10364000F5FC00235CE07B6A002B06D107F1140334
:10365000184600F0A9FF01237B6201F0E7FC00F0AF
:1036600039FC01F0CBFC3B6A93F844305BB2B3F118
:10367000FF3F03D13B6A002283F844203B6A93F862
:1036800045305BB2B3F1FF3F03D13B6A002283F8C0
:10369000452001F0CBFC3A1D07F1140311461846F2
:1036A00000F098FF0346002B24D1386A00F016FA88
:1036B0000346002B18D03B6A10337A68114618462F
:1036C00000F05CFE386A00F0A1F900F011FC03463E
:1036D000002B7FF47CAF0C4B4FF080521A60BFF38D
:1036E0004F8FBFF36F8F72E7386A00F08FF900F0E9
:1036F000FFFB6CE7386A00F089F900F0F9FB002362
:1037000018462837BD4680BD04ED00E080B58CB07A
:1037100000AFF860B9607A603B60FB68BB62EFF3B2
:1037200011824FF0BF0383F31188BFF36F8FBFF394
:103730004F8FBA617B61BB697B62BB6A9A6BBB6A64
:10374000DB6B9A4202D33B68022B2FD1BB6A93F802
:10375000453087F82330BB6A9B6BFB613A68B968D8
:10376000B86A00F0D1F897F92330B3F1FF3F12D1D6
:10377000BB6A5B6A002B16D0BB6A2433184600F084
:103780004BFE0346002B0ED07B68002B0BD07B68D2
:1037900001221A6007E097F823300133DBB25AB2F6
:1037A000BB6A83F845200123FB6201E00023FB6232
:1037B0007B6A3B613B6983F31188FB6A18463037AB
:1037C000BD4680BD80B58AB000AFF860B9607A6050
:1037D00000237B62FB683B6201F010FC3B6A9B6B41
:1037E000FB61FB69002B1FD0B968386A00F0E8F86C
:1037F000FB695A1E3B6A9A633B6A1B69002B0FD018
:103800003B6A1033184600F007FE0346002B07D032
:103810003C4B4FF080521A60BFF34F8FBFF36F8F56
:1038200001F004FC012369E07B68002B03D101F067
:10383000FDFB002362E07B6A002B06D107F1140335
:10384000184600F0B1FE01237B6201F0EFFB00F0AF
:1038500041FB01F0D3FB3B6A93F844305BB2B3F118
:10386000FF3F03D13B6A002283F844203B6A93F870
:1038700045305BB2B3F1FF3F03D13B6A002283F8CE
:10388000452001F0D3FB3A1D07F1140311461846F9
:1038900000F0A0FE0346002B23D1386A00F008F99F
:1038A0000346002B17D03B6A24337A68114618462A
:1038B00000F064FD386A00F0A9F800F019FB034637
:1038C000002B89D10F4B4FF080521A60BFF34F8FFE
:1038D000BFF36F8F80E7386A00F098F800F008FBBC
:1038E0007AE7386A00F092F800F002FB386A00F0DC
:1038F000DFF80346002B3FF46FAF0023184628374C
:10390000BD4680BD04ED00E080B586B000AFF86034
:10391000B9607A6000233B61FB689B6B7B61FB684D
:103920001B6C002B43D07B68002B19D1FB685868B7
:10393000FB681B6C1A46B96802F0C8FCFB685A6841
:10394000FB681B6C1A44FB685A60FB685A68FB688A
:103950009B689A422BD3FB681A68FB685A6026E082
:10396000FB68D868FB681B6C1A46B96802F0AEFCAD
:10397000FB68DA68FB681B6C5B421A44FB68DA6020
:10398000FB68DA68FB681B689A4207D2FB689A6892
:10399000FB681B6C5B421A44FB68DA607B68022B95
:1039A00005D17B69002B02D07B69013B7B617B6980
:1039B0005A1CFB689A633B6918461837BD4680BDA0
:1039C00080B582B000AF786039607B681B6C002BDB
:1039D00018D07B68DA687B681B6C1A447B68DA60F5
:1039E0007B68DA687B689B689A4203D37B681A68B5
:1039F0007B68DA607B68D9687B681B6C1A4638681C
:103A000002F064FC00BF0837BD4680BD80B584B0BD
:103A100000AF786001F0F2FA7B6893F84530FB73F1
:103A200011E07B685B6A002B12D07B682433184658
:103A300000F0F2FC0346002B01D000F015FEFB7BEA
:103A4000013BDBB2FB7397F90F30002BE9DC00E0A0
:103A500000BF7B68FF2283F8452001F0E7FA01F000
:103A6000CDFA7B6893F84430BB7311E07B681B6927
:103A7000002B12D07B681033184600F0CDFC0346B3
:103A8000002B01D000F0F0FDBB7B013BDBB2BB7330
:103A900097F90E30002BE9DC00E000BF7B68FF22C5
:103AA00083F8442001F0C2FA00BF1037BD4680BD44
:103AB00080B584B000AF786001F0A0FA7B689B6BA2
:103AC000002B02D10123FB6001E00023FB6001F029
:103AD000ADFAFB6818461037BD4680BD80B584B08E
:103AE00000AF786001F08AFA7B689A6B7B68DB6BC9
:103AF0009A4202D10123FB6001E00023FB6001F048
:103B000095FAFB6818461037BD4680BD80B586B073
:103B100000AFF860B9607A60FB687B6101F06EFA13
:103B20007B6993F844305BB2B3F1FF3F03D17B690B
:103B3000002283F844207B6993F845305BB2B3F1EF
:103B4000FF3F03D17B69002283F8452001F06EFA24
:103B50007B699B6B002B06D17B6924337A68B9683B
:103B6000184600F021FC7869FFF750FF00BF1837B6
:103B7000BD4680BD80B58CB004AFF860B9603B60D5
:103B80001346FB80FB889B00184601F0C7FA78615A
:103B90007B69002B0ED04C2001F0C0FAF861FB6964
:103BA000002B03D0FB697A691A6305E0786901F09C
:103BB00063FB01E00023FB61FB69002B13D0FA8853
:103BC00000230393FB690293FB6A0193BB6A009392
:103BD0003B68B968F86800F00EF8F86900F084F8FE
:103BE0000123BB6102E04FF0FF33BB61BB691846A4
:103BF0002037BD4680BD80B586B000AFF860B960A3
:103C00007A603B60BB6A1A6B7B6803F18043013BBF
:103C10009B0013443B613B6923F007033B61BB6896
:103C2000002B1FD000237B6112E0BA687B6913442C
:103C30001978BA6A7B69134434330A461A70BA6831
:103C40007B6913441B78002B06D07B6901337B61B1
:103C50007B690F2BE9D900E000BFBB6A002283F823
:103C6000432003E0BB6A002283F834203B6A042B24
:103C700001D904233B62BB6A3A6ADA62BB6A043345
:103C80001846FFF74EFBBB6A18331846FFF749FB8F
:103C9000BB6ABA6A1A613B6AC3F10502BB6A9A61E0
:103CA000BB6ABA6A5A62BB6A4433042200211846CE
:103CB00002F017FBBB6A483301220021184602F0CC
:103CC00010FB3A68F968386901F008F90246BB6AE6
:103CD0001A607B6A002B02D07B6ABA6A1A6000BF46
:103CE0001837BD4680BD000080B584B000AF786055
:103CF00001F084F93E4B1B6801333D4A13603D4B94
:103D00001B68002B09D13B4A7B681360384B1B684A
:103D1000012B10D100F0CCFC0DE0374B1B68002BC1
:103D200009D1344B1B68DA6A7B68DB6A9A4202D895
:103D3000304A7B681360314B1B6801332F4A136094
:103D40007B68DB6A01229A402D4B1B6813432C4A87
:103D500013607B68DA6A2B4913469B0013449B006F
:103D60000B4404331B68FB607B68FA689A60FB684D
:103D70009A687B68DA60FB689B687A6804325A60EC
:103D80007B681A1DFB689A607B68DA6A13469B00A1
:103D900013449B001B4A1A447B685A617B68DA6AA9
:103DA000184913469B0013449B000B441B68591C85
:103DB000144813469B0013449B000344196001F010
:103DC00035F90D4B1B68002B0ED00A4B1B68DA6AC5
:103DD0007B68DB6A9A4207D20B4B4FF080521A6025
:103DE000BFF34F8FBFF36F8F00BF1037BD4680BD4D
:103DF000F002002018020020FC0200200C0300202A
:103E0000F80200201C02002004ED00E080B584B020
:103E100000AF78600023FB607B68002B08D000F0C7
:103E200059F80021786800F0F7FC00F061F8F860BC
:103E3000FB68002B07D1064B4FF080521A60BFF38E
:103E40004F8FBFF36F8F00BF1037BD4680BD00BFDF
:103E500004ED00E080B584B002AF174B019300235E
:103E600000930023802215491548FFF783FE7860F0
:103E70007B68012B02D100F04FFD78607B68012B3D
:103E800014D14FF0BF0383F31188BFF36F8FBFF3DB
:103E90004F8F3B600B4B4FF0FF321A600A4B0122F1
:103EA0001A600A4B00221A6001F088F8084B1B6860
:103EB00000BF0837BD4680BD14030020B0AE000827
:103EC0008146000810030020FC020020F4020020BC
:103ED0001000002080B400AF044B1B680133034A7C
:103EE000136000BFBD4680BC704700BF18030020B0
:103EF00080B586B000AF00237B6100233B6101F0F9
:103F00007DF8684B1B68013B664A1360654B1B6874
:103F1000002B40F0C080644B1B68002B00F0BB807E
:103F20008AE0624BDB68DB687B617B699B6ABB6014
:103F30007B69DB697A69126A9A607B691B6A7A69B4
:103F4000D2695A60BB685A687B6918339A4203D1B8
:103F50007B691A6ABB685A607B6900229A62BB68F7
:103F60001B685A1EBB681A607B695B697B607B6952
:103F70009B687A69D2689A607B69DB687A69926823
:103F80005A607B685A687B6904339A4203D17B6923
:103F9000DA687B685A607B6900225A617B681B681B
:103FA0005A1E7B681A607B69DB6A01229A40404B8B
:103FB0001B6813433E4A13607B69DA6A3D49134626
:103FC0009B0013449B000B4404331B683B607B69DC
:103FD0003A689A603B689A687B69DA603B689B68DC
:103FE0007A6904325A607B691A1D3B689A607B6962
:103FF000DA6A13469B0013449B002E4A1A447B69DD
:104000005A617B69DA6A2B4913469B0013449B0073
:104010000B441B68591C274813469B0013449B0004
:10402000034419607B69DA6A234B1B68DB6A9A4296
:1040300002D3224B01221A601C4B1B68002B7FF419
:1040400070AF7B69002B01D000F0AEFB1C4B1B68EE
:10405000FB60FB68002B10D000F044F80346002BF7
:1040600002D0164B01221A60FB68013BFB60FB6823
:10407000002BF1D1124B00221A60104B1B68002B51
:1040800009D001233B610F4B4FF080521A60BFF300
:104090004F8FBFF36F8F00F0C9FF3B691846183789
:1040A000BD4680BD18030020F0020020B0020020B1
:1040B000F80200201C020020180200200403002047
:1040C0000003002004ED00E080B483B000AF044B97
:1040D0001B687B607B6818460C37BD4680BC704708
:1040E000F402002080B588B000AF0023FB61754B5F
:1040F0001B68002B40F0DC80734B1B680133BB61F5
:10410000714ABB691360BB69002B10D16F4B1B68F0
:104110007B616F4B1B686D4A13606D4A7B6913604E
:104120006C4B1B6801336B4A136000F03DFB6A4B1C
:104130001B68BA699A42C0F0A680644B1B681B6872
:10414000002B04D1644B4FF0FF321A609BE05F4BB1
:104150001B68DB68DB683B613B695B68FB60BA69D5
:10416000FB689A4203D25C4AFB6813608BE03B69B0
:104170005B69BB603B699B683A69D2689A603B693E
:10418000DB683A6992685A60BB685A683B690433D5
:104190009A4203D13B69DA68BB685A603B690022E6
:1041A0005A61BB681B685A1EBB681A603B699B6AF0
:1041B000002B1ED03B699B6A7B603B69DB693A69D7
:1041C000126A9A603B691B6A3A69D2695A607B68D5
:1041D0005A683B6918339A4203D13B691A6A7B6873
:1041E0005A603B6900229A627B681B685A1E7B6892
:1041F0001A603B69DB6A01229A40384B1B68134303
:10420000364A13603B69DA6A354913469B0013440A
:104210009B000B4404331B683B603B693A689A601F
:104220003B689A683B69DA603B689B683A6904328C
:104230005A603B691A1D3B689A603B69DA6A13460B
:104240009B0013449B00264A1A443B695A613B6910
:10425000DA6A234913469B0013449B000B441B68F6
:10426000591C1F4813469B0013449B0003441960CC
:104270003B69DA6A1B4B1B68DB6A9A42FFF45DAF4D
:104280000123FB6159E7174B1B68DA6A144913468F
:104290009B0013449B000B441B68012B01D9012395
:1042A000FB61114B1B68002B07D00123FB6104E06D
:1042B0000E4B1B6801330D4A1360FB69184620370B
:1042C000BD4680BD18030020F4020020A802002093
:1042D000AC0200200803002010030020F802002098
:1042E0001C0200201802002004030020000300200C
:1042F00080B485B000AF1C4B1B68002B03D01B4B58
:1043000001221A602AE0194B00221A60184B1B6820
:104310007B607B68B3FA83F3FB70FB78C3F11F0308
:10432000FB60FA6813469B0013449B00114A134438
:10433000BB60BB685B685A68BB685A60BB685A68F8
:10434000BB6808339A4204D1BB685B685A68BB6893
:104350005A60BB685B68DB68074A136000BF1437AC
:10436000BD4680BC704700BF180300200403002036
:10437000F80200201C0200201802002080B582B044
:1043800000AF78603960074B1B68183319467868AE
:10439000FEF7D3FF0121386800F03EFA00BF08376E
:1043A000BD4680BD1802002080B586B000AFF86021
:1043B000B9607A60FB685B687B61164B1B687A6941
:1043C000DA61144B1B687A6992681A62114B1A6899
:1043D0007B699B6818325A600E4B1B6803F1180208
:1043E0007B699A600B4B1B68FA689A62FB681B68D2
:1043F0005A1CFB681A607B68002B02D04FF0FF3319
:10440000BB607968B86800F007FA00BF1837BD468E
:1044100080BD00BF1802002080B489B000AF786072
:104420007B68DB68DB68BB61BB699B6A7B61BB69DE
:10443000DB69BA69126A9A60BB691B6ABA69D26998
:104440005A607B695A68BB6918339A4203D1BB69C9
:104450001A6A7B695A60BB6900229A627B691B6891
:104460005A1E7B691A604A4B1B68002B5ED1BB69E0
:104470005B69FB60BB699B68BA69D2689A60BB697B
:10448000DB68BA6992685A60FB685A68BB69043392
:104490009A4203D1BB69DA68FB685A60BB690022A3
:1044A0005A61FB681B685A1EFB681A60BB69DB6AAD
:1044B00001229A40374B1B681343364A1360BB698D
:1044C000DA6A354913469B0013449B000B440433BE
:1044D0001B68BB60BB69BA689A60BB689A68BB69B5
:1044E000DA60BB689B68BA6904325A60BB691A1DFE
:1044F000BB689A60BB69DA6A13469B0013449B0051
:10450000254A1A44BB695A61BB69DA6A22491346D3
:104510009B0013449B000B441B68591C1E48134608
:104520009B0013449B00034419601BE01B4B5B681A
:104530003B61BB693A69DA613B699A68BB691A6297
:104540003B699B68BA6918325A60BB6903F118026B
:104550003B699A60BB69114A9A62104B1B68013330
:104560000E4A1360BB69DA6A0D4B1B68DB6A9A421C
:1045700005D90123FB610B4B01221A6001E00023E6
:10458000FB61FB6918462437BD4680BC704700BFFD
:1045900018030020F80200201C020020B0020020B6
:1045A000180200200403002080B483B000AF7860BC
:1045B000064B1A687B681A60054B1A687B685A605C
:1045C00000BF0C37BD4680BC704700BF0803002009
:1045D000F402002080B586B000AF7860396000F04A
:1045E0000DFD1F4B1B683B617B685B683A69D31A02
:1045F000FB603B681B68B3F1FF3F02D100237B6186
:1046000026E07B681A68174B1B689A420AD07B68C1
:104610005B683A699A4205D301237B613B680022BB
:104620001A6015E03B681B68FA689A420BD23B6837
:104630001A68FB68D21A3B681A607868FFF7B4FF03
:1046400000237B6104E03B6800221A6001237B6148
:1046500000F0ECFC7B6918461837BD4680BD00BFF2
:10466000F40200200803002080B400AF034B0122B5
:104670001A6000BFBD4680BC704700BF0403002025
:1046800080B582B000AF786000F052F8064B1B682E
:10469000012BF9D9054B4FF080521A60BFF34F8FB1
:1046A000BFF36F8FF0E700BF1C02002004ED00E0B5
:1046B00080B582B000AF00237B600CE07A681346BF
:1046C0009B0013449B00124A13441846FEF70AFE4F
:1046D0007B6801337B607B68042BEFD90D48FEF7C4
:1046E00001FE0D48FEF7FEFD0C48FEF7FBFD0C48F1
:1046F000FEF7F8FD0B48FEF7F5FD0B4B054A1A6077
:104700000A4B054A1A6000BF0837BD4680BD00BF8E
:104710001C0200208002002094020020B002002031
:10472000C4020020DC020020A8020020AC0200200D
:1047300080B582B000AF19E000F060FC0F4BDB6881
:10474000DB687B607B6804331846FEF72EFE0C4B5B
:104750001B68013B0A4A13600A4B1B68013B094A6C
:10476000136000F063FC786800F00EF8054B1B68DE
:10477000002BE1D100BF0837BD4680BDC402002038
:10478000F0020020D802002080B582B000AF78602F
:104790007B681B6B184600F06FFD786800F06CFDBD
:1047A00000BF0837BD4680BD80B400AF094B1B6811
:1047B0001B68002B04D1084B4FF0FF321A6005E054
:1047C000044B1B68DB681B68034A136000BFBD46CF
:1047D00080BC7047A80200201003002080B483B082
:1047E00000AF0B4B1B68002B02D101237B6008E05C
:1047F000084B1B68002B02D102237B6001E00023E1
:104800007B607B6818460C37BD4680BC704700BF94
:10481000FC0200201803002080B586B000AF78604D
:104820003960364B1B687B61354B1B680433184677
:10483000FEF7BBFD0346002B0BD1314B1B68DB6A37
:10484000012202FA03F3DA432E4B1B6813402D4A70
:1048500013607B68B3F1FF3F24D13B68002B21D06C
:10486000294B5B683B61264B1B683A699A60244B75
:104870001B683A699268DA60214B1A683B699B6849
:1048800004325A601E4B1B681A1D3B699A601C4B10
:104890001B681D4A5A611C4B1B6801331A4A13607E
:1048A00000BF26E07A697B681344FB60144B1B68E9
:1048B000FA685A60FA687B699A4209D2134B1A68FF
:1048C0000F4B1B68043319461046FEF736FD10E007
:1048D0000F4B1A680A4B1B68043319461046FEF743
:1048E0002CFD0C4B1B68FA689A4202D2094AFB68FD
:1048F000136000BF1837BD4680BD00BFF402002022
:1049000018020020F8020020DC020020AC02002087
:10491000A80200201003002080B584B002AF00235D
:104920007B6000F0B1FA0A4B1B68002B0BD0094BDF
:1049300001930123009300234FF480620649074846
:10494000FFF718F978607B6818460837BD4680BDC8
:104950004C03002050030020B8AE0008194B00089B
:1049600080B588B002AFF860B9607A603B602820FB
:1049700000F0D4FB78617B69002B0DD07B690022AD
:1049800083F824207B6901933B6A00933B687A6833
:10499000B968F86800F005F87B6918461837BD4615
:1049A00080BD80B584B000AFF860B9607A603B60CC
:1049B00000F06AFAFB69FA681A60FB69BA689A61E2
:1049C000FB693A68DA61FB69BA691A62FB69043308
:1049D0001846FEF7A6FC7B68002B08D0FB6993F80D
:1049E000243043F00403DAB2FB6983F8242000BFCB
:1049F0001037BD4680BD000080B588B000AFF860BC
:104A0000B9607A603B600023FB611A4B1B68002B86
:104A10002AD0BB683B617B687B61FB68BB61BB687C
:104A2000052B18DCFFF7DAFE0346022B09D1114BE8
:104A3000186807F110010023BA6AFEF7BDFDF8619E
:104A400012E00C4B186807F1100100230022FEF75A
:104A5000B3FDF86108E0074B186807F11001002367
:104A60003A68FEF753FEF861FB6918462037BD46E9
:104A700080BD00BF4C03002080B584B000AFF8605B
:104A8000B9607A6008E0FB689B69BA681344BB6050
:104A9000FB681B6AF8689847FB689A69BB68D1187D
:104AA000BB687A68F86800F0D9F80346002BEAD1B1
:104AB00000BF1037BD4680BD80B584B000AF7860C0
:104AC0003960144B1B68DB68DB68FB60FB680433F0
:104AD0001846FEF76AFCFB6893F8243003F00403E1
:104AE000002B05D03A687968F868FFF7C5FF08E041
:104AF000FB6893F8243023F00103DAB2FB6883F8F3
:104B00002420FB681B6AF868984700BF1037BD4631
:104B100080BD00BF4403002080B584B000AF786042
:104B200007F10803184600F057F8F860BB6819460B
:104B3000F86800F003F800F0D3F8F1E780B584B02E
:104B400000AF78603960FFF7C5F907F10803184630
:104B500000F064F8F860BB68002B30D13B68002B94
:104B60000AD17A68FB689A4206D8FFF7C1F9F9685A
:104B70007868FFF7A1FF24E03B68002B08D0134BB7
:104B80001B681B68002B01D1012300E000233B6060
:104B90000F4B18687A68FB68D31A3A681946FEF713
:104BA000B5FFFFF7A5F90346002B0AD1094B4FF0DB
:104BB00080521A60BFF34F8FBFF36F8F01E0FFF792
:104BC00097F900BF1037BD4680BD00BF48030020E5
:104BD0004C03002004ED00E080B485B000AF7860A5
:104BE0000D4B1B681B68002B01D1012200E0002245
:104BF0007B681A607B681B68002B05D1064B1B681D
:104C0000DB681B68FB6001E00023FB60FB68184663
:104C10001437BD4680BC70474403002080B584B083
:104C200000AF7860FFF750FAF8600B4B1B68FA682A
:104C30009A4205D200F002F97B6801221A6002E074
:104C40007B6800221A60044AFB681360FB68184600
:104C50001037BD4680BD00BF5403002080B586B02C
:104C600000AFF860B9607A603B6000237B61FB684D
:104C7000BA685A60FB68FA681A61BA687B689A4237
:104C800012D87A683B68D21AFB689B699A4202D3B1
:104C900001237B611BE0104B1A68FB680433194643
:104CA0001046FEF74AFB12E07A683B689A4206D249
:104CB000BA683B689A4202D301237B6107E0074B45
:104CC0001A68FB68043319461046FEF736FB7B6909
:104CD00018461837BD4680BD480300204403002015
:104CE00080B586B000AF97E07B68002BC0F2938060
:104CF000FB687B617B695B69002B04D07B690433B3
:104D00001846FEF752FB3B461846FFF787FF38610F
:104D10007B68013B082B7FD801A252F823F000BF2B
:104D2000454D0008454D0008AD4D0008C14D000837
:104D3000ED4D0008454D0008454D0008AD4D0008FB
:104D4000C14D00087B6993F8243043F00103DAB2C7
:104D50007B6983F82420BA687B699B69D118BB689A
:104D60003A697869FFF77AFF0346002B54D07B69D4
:104D700093F8243003F00403002B09D0BA687B6950
:104D80009B6913443A6919467869FFF775FE08E094
:104D90007B6993F8243023F00103DAB27B6983F84E
:104DA00024207B691B6A7869984735E07B6993F812
:104DB000243023F00103DAB27B6983F824202BE04E
:104DC0007B6993F8243043F00103DAB27B6983F8FE
:104DD0002420BA687B699A617B699A693B69D1181A
:104DE0003B693A697869FFF739FF15E07B6993F809
:104DF000243003F00203002B03D1786900F03CFA61
:104E00000AE07B6993F8243023F00103DAB27B696E
:104E100083F8242000E000BF074B1B68391D0022E7
:104E20001846FEF7CFFC0346002B7FF45DAF00BFB2
:104E30001837BD4680BD00BF4C03002080B582B04E
:104E400000AF09E00E4B1B68DB681B683B604FF04E
:104E5000FF313868FFF730FE094B1B681B68002BD9
:104E6000F0D1074B1B687B60064B1B68044A13603C
:104E7000044A7B68136000BF0837BD4680BD00BF91
:104E8000440300204803002080B500AF00F0B6F8CE
:104E90000D4B1B68002B13D10C48FEF723FA0C486E
:104EA000FEF720FA0B4B094A1A600B4B084A1A60AE
:104EB00000220C210220FEF71BFB0246024B1A6067
:104EC00000F0B4F800BF80BD4C0300201C0300209C
:104ED00030030020440300204803002080B485B044
:104EE00000AFF860B9607A60FB68043BFB60FB6868
:104EF0004FF080721A60FB68043BFB60BB6823F0D4
:104F00000102FB681A60FB68043BFB60084AFB680F
:104F10001A60FB68143BFB607A68FB681A60FB68E8
:104F2000203BFB60FB6818461437BD4680BC7047C9
:104F3000354F000880B483B000AF00233B604FF0D2
:104F4000BF0383F31188BFF36F8FBFF34F8F7B6075
:104F500000BF3B68002BFCD000BF0C37BD4680BCB7
:104F6000704700000000000000000000000000008A
:104F7000074B19680868B0E8F00F80F30988BFF3A1
:104F80006F8F4FF0000080F311884EF00D0E7047C8
:104F90001802002000BF00BF06480068006880F3C8
:104FA000088862B661B6BFF34F8FBFF36F8F00DF23
:104FB00000BF000008ED00E000BF00BF80B500AFFB
:104FC0000C4B1B680B4A43F47F031360094B1B68AF
:104FD000084A43F07F43136000F086F8064B002236
:104FE0001A60FFF7D9FFFFF783F9FFF7A3FF00234C
:104FF000184680BD20ED00E01400002080B483B08E
:1050000000AF4FF0BF0383F31188BFF36F8FBFF37F
:105010004F8F7B60044B1B680133034A136000BF52
:105020000C37BD4680BC70471400002080B483B0AC
:1050300000AF094B1B68013B074A1360064B1B6816
:10504000002B04D100237B607B6883F3118800BFB1
:105050000C37BD4680BC70471400002000000000E3
:10506000EFF30980BFF36F8F0D4B1A6820E9F00F43
:1050700010602DE908404FF0BF0080F31188FFF762
:1050800037F94FF0000080F31188BDE80840196837
:105090000868B0E8F00F80F30988BFF36F8F70479E
:1050A0001802002000BF00BF80B582B000AF4FF0F3
:1050B000BF0383F31188BFF36F8FBFF34F8F7B6004
:1050C000FFF710F80346002B03D0064B4FF0805239
:1050D0001A6000233B603B6883F3118800BF0837E8
:1050E000BD4680BD04ED00E080B400AF074B002258
:1050F0001A60074B00221A60064B074A1A60034BDE
:1051000007221A6000BFBD4680BC704710E000E077
:1051100018E000E014E000E03F19010080B586B01F
:1051200000AF78600023FB60FEF7D4FE4C4B1B6899
:10513000002B01D100F0E0F84A4B1A687B6813405D
:10514000002B40F086807B68002B1ED008227B68F5
:1051500013447A689A4218D208227B6813447B6011
:105160007B6803F00703002B11D07B6823F0070353
:1051700008337A689A4205D27B6823F00703083324
:105180007B6004E000237B6001E000237B607B68A0
:10519000002B5ED0344B1B687A689A4259D8334B47
:1051A0003B61324B1B687B6104E07B693B617B693F
:1051B0001B687B617B695B687A689A4203D97B696B
:1051C0001B68002BF1D1264B1B687A699A4240D0AC
:1051D0003B691B6808221344FB607B691A683B69C2
:1051E0001A607B695A687B68D21A08235B009A426E
:1051F0000FD97A697B681344BB607B695A687B6806
:10520000D21ABB685A607B697A685A60B86800F045
:10521000D5F8154B1A687B695B68D31A124A13607C
:10522000114B1A68124B1B689A4203D20E4B1B6833
:105230000F4A13607B695A680A4B1B681A437B69E3
:105240005A607B6900221A600A4B1B680133094AC5
:105250001360FEF74DFEFB6818461837BD4680BD4B
:105260006033002074330020643300205833002062
:10527000683300206C33002080B584B000AF7860C4
:105280007B68FB607B68002B2CD008235B42FA68AC
:105290001344FB60FB68BB60BB685A68134B1B6818
:1052A0001340002B1ED0BB681B68002B1AD1BB68B3
:1052B0005A680E4B1B68DB431A40BB685A60FEF706
:1052C00009FEBB685A680A4B1B681344084A1360FE
:1052D000B86800F073F8074B1B680133054A136088
:1052E000FEF706FE00BF1037BD4680BD74330020B8
:1052F000643300207033002080B485B000AF4FF4D9
:105300004053BB60274BFB60FB6803F00703002B97
:105310000CD0FB680733FB60FB6823F00703FB60DE
:10532000BA68FB68D31A1F4A1344BB60FB687B60F2
:105330001D4A7B6813601C4B00225A607B68BA6868
:105340001344FB600822FB689B1AFB60FB6823F098
:105350000703FB60FB68154A1360144B1B680022AF
:105360005A60124B1B6800221A607B683B603B68E6
:10537000FA68D21A3B685A600C4B1A683B681A608C
:105380003B685B680A4A13603B685B68094A1360C4
:10539000094B4FF000421A6000BF1437BD4680BC75
:1053A000704700BF580300205833002060330020AE
:1053B00068330020643300207433002080B485B04B
:1053C00000AF7860274BFB6002E0FB681B68FB6066
:1053D000FB681B687A689A42F7D8FB68BB60FB6879
:1053E0005B68BA6813447A689A4208D1FB685A68C5
:1053F0007B685B681A44FB685A60FB687B607B686B
:10540000BB607B685B68BA681A44FB681B689A4299
:1054100018D1FB681A68144B1B689A420DD07B6840
:105420005A68FB681B685B681A447B685A60FB68B3
:105430001B681A687B681A6008E00B4B1A687B6867
:105440001A6003E0FB681A687B681A60FA687B6878
:105450009A4202D0FB687A681A6000BF1437BD46D2
:1054600080BC7047583300206033002080B400AF08
:105470000A4B9B69094A43F004039361074B9B69FC
:10548000064A43F008039361044B9B69034A43F0C7
:105490000103936100BFBD4680BC7047001002400D
:1054A00090B585B000AF7860FBF732FF0246174B2E
:1054B0001A60164B1B681846FAF7D0FF03460C46D5
:1054C0001A4623461249134801F086FC0023FB606C
:1054D0000BE0104AFB6813441B78002219460E4863
:1054E000FDF768FEFB680133FB600A48FAF74AFEE5
:1054F0000246FB689A42ECD83C220021054800F0A5
:10550000F0FE00BF1437BD4690BD00BF7C330020C5
:10551000C0AE00080C3400200044004090B585B0B7
:1055200000AF7860FBF7C0FE0246174B1A60164BBF
:105530001B681846FAF792FF03460C461A462346A4
:105540001249134801F048FC0023FB600BE0104AAD
:10555000FB6813441B78002219460E48FDF72AFE0B
:10556000FB680133FB600A48FAF70CFE0246FB6851
:105570009A42ECD83C220021054800F0B2FE00BF60
:105580001437BD4690BD00BF80330020C0AE000878
:105590000C34002000440040F0B583B000AF204B35
:1055A000204A14469C4604F1300E654626460FCE2E
:1055B00028606960AA60EB6010340CF1100C74452F
:1055C000F3D16246234603CB106051601B881381E0
:1055D00000237B6014E0124A7B6813441B7800228E
:1055E00019461148FDF7E6FD0D4A7B6813441B7808
:1055F000002219460D48FDF7DDFD7B6801337B6015
:105600000748FAF7BFFD02467B689A42E3D83C227E
:105610000021034800F065FE00BF0C37BD46F0BD19
:105620000C340020F8AE000800380140004400406F
:1056300080B588B002AFFFF719FF4FF41653BB6077
:1056400020233B740023FB7300237B730C233B71EB
:1056500000233B730023BB7300237B613B1D194672
:105660003248FDF7D3FC3148FDF7C2FD00233B74FF
:105670003B1D19462E48FDF7C9FC2D48FDF7B8FD26
:10568000002201213220FDF733FF0246294B1A6028
:10569000002232210520FDF72BFF0246264B1A601F
:1056A00000220F210520FDF723FF0246234B1A603D
:1056B000234B01930223009300234FF4807221496E
:1056C0002148FEF757FA214B019301230093002351
:1056D00080221F491F48FEF74DFA1F4B01930223FA
:1056E000009300234FF400721C491D48FEF742FA54
:1056F0001C4B0093002301224FF47A711A48FFF7E4
:105700002FF90246194B1A60194B0093012301220D
:105710004FF47A711748FFF723F90246164B1A60C7
:10572000FFF73AFFFEF796FBFEE700BF00380140A7
:1057300000440040FC33002000340020F0330020FF
:10574000EC33002034AF00087D57000804340020FB
:1057500044AF00082D590008F433002054AF00086E
:1057600099590008A154000864AF0008483400208B
:105770001D5500087CAF0008E833002080B594B0C8
:1057800000AF7860452387F83B30002387F84F301F
:10579000624B1B6807F13B0105221846FEF712F821
:1057A0000346002B00F0B28097F83B30082B03D063
:1057B00097F83B307F2B12D197F84F30002B00F039
:1057C000A58097F84F30013B87F84F3097F84F305E
:1057D00007F150021344002203F8482C96E097F892
:1057E0003B307D2B5FD197F84F30302B38D897F86E
:1057F0004F305A1C87F84F2097F83B2007F1500193
:105800000B4403F8482C97F84F3007F1500213442B
:10581000002203F8482C07F108031846FCF7E2FFC2
:105820000346002B07D03E4B186807F10801002300
:105830000522FDF7C1FE00220D213A48FDF7BAFC12
:1058400000220A213748FDF7B5FC07F10803322290
:105850000021184600F045FD002387F84F3055E041
:10586000314BFB630023BB640BE0BB6CFA6B13444E
:105870001B78002219462B48FDF79CFCBB6C0133BA
:10588000BB64F86BFAF77EFC0246BB6C9A42ECD81C
:1058900007F1080332220021184600F022FD002300
:1058A00087F84F3032E097F84F30302B0CD897F80C
:1058B0004F305A1C87F84F2097F83B2007F15001D2
:1058C0000B4403F8482C21E0174B3B6400237B6416
:1058D0000BE07B6C3A6C13441B780022194611488C
:1058E000FDF768FC7B6C01337B64386CFAF74AFC8B
:1058F00002467B6C9A42ECD807F108033222002161
:10590000184600F0EEFC002387F84F30002387F89C
:105910003B301420FEF77AFA3AE700BFFC33002050
:10592000003400200038014090AF000880B5A0B0DE
:1059300000AF7860164B1B6807F14C010522184632
:10594000FDF740FF0346002B1DD007F13C0207F195
:105950004C0311461846FCF7B9FE0E4B186807F1C8
:105960003C0100230522FDF727FE07F10803322240
:105970000021184600F0B5FC07F14C03322200214B
:10598000184600F0AEFC0F20FEF740FAD2E700BF49
:1059900000340020F0330020B0B5A0B002AF786032
:1059A000002387F84F30B14B1B6807F140010522F7
:1059B0001846FDF707FF0346002B00F02E8307F182
:1059C0004003AB491846FAF7D3FB0346002B40F0DF
:1059D000CC8007F140030533A6491846FAF7C8FB07
:1059E0000346002B2ED14FF40061A348FBF7CAFCFD
:1059F00007F10803A14A1C4615460FCD0FC40FCD71
:105A00000FC40FCD0FC495E803002060043421704B
:105A100000237B670CE007F108027B6F13441B78BF
:105A2000002219469648FDF7C5FB7B6F01337B6763
:105A300007F108031846FAF7A5FB02467B6F9A4266
:105A4000E9D8EAE207F1400305338E491846FAF730
:105A50008FFB0346002B2BD1FBF742FC07F1080319
:105A6000894A1C4615460FCD0FC40FCD0FC40FCD6C
:105A70000FC495E8030020600434217000233B67C5
:105A80000CE007F108023B6F13441B780022194613
:105A90007B48FDF78FFB3B6F01333B6707F1080342
:105AA0001846FAF76FFB02463B6F9A42E9D8B4E218
:105AB00007F14003053375491846FAF759FB0346C9
:105AC000002B2BD1FBF7D8FB07F10803704A1C46CB
:105AD00015460FCD0FC40FCD0FC40FCD0FC495E8E1
