:020000040800F2
:1000000000500020ED1A00083D1B00083D1B0008B1
:100010003D1B00083D1B00083D1B000800000000C0
:100020000000000000000000000000003D1B000870
:100030003D1B0008000000003D1B00083D1B0008A0
:100040003D1B00083D1B00083D1B00083D1B000830
:100050003D1B00083D1B0008A50F0008C90F000844
:10006000ED0F000811100008351000083D1B0008B6
:100070003D1B00083D1B00083D1B00083D1B000800
:100080003D1B00083D1B0008690F00083D1B0008D0
:100090003D1B00083D1B00083D1B000859100008CF
:1000A0003D1B0008ED1400083D1B00083D1B000827
:1000B000B514000819150008451500083D1B000877
:1000C0003D1B00083D1B00083D1B00083D1B0008B0
:1000D0003D1B0008A5180008B9180008CD18000835
:1000E000011100083D1B0008000000003D1B000836
:1000F0003D1B00083D1B00083D1B00083D1B000880
:100100003D1B00083D1B00083D1B00083D1B00086F
:100110003D1B00083D1B00083D1B00083D1B00085F
:100120003D1B00083D1B00083D1B00083D1B00084F
:1001300010B5054C237833B9044B13B10448AFF321
:1001400000800123237010BDD401002000000000B6
:100150001C3C000808B5034B1BB103490348AFF32F
:10016000008008BD00000000D80100201C3C0008F1
:10017000034613F8012B002AFBD1181A01387047E7
:1001800081F0004102E000BF83F0004330B54FEA48
:1001900041044FEA430594EA050F08BF90EA020FB5
:1001A0001FBF54EA000C55EA020C7FEA645C7FEA48
:1001B000655C00F0E2804FEA5454D4EB5555B8BF6B
:1001C0006D420CDD2C4480EA020281EA030382EADC
:1001D000000083EA010180EA020281EA0303362D6E
:1001E00088BF30BD11F0004F4FEA01314FF4801C41
:1001F0004CEA113102D0404261EB410113F0004F53
:100200004FEA03334CEA133302D0524263EB430309
:1002100094EA050F00F0A780A4F10104D5F1200EA7
:100220000DDB02FA0EFC22FA05F2801841F1000102
:1002300003FA0EF2801843FA05F359410EE0A5F1D6
:1002400020050EF1200E012A03FA0EFC28BF4CF007
:10025000020C43FA05F3C01851EBE37101F00045BD
:1002600007D54FF0000EDCF1000C7EEB00006EEBCA
:100270000101B1F5801F1BD3B1F5001F0CD3490854
:100280005FEA30004FEA3C0C04F101044FEA4452AB
:1002900012F5800F80F09A80BCF1004F08BF5FEA32
:1002A000500C50F1000041EB045141EA050130BD12
:1002B0005FEA4C0C404141EB010111F4801FA4F1B5
:1002C0000104E9D191F0000F04BF01460020B1FA0A
:1002D00081F308BF2033A3F10B03B3F120020CDA42
:1002E0000C3208DD02F1140CC2F10C0201FA0CF020
:1002F00021FA02F10CE002F11402D8BFC2F1200C85
:1003000001FA02F120FA0CFCDCBF41EA0C0190403A
:10031000E41AA2BF01EB0451294330BD6FEA040483
:100320001F3C1CDA0C340EDC04F11404C4F120026E
:1003300020FA04F001FA02F340EA030021FA04F380
:1003400045EA030130BDC4F10C04C4F1200220FAD7
:1003500002F001FA04F340EA0300294630BD21FA15
:1003600004F0294630BD94F0000F83F4801306BFDB
:1003700081F480110134013D4EE77FEA645C18BFCF
:100380007FEA655C29D094EA050F08BF90EA020F66
:1003900005D054EA000C04BF1946104630BD91EA5E
:1003A000030F1EBF0021002030BD5FEA545C05D161
:1003B0004000494128BF41F0004130BD14F58004A0
:1003C0003CBF01F5801130BD01F0004545F0FE4114
:1003D00041F470014FF0000030BD7FEA645C1ABF49
:1003E000194610467FEA655C1CBF0B46024650EA80
:1003F000013406BF52EA033591EA030F41F40021AC
:1004000030BD00BF90F0000F04BF0021704730B531
:100410004FF4806404F132044FF000054FF0000106
:1004200050E700BF90F0000F04BF0021704730B5C7
:100430004FF4806404F1320410F0004548BF40429C
:100440004FF000013EE700BF42004FEAE2014FEAF1
:1004500031014FEA02701FBF12F07F4393F07F4FCC
:1004600081F06051704732F07F4208BF704793F0CF
:100470007F4F04BF41F40021704730B54FF46074E2
:1004800001F0004521F000411CE700BF50EA0102E5
:1004900008BF704730B54FF000050AE050EA01028E
:1004A00008BF704730B511F0004502D5404261EBFE
:1004B00041014FF4806404F132045FEA915C3FF43F
:1004C000D8AE4FF003025FEADC0C18BF03325FEADC
:1004D000DC0C18BF033202EBDC02C2F1200300FA8D
:1004E00003FC20FA02F001FA03FE40EA0E0021FAB2
:1004F00002F11444BDE600BF70B54FF0FF0C4CF4A0
:10050000E06C1CEA11541DBF1CEA135594EA0C0F51
:1005100095EA0C0F00F0DEF82C4481EA030621EA8C
:100520004C5123EA4C5350EA013518BF52EA0335C7
:1005300041F4801143F4801338D0A0FB02CE4FF079
:100540000005E1FB02E506F00042E0FB03E54FF0A9
:100550000006E1FB03569CF0000F18BF4EF0010EA1
:10056000A4F1FF04B6F5007F64F5407404D25FEA9D
:100570004E0E6D4146EB060642EAC62141EA555150
:100580004FEAC52040EA5E504FEACE2EB4F1FD0C92
:1005900088BFBCF5E06F1ED8BEF1004F08BF5FEA10
:1005A000500E50F1000041EB045170BD06F00046C2
:1005B00046EA010140EA020081EA0301B4EB5C046F
:1005C000C2BFD4EB0C0541EA045170BD41F4801167
:1005D0004FF0000E013C00F3AB8014F1360FDEBF8C
:1005E000002001F0004170BDC4F10004203C35DA68
:1005F0000C341BDC04F11404C4F1200500FA05F3EB
:1006000020FA04F001FA05F240EA020001F000428B
:1006100021F0004110EBD37021FA04F642EB060101
:100620005EEA430E08BF20EAD37070BDC4F10C042B
:10063000C4F1200500FA04F320FA05F001FA04F2EF
:1006400040EA020001F0004110EBD37041F10001DB
:100650005EEA430E08BF20EAD37070BDC4F12005E6
:1006600000FA05F24EEA020E20FA04F301FA05F24E
:1006700043EA020321FA04F001F0004121FA04F2F6
:1006800020EA020000EBD3705EEA430E08BF20EAC6
:10069000D37070BD94F0000F0FD101F00046400000
:1006A00041EB010111F4801F08BF013CF7D041EA82
:1006B000060195F0000F18BF704703F00046520086
:1006C00043EB030313F4801F08BF013DF7D043EA57
:1006D0000603704794EA0C0F0CEA135518BF95EA0D
:1006E0000C0F0CD050EA410618BF52EA4306D1D194
:1006F00081EA030101F000414FF0000070BD50EAB3
:10070000410606BF1046194652EA430619D094EA3C
:100710000C0F02D150EA013613D195EA0C0F05D126
:1007200052EA03361CBF104619460AD181EA03017A
:1007300001F0004141F0FE4141F470014FF0000032
:1007400070BD41F0FE4141F4780170BD70B54FF0CD
:10075000FF0C4CF4E06C1CEA11541DBF1CEA13554D
:1007600094EA0C0F95EA0C0F00F0A7F8A4EB05042F
:1007700081EA030E52EA03354FEA013100F0888026
:100780004FEA03334FF0805545EA131343EA1263EF
:100790004FEA022245EA111545EA10654FEA0026A4
:1007A0000EF000419D4208BF964244F1FD0404F55D
:1007B000407402D25B084FEA3202B61A65EB0305B9
:1007C0005B084FEA32024FF480104FF4002CB6EB76
:1007D000020E75EB030E22BFB61A754640EA0C00F6
:1007E0005B084FEA3202B6EB020E75EB030E22BF36
:1007F000B61A754640EA5C005B084FEA3202B6EB77
:10080000020E75EB030E22BFB61A754640EA9C0035
:100810005B084FEA3202B6EB020E75EB030E22BF05
:10082000B61A754640EADC0055EA060E18D04FEAC3
:10083000051545EA16754FEA06164FEAC30343EA63
:1008400052734FEAC2025FEA1C1CC0D111F4801F30
:100850000BD141EA00014FF000004FF0004CB6E729
:1008600011F4801F04BF01430020B4F1FD0C88BFC8
:10087000BCF5E06F3FF6AFAEB5EB030C04BFB6EBD3
:10088000020C5FEA500C50F1000041EB045170BDC6
:100890000EF0004E4EEA113114EB5C04C2BFD4EBF3
:1008A0000C0541EA045170BD41F480114FF0000E77
:1008B000013C90E645EA060E8DE60CEA135594EAF3
:1008C0000C0F08BF95EA0C0F3FF43BAF94EA0C0FF6
:1008D0000AD150EA01347FF434AF95EA0C0F7FF46B
:1008E00025AF104619462CE795EA0C0F06D152EABF
:1008F00003353FF4FDAE1046194622E750EA4106A3
:1009000018BF52EA43067FF4C5AE50EA41047FF4B3
:100910000DAF52EA43057FF4EBAE12E74FF0FF3C18
:1009200006E000BF4FF0010C02E000BF4FF0010CE9
:100930004DF804CD4FEA410C7FEA6C5C4FEA430C62
:1009400018BF7FEA6C5C1BD001B050EA410C0CBFB1
:1009500052EA430C91EA030F02BF90EA020F002013
:10096000704710F1000F91EA030F58BF994208BF7A
:1009700090422CBFD8176FEAE37040F00100704737
:100980004FEA410C7FEA6C5C02D150EA013C07D18E
:100990004FEA430C7FEA6C5CD6D152EA033CD3D0D9
:1009A0005DF8040B704700BF8446104662468C46D3
:1009B0001946634600E000BF01B5FFF7B7FF002806
:1009C00048BF10F1000F01BD4DF808EDFFF7F4FF2F
:1009D0000CBF012000205DF808FB00BF4DF808EDBA
:1009E000FFF7EAFF34BF012000205DF808FB00BFDD
:1009F0004DF808EDFFF7E0FF94BF012000205DF8FF
:100A000008FB00BF4DF808EDFFF7CEFF94BF0120B3
:100A100000205DF808FB00BF4DF808EDFFF7C4FFAC
:100A200034BF012000205DF808FB00BF4FEA410CF5
:100A30007FEA6C5C02D150EA013C0AD14FEA430CD8
:100A40007FEA6C5C02D152EA033C02D14FF0000015
:100A500070474FF0010070474FEA410212F5001253
:100A600015D211D56FF47873B3EB625212D94FEAF5
:100A7000C12343F0004343EA505311F0004F23FADF
:100A800002F018BF404270474FF00000704750EA34
:100A9000013005D111F0004008BF6FF000407047F1
:100AA0004FF00000704700BF4FEA4102B2F1E0434F
:100AB00024BFB3F5001CDCF1FE5C0DD901F0004C45
:100AC0004FEAC0024CEA5070B2F1004F40EB830095
:100AD00008BF20F00100704711F0804F21D113F1C1
:100AE0003872BCBF01F00040704741F480114FEAFA
:100AF0005252C2F11802C2F1200C10FA0CF320FA83
:100B000002F018BF40F001004FEAC1234FEAD3239F
:100B100003FA0CFC40EA0C0023FA02F34FEA430309
:100B2000CCE77FEA625307D150EA01331EBF4FF092
:100B3000FE4040F44000704701F0004040F0FE40AD
:100B400040F40000704700BF4FF0FF0C1CEAD05289
:100B50001EBF1CEAD15392EA0C0F93EA0C0F6FD020
:100B60001A4480EA010C400218BF5FEA41211ED0FE
:100B70004FF0006343EA501043EA5111A0FB0131EA
:100B80000CF00040B1F5000F3EBF490041EAD371BF
:100B90005B0040EA010062F17F02FD2A1DD8B3F13B
:100BA000004F40EBC25008BF20F00100704790F0AA
:100BB000000F0CF0004C08BF49024CEA502040EAFC
:100BC00051207F3AC2BFD2F1FF0340EAC2507047C2
:100BD00040F400004FF00003013A5DDC12F1190F00
:100BE000DCBF00F000407047C2F10002410021FA72
:100BF00002F1C2F1200200FA02FC5FEA310040F18A
:100C0000000053EA4C0308BF20EADC70704792F002
:100C1000000F00F0004C02BF400010F4000F013A3A
:100C2000F9D040EA0C0093F0000F01F0004C02BF35
:100C3000490011F4000F013BF9D041EA0C018FE7A4
:100C40000CEAD15392EA0C0F18BF93EA0C0F0AD0AA
:100C500030F0004C18BF31F0004CD8D180EA0100D0
:100C600000F00040704790F0000F17BF90F0004F69
:100C7000084691F0000F91F0004F14D092EA0C0F4B
:100C800001D142020FD193EA0C0F03D14B0218BFDE
:100C9000084608D180EA010000F0004040F0FE4024
:100CA00040F40000704740F0FE4040F440007047C0
:100CB0004FF0FF0C1CEAD0521EBF1CEAD15392EA3F
:100CC0000C0F93EA0C0F69D0A2EB030280EA010C2F
:100CD00049024FEA402037D04FF0805343EA1111C8
:100CE00043EA10130CF000408B4238BF5B0042F126
:100CF0007D024FF4000C8B4224BF5B1A40EA0C00CB
:100D0000B3EB510F24BFA3EB510340EA5C00B3EBFC
:100D1000910F24BFA3EB910340EA9C00B3EBD10FEA
:100D200024BFA3EBD10340EADC001B0118BF5FEA3C
:100D30001C1CE0D1FD2A3FF650AF8B4240EBC25065
:100D400008BF20F0010070470CF0004C4CEA502026
:100D50007F32C2BFD2F1FF0340EAC250704740F475
:100D600000004FF00003013A37E792F0000F00F067
:100D7000004C02BF400010F4000F013AF9D040EAE5
:100D80000C0093F0000F01F0004C02BF490011F479
:100D9000000F013BF9D041EA0C0195E70CEAD15371
:100DA00092EA0C0F08D142027FF47DAF93EA0C0F58
:100DB0007FF470AF084676E793EA0C0F04D14B023C
:100DC0003FF44CAF08466EE730F0004C18BF31F0EE
:100DD000004CCAD130F000427FF45CAF31F00043E8
:100DE0007FF43CAF5FE700BF80B485B000AF7860B0
:100DF0003960464B9B69454A43F0040393617B6825
:100E0000434A934206D1414B9B69404A43F40073E5
:100E1000936109E07B683F4A934205D13B4B9B6954
:100E20003A4A43F4806393613B4B1B683A4A23F090
:100E3000FF0313607B689B6843F001027B689A6044
:100E40007B685A683B681B681A437B685A603B683A
:100E50009B79012B06D17B689B6843F002027B687B
:100E60009A6009E03B689B79002B05D17B689B6801
:100E700023F002027B689A603B68DB79002B06D185
:100E80007B689B6823F400627B689A6009E03B689A
:100E9000DB79012B05D17B689B6843F400627B689A
:100EA0009A603B681B7A012B0CD11C4B1B681B4AB8
:100EB00043F4802313607B685B6843F020027B6807
:100EC0005A6009E03B681B7A002B05D17B685B68A0
:100ED00023F020027B685A603B68DB68104A13608D
:100EE0000023FB6002E0FB680133FB60FB68B3F5A5
:100EF0007A7FF8DD7B689B6843F001027B689A602B
:100F000000BF1437BD4680BC704700BF00100240D0
:100F100000240140002801400008014000E100E0F9
:100F20000402002080B485B000AF78600B467B805F
:100F30000023FB817A887B685A637B689B6843F453
:100F400080027B689A6000BF7B681B6803F0020325
:100F5000002BF9D07B68DB6CFB81FB8918461437CA
:100F6000BD4680BC7047000080B500AF0A4B1B68CF
:100F7000002B02D0084B1B689847084B1B68074A98
:100F800023F002031360064B1B68054A23F002039B
:100F9000136000BF80BD00BF040200200024014098
:100FA0000028014080B500AF054B5B69044A43F05F
:100FB00001035361034B1B68984700BF80BD00BF0E
:100FC000000401400802002080B500AF054B5B69BA
:100FD000044A43F002035361034B5B68984700BF28
:100FE00080BD00BF000401400802002080B500AFB2
:100FF000054B5B69044A43F004035361034B9B6850
:10100000984700BF80BD00BF0004014008020020D7
:1010100080B500AF054B5B69044A43F00803536198
:10102000034BDB68984700BF80BD00BF0004014050
:101030000802002080B500AF054B5B69044A43F00D
:1010400010035361034B1B69984700BF80BD00BF6D
:10105000000401400802002080B500AF264B5B6908
:1010600003F02003002B08D0234B5B69224A43F096
:1010700020035361214B5B6998471F4B5B6903F069
:101080004003002B08D01C4B5B691B4A43F0400314
:1010900053611A4B9B699847174B5B6903F08003B8
:1010A000002B08D0144B5B69134A43F08003536153
:1010B000124BDB699847104B5B6903F48073002B7C
:1010C00008D00D4B5B690C4A43F4807353610B4BA2
:1010D0001B6A9847084B5B6903F40073002B08D028
:1010E000054B5B69044A43F400735361034B5B6A2D
:1010F000984700BF80BD00BF0004014008020020E7
:1011000080B500AF354B5B6903F48063002B08D0DA
:10111000324B5B69314A43F480635361304B9B6AC5
:1011200098472E4B5B6903F48063002B08D02B4B50
:101130005B692A4A43F480635361294B9B6A984751
:10114000264B5B6903F40063002B08D0234B5B69DB
:10115000224A43F400635361214BDB6A98471F4BDB
:101160005B6903F48053002B08D01C4B5B691B4A5E
:1011700043F4805353611A4B1B6B9847174B5B69C1
:1011800003F40053002B08D0144B5B69134A43F45B
:1011900000535361124B5B6B9847104B5B6903F430
:1011A0008043002B08D00D4B5B690C4A43F480430D
:1011B00053610B4B9B6B9847084B5B6903F40043EF
:1011C000002B08D0054B5B69044A43F4004353618C
:1011D000034BDB6B984700BF80BD00BF000401409C
:1011E0000802002080B483B000AF0346FB80FB8878
:1011F000802B42D0802B11DC082B36D0082B06DC4C
:10120000022B2ED0042B2ED0012B28D047E0202BF0
:101210002FD0402B2FD0102B29D040E0B3F5006FFA
:1012200033D0B3F5006F09DCB3F5007F29D0B3F5F7
:10123000806F28D0B3F5807F21D030E0B3F5005F18
:1012400027D0B3F5005F03DCB3F5805F1FD026E045
:10125000B3F5804F1FD0B3F5004F1ED01FE0002321
:101260001EE004231CE008231AE00C2318E01023DE
:1012700016E0142314E0182312E01C2310E00023CE
:101280000EE004230CE008230AE00C2308E01023FE
:1012900006E0142304E0182302E01C2300E00023EE
:1012A00018460C37BD4680BC704790B585B000AF7E
:1012B000786039600023BB600023FB733B681B88A8
:1012C000802B02D97B68043300E07B68BB603B68FD
:1012D0001B881846FFF786FF02460F239340DA4328
:1012E000BB681B681A40BB681A603B689B78042B7C
:1012F0000BD03B689B78052B07D03B689B78062B6F
:1013000003D03B689B78072B0ED13B689B78043B4E
:101310009B005AB23B68DB785BB203F00F035BB211
:1013200013435BB2FB7339E03B689B78012B03D01E
:101330003B689B78002B0CD13B689B789B005BB291
:1013400003F00F035AB297F90F3013435BB2FB73EC
:1013500024E03B689B78082B04D1FB7B43F004031B
:10136000FB731BE0FB7B43F00803FB733B689B783C
:10137000022B07D17B68DB683A6812881A437B68C6
:10138000DA600BE03B689B78032B07D17B68DB6856
:101390003A681288D2431A407B68DA60FC7B3B686B
:1013A0001B881846FFF71EFF034604FA03F2BB68CA
:1013B0001B681A43BB681A6000BF1437BD4690BD56
:1013C00080B485B000AF78600023FB600BE00023A1
:1013D000BB6002E0BB680133BB60BB68FE2BF9D980
:1013E000FB680133FB60FA687B689A42EFD300BF69
:1013F0001437BD4680BC704780B400AF0B4B5B68B0
:101400009B0803F00303012B06D0012B02D3022B10
:1014100004D005E0064B04E0064B02E0064B00E07A
:1014200000231846BD4680BC704700BF0010024034
:1014300000127A00006A18000024F40080B500AFA2
:10144000FFF7DAFF0146054B5B681B0903F00F034A
:10145000034AD35C21FA03F3184680BD0010024012
:10146000743C000880B500AFFFF7E8FF0146054B6C
:101470005B681B0A03F00703034AD35C21FA03F3FA
:10148000184680BD001002406C3C000880B500AFDB
:10149000FFF7D4FF0146054B5B68DB0A03F0070347
:1014A000034AD35C21FA03F3184680BD00100240C2
:1014B0006C3C000880B400AF4FF080431B694FF0D4
:1014C000804223F001031361074B00221A704FF092
:1014D00080431B684FF0804223F00103136000BF7C
:1014E000BD4680BC704700BF0000002080B400AF44
:1014F000074B1B69064A23F001031361054B1B8848
:1015000001339AB2034B1A8000BFBD4680BC7047BE
:10151000002C0140F401002080B400AF074B1B6990
:10152000064A23F001031361054B1B8801339AB26D
:10153000034B1A8000BFBD4680BC704700040040CA
:10154000F201002080B400AF074B1B69064A23F06C
:1015500001031361054B1B8801339AB2034B1A80B8
:1015600000BFBD4680BC704700080040F00100206D
:1015700080B582B000AF786039607B685D4A934285
:1015800009D15D4A3B6813605C4B9B695B4A43F43D
:10159000804393611AE07B68594A934209D1564AC5
:1015A0003B685360554BDB69544A43F40033D361C5
:1015B0000CE07B68534A934208D14F4A3B689360E2
:1015C0004E4BDB694D4A43F48023D3617B68DB6873
:1015D00043F400527B68DA607B68DB683A68127813
:1015E0001A437B68DA607B68DB683A68127A1A43D0
:1015F0007B68DA607B681B693A68527A1A437B68B9
:101600001A617B681B693A68927A1A437B681A618F
:101610007B685B693A68D27A1A437B685A617B6857
:10162000344A934205D1FFF731FF0246364B1A6028
:1016300004E0FFF717FF0246334B1A60324B1A687B
:101640003B685B681B01B2FBF3F319012E4B1A6870
:1016500013469B0013449A001A443B685B689B0046
:10166000B2FBF3F2284B18683B685B681B01B0FBC8
:10167000F3F3642000FB03F3D31A1B01234AA2FBFC
:1016800003235B0903F00F030B43214A1360204B34
:101690001A687B689A603B681B7B002B26D07B68AE
:1016A000DB683A68127B1A437B68DA607B68114A10
:1016B000934206D1174B1B68164A43F02003136070
:1016C00014E07B680E4A934206D1124B1B68114A04
:1016D00043F04003136009E07B680A4A934205D156
:1016E0000C4B1B680B4A43F08003136000BF0837A4
:1016F000BD4680BD0038014050020020001002406D
:1017000000440040004801404C0200201F85EB517E
:101710004802002004E100E080B489B000AFF86026
:10172000B96011461A460B46FB711346BB71BB6884
:10173000FB61FB68254A934203D1254B1B681B7A4A
:101740000AE0FB68234A934203D1214B5B681B7A72
:1017500002E01F4B9B681B7AFB75FB681B4A934298
:1017600003D11B4B1B685B7A0AE0FB68194A934262
:1017700003D1174B5B685B7A02E0154B9B685B7A81
:10178000BB75FB7D002B1CD10023BB6115E0FB6901
:101790001B787B75BB79002B06D100BFFB681B68EB
:1017A00003F08003002BF9D07A7DFB685A60FB6957
:1017B0000133FB61BB690133BB61FB79BA699A42B2
:1017C000E5DB00BF2437BD4680BC704700380140D0
:1017D000500200200044004080B584B000AF786023
:1017E0007B682B4A934218D14FF40073BB810623C8
:1017F000BB730123FB7307F10C0319462548FFF760
:1018000054FD4FF48063BB810823BB7307F10C03C5
:1018100019462048FFF749FD36E07B681E4A93428F
:1018200016D10423BB810623BB730123FB7307F18D
:101830000C0319461748FFF738FD0823BB8108231E
:10184000BB7307F10C0319461248FFF72EFD1BE08E
:101850007B68124A934217D14FF48063BB81062301
:10186000BB730123FB7307F10C0319460C48FFF708
:101870001CFD4FF40063BB810823BB7307F10C030D
:1018800019460748FFF711FD00BF1037BD4680BD60
:101890000038014000080140004400400048014079
:1018A000000C014080B500AF024B1B681B699847D4
:1018B00000BF80BD5002002080B500AF024B5B68C6
:1018C0001B69984700BF80BD5002002080B500AF63
:1018D000024B9B681B69984700BF80BD50020020E7
:1018E00080B400AF074B9B69064A43F00403936141
:1018F000044B9B69034A43F00103936100BFBD465B
:1019000080BC704700100240F0B5ABB002AFFFF7EB
:10191000E7FF554B07F178041D460FCD0FC42B6828
:10192000236007F1780319465048FFF721FE4F481E
:10193000FFF752FF07F1680300221A605A609A60AD
:10194000DA6007F1680319464948FFF74DFA0023AA
:10195000A7F89E300023A7F89C304FF00003C7F88B
:1019600098304FF00003C7F8943001214048FFF74A
:10197000D9FA0346A7F89C3000213D48FFF7D2FA78
:101980000346A7F89E30B7F89E301846FEF74AFD8A
:1019900033A3D3E90023FEF7AFFD03460C461846F8
:1019A00021464FF00002334BFEF7D0FE03460C46B3
:1019B00018462146FFF778F80346C7F890302E49BD
:1019C000D7F89000FFF7C0F80346C7F89830B7F88B
:1019D0009C301846FEF726FD21A3D3E90023FEF72D
:1019E0008BFD03460C46184621464FF00002214B62
:1019F000FEF7ACFE03460C4618462146FFF754F8A6
:101A00000346C7F88C301C49D7F88C00FFF79CF8C8
:101A10000346C7F89430D7F89800FEF715FD054641
:101A20000E46D7F89400FEF70FFD03460C46381D0E
:101A3000CDE900342A463346104900F003FD3B1D32
:101A40001846FEF795FB0346DAB2391D0023074816
:101A5000FFF762FE4FF49670FFF7B2FC85E700BF18
:101A60006666666666660A40583C000800380140B3
:101A7000002401400000B0400000C842383C00088B
:101A800080B586B000AF7860144A154BD31A7B61DD
:101A90007B693B61134B1B68002B02D1114B124A2F
:101AA0001A60104B1A687B6813443A699A4207D24D
:101AB00000F046F802460C2313604FF0FF3309E0B4
:101AC000084B1B68FB60074B1A687B681344054A88
:101AD0001360FB6818461837BD4680BD00500020D3
:101AE00000040000F8010020600200200D48854637
:101AF000AFF300800C480D490D4A002302E0D45892
:101B0000C4500433C4188C42F9D30A4A0A4C002347
:101B100001E013600432A242FBD300F017F8FFF794
:101B2000F3FEFEE70050002000000020D40100205A
:101B3000E83E0008D401002060020020FEE700001B
:101B4000014B1868704700BF0400002070B50025E5
:101B50000C4E0D4CA41BA410A54209D102F05EF856
:101B600000250A4E0A4CA41BA410A54205D170BD45
:101B700056F8253098470135EEE756F82530984756
:101B80000135F2E7E03E0008E03E0008E03E0008D4
:101B9000E43E000803460244934200D1704703F834
:101BA000011BF9E7002B2DE9F0471E46BBBF03F1EF
:101BB00000431E4600232D2388B0149FDDE9121A2E
:101BC00027F02007462F1446109D0B7004D0452F98
:101BD00000D10135022300E0032307AA049206AADC
:101BE000CDE902A2CDE900352246334600F0D8FC0B
:101BF000472F804602D1119BDB0726D5462F08EBE5
:101C0000050911D198F80030302B0AD100220023A9
:101C100020463146FEF7D8FE18B9C5F10105CAF8CD
:101C20000050DAF800309944002200232046314663
:101C3000FEF7CAFE38B93022079B4B4505D2591C26
:101C400007911A70F8E7CDF81C904046079B159A4B
:101C5000A3EB0803136008B0BDE8F087F7B50029CF
:101C6000B4BF2D232B230446B8BF4942092904F8E9
:101C7000022B437021DD0DF107031F460A2691FB5D
:101C8000F6F506FB1511092D01F1300103F8011CD1
:101C900003F1FF32294609DC3031023B02F8011C16
:101CA000BB42224604D3101A03B0F0BD1346E6E748
:101CB00013F8012B04F8012BF2E730231944837049
:101CC000021DC170EFE700002DE9F04F91B00C4606
:101CD0001A9F93461E46054601F016FA03681846F9
:101CE0000993FEF745FA00230E933B680A900733E9
:101CF00023F0070303F1080294F81880D4F800A039
:101D00003A60D3E90023C4E91223D4E9127929F017
:101D100000430B934FF0FF32A64B38460B99FEF76A
:101D200085FE68BB4FF0FF32A24B38460B99FEF799
:101D30005FFE28BB0022002338464946FEF74EFED0
:101D400010B12D2384F843309B4F9C4BB8F1470FC3
:101D500098BF1F4603234FF0000923612AF00403B4
:101D6000236000965B460FAA2146284600F0E2F960
:101D7000013040F090804FF0FF3011B0BDE8F08F9F
:101D80003A464B4638464946FEF750FE10B18C4F56
:101D90008C4BDBE763684AF48062591C0DA80EA9DE
:101DA00040D1062363604FF0000C0DF13303CDE901
:101DB000012363682260CDE9030800933A464B464D
:101DC000CDE9051C2846FFF7EDFE08F0DF03472BA1
:101DD000074609D10D9BD81C02DB6268934247DDA0
:101DE000A8F102085FFA88F8B8F1650F0D9924D8B8
:101DF0000139424604F150000D91FFF72FFF0E9A72
:101E000081461318012A236102DC2268D10701D51B
:101E1000013323619DF83330002BA2D02D2384F8A9
:101E200043309EE7B8F1670F00F06E81B8F1470FBD
:101E3000B9D1002BB7D10123B4E7B8F1660F19D19E
:101E4000002963680CDD216113B92268D20702D52D
:101E500001330B4423610D9B4FF00009A365D9E7C3
:101E600013B92268D00701D50233F3E70123F1E764
:101E70004FF06708DDE90D32934205DB22682361EC
:101E8000D107E8D50133E5E7002BCCBF0123C3F12F
:101E900002031344DEE723685A0507D423693A4650
:101EA00059462846B047013029D164E7B8F1650F9B
:101EB00040F2D780D4E9120100220023FEF784FD0E
:101EC00088B30123404A59462846B04701303FF4C1
:101ED00052AFDDE90D239A4202DB2368D8070ED505
:101EE000DDE9092359462846B04701303FF443AFA6
:101EF000002704F11A080E9B013BBB4209DC236852
:101F00009F0700F1FD80E0680F9B9842B8BF18461C
:101F100033E70123424659462846B04701303FF493
:101F20002AAF0137E7E70D9B002B2BDC0123264A64
:101F300059462846B04701303FF41DAF0D9B23B9E9
:101F40000E9B13B92368D907D9D5DDE90923594672
:101F50002846B04701303FF40EAF4FF0000804F1BF
:101F60001A090D9B5B42434501DC0E9B97E7012359
:101F70004A4659462846B04701303FF4FCAE08F1C6
:101F80000108EEE70E9AA36D9A42A8BF1A46002AEE
:101F9000904607DD134659463A462846B047013079
:101FA0003FF4E9AE04F11A034FF0000A28EAE8789A
:101FB0000B9315E0FFFFEF7F893C0008853C00088C
:101FC000913C00088D3C0008953C000801230B9AC9
:101FD00059462846B04701303FF4CDAE0AF1010A18
:101FE000D4F85890A9EB08035345EFDCDDE90D2345
:101FF0009A424F4414DB2368DA0711D40E9B0D99E3
:10200000A3EB0902A3EB01099145A8BF9146B9F1E1
:10201000000F0DDC002729EAE97904F11A0818E01D
:10202000DDE9092359462846B0470130E6D1A2E64A
:102030004B463A4659462846B0470130EAD19AE61F
:102040000123424659462846B04701303FF493AE3B
:102050000137DDE90D239B1AA3EB0903BB42EFDC3B
:102060004DE70E9A012A01DCDB0738D501233A46F9
:1020700059462846B04701303FF47DAEDDE90923DB
:1020800059462846B047013007F101073FF473AEC7
:10209000D4E912010E9B002203F1FF380023FEF762
:1020A00093FCC0B943463A4659462846B0470130EA
:1020B0000DD160E60123424659462846B04701301B
:1020C0003FF459AE01370E9B013BBB42F2DC4B465D
:1020D00004F15002E4E6002704F11A08F3E70123B3
:1020E000E1E70123424659462846B04701303FF414
:1020F00042AE0137E3680F9A9B1ABB42F1DC02E75C
:10210000002704F11908F5E7002B3FF494AE4FF0D7
:10211000000CCDE9051C0DF133012260CDE9030867
:10212000CDE9012100933A464B462846FFF73AFD98
:1021300007464FE62DE9F04791461F468A680B692E
:1021400006469342B8BF1346C9F8003091F84320C1
:102150000C46DDF8208012B10133C9F80030236845
:10216000990642BFD9F800300233C9F8003025681B
:1021700015F0060507D104F1190AE368D9F8002023
:102180009B1AAB4229DC94F843302268003318BF15
:10219000012392062ED404F1430239463046C0474B
:1021A000013021D02368E56803F00603042B18BF33
:1021B0000025D9F800204FF0000908BFAD1AA36828
:1021C000226908BF25EAE5759342C4BF9B1AED1842
:1021D0001A344D451AD1002008E0012352463946F1
:1021E0003046C047013003D14FF0FF30BDE8F087E3
:1021F0000135C2E73020E11881F843005A1C94F8F9
:1022000045102244023382F84310C4E701232246DA
:1022100039463046C0470130E6D009F10109D8E718
:102220002DE9F04301F1430C0C46097E85B06E297F
:102230001746064698460C9A00F0B38022D86329C8
:1022400036D00AD8002900F0B980582900F08380E0
:1022500004F1420584F8421032E0642901D0692972
:10226000F6D120681368050603F104012AD51B681E
:102270001160002B03DA2D225B4284F843206F4863
:102280000A2239E0732900F09D8008D86F2920D0F8
:102290007029DDD1236843F02003236003E0752912
:1022A00017D07829D4D17823654884F8453055E093
:1022B000136804F14205191D1B68116084F842304F
:1022C00001238CE01B6810F0400F116018BF1BB297
:1022D000CFE713682568181D1060280601D51B6814
:1022E00002E06806FBD51B886F2914BF0A2208226A
:1022F0005248002184F843106568002DA560C0F2A3
:102300009580216821F004012160002B3DD1002D32
:1023100040F08E806546082A0BD12368DB0708D57C
:10232000236962689A42DEBF302305F8013C05F15B
:10233000FF35ACEB05032361CDF800803B4603AAD3
:1023400021463046FFF7F6FE01304DD14FF0FF3009
:1023500005B0BDE8F083394884F84510136821685A
:102360001D1D1B6815600A060BD5CA0744BF41F046
:10237000200121601BB9226822F020022260102275
:10238000B7E74D0648BF9BB2EFE76546B3FBF2F1F6
:1023900002FB1133C35C05F8013D0B460029F5D162
:1023A000B9E713682568181D6169106028061B6865
:1023B00001D5196002E06A06FBD519800023654645
:1023C0002361B9E71368191D11601D686268002157
:1023D000284600F0AFFE08B1401B606063682361CF
:1023E000002384F84330A7E723692A46394630465C
:1023F000C0470130AAD023689B0713D4E068039B31
:102400009842B8BF1846A3E701234A4639463046EA
:10241000C04701309AD00135E368039A9B1AAB425A
:10242000F2DCEBE7002504F11909F5E7002BACD14C
:10243000037804F1420584F842306CE7973C0008C9
:10244000A83C00080EB46FF0004100B59CB01DAB75
:1024500002900690079104910848094953F8042B0B
:102460000591006802A9019301F068FA0022029B1D
:102470001A701CB05DF804EB03B070470400002034
:102480000802FFFF2DE9F74F03690C698046A3425C
:10249000C0F28480013C01F1140700F1140657F8E2
:1024A000245056F824000135B0FBF5F54FEA840CB2
:1024B00006EB0C0307EB0C0901939DB34FF0000AE8
:1024C0003846B646D34650F8042B93B205FB03A317
:1024D000120C4FEA134A05FB02A29BB2ABEB0303BB
:1024E000DEF800B04FEA124A1FFA8BFB5B441FFA7A
:1024F00082FBDEF800208145CBEB124202EB234247
:102500009BB243EA02434FEA224B4EF8043BDAD235
:1025100056F80C3033B9019B043B9E421A4631D326
:10252000C8F81040404601F033F8002826DB30465A
:102530004FF0000C013557F8041BD0F800E08BB2C7
:10254000ACEB03031FFA8EF213440A0CC2EB1E42DB
:1025500002EB23429BB243EA0243B9454FEA224CC5
:1025600040F8043BE7D256F8242006EB84032AB94E
:10257000043B9E421A460BD3C8F81040284603B0CD
:10258000BDE8F08F1268043B002AC9D1013CC4E7C2
:102590001268043B002AEFD1013CEAE70020EEE795
:1025A0002DE9F04F16461F46456A95B00446DDF802
:1025B0008480CDE902673DB9102000F0B3FD606270
:1025C000C0E901550560C560636A196851B15A6870
:1025D000012393404A608B60204600F0F8FD002202
:1025E000636A1A603B1EAFBF0023012223F0004341
:1025F0000393ACBFC8F80030C8F80020AE4BDDF83C
:102600000C8033EA08031BD142F20F73209A136047
:10261000029B23B9C8F31300002800F04585229BD4
:1026200053B9A64B21E0A64B06930833229A1360B8
:10263000069815B0BDE8F08FA04B06930333F5E77D
:10264000DDE902670022002330463946FEF7BCF977
:10265000824660B10123209A1360229B002B00F078
:102660002085984B229A1360013B0693E0E712AB5A
:10267000019313AB009332463B46204601F000F82D
:10268000C8F30A558346002D7DD0B046C7F3130327
:1026900043F07F5949F44019A5F2FF35CDF840A029
:1026A0000022894B40464946FDF76EFD7CA3D3E9E5
:1026B0000023FDF721FF7CA3D3E90023FDF766FD8E
:1026C000064628460F46FDF7ADFE79A3D3E9002361
:1026D000FDF712FF02460B4630463946FDF756FD20
:1026E00006460F46FEF7B8F9002282460023304620
:1026F0003946FEF773F948B15046FDF793FE32466E
:102700003B46FEF761F908B90AF1FF3ABAF1160F34
:102710005AD8DDE902236D4901EBCA01D1E9000174
:10272000FEF77AF9002851D000230AF1FF3A0D9301
:10273000129B5D1B6B1E079343BF0023C5F101096C
:1027400007934FF00009BAF1000F41DB079BCDF86A
:1027500030A053440793002308931E9B092B00F2DB
:102760008F80052BC4BF043B1E931E9BC8BF002552
:10277000A3F10203D8BF0125032B00F28D80DFE80F
:1027800003F07B7D2F6FDDE912531D4405F23240CB
:10279000202813DDC0F14000029B08FA00F805F282
:1027A000124023FA00F048EA0000FDF72BFE012357
:1027B0008046A1F1F879013D109371E7029BC0F1C9
:1027C000200003FA00F0F0E70123B0E70D90AFE737
:1027D000CAF1000308930023A9EB0A090C93BCE794
:1027E000012309931F9B002B74DD9846049300225C
:1027F000666A7260042202F11400984271686ED910
:10280000204600F0B0FC636A30601B68B8F10E0F20
:10281000069300F2ED80002D00F0EA80DDE902234E
:10282000BAF1000FCDE90E2377DD284A0AF00F0335
:102830004FEA2A1602EBC303F006D3E90023CDE9E1
:102840000A2368D5DDE90E01214B0325D3E90823CE
:10285000FDF77CFFCDE9020106F00F061C4F4FE0AB
:10286000012309931F9B534403F10108049343463A
:10287000012BB8BF0123BAE70023B2E70023F0E73A
:102880000125002309951E934FF0FF330022049386
:10289000984612231F92AAE701230993F4E700BF89
:1028A00061436F63A787D23FB3C8608B288AC63F56
:1028B000FB799F501344D33F0000F07FC23C0008D7
:1028C000B93C0008963C00080000F83FF03C0008C6
:1028D000C83C00080123049398461A46DAE7013100
:1028E0007160520087E7F10708D5DDE90A01D7E9F1
:1028F0000023FDF701FECDE90A0101357610083706
:10290000002EF0D1DDE90A23DDE90201FDF71EFF0B
:10291000CDE902011BE00225A0E700F0A480DDE97B
:102920000E01CAF10006A04B06F00F0203EBC20332
:10293000D3E90023FDF7E0FD02250023CDE90201E4
:102940009A4F3611002E40F08380002BE0D10D9B72
:10295000002B00F08A80DDE90223CDE90A23DDE9BE
:102960000A010022924BFEF739F800287DD0B8F119
:10297000000F7AD0049B002B36DDDDE90A0100222E
:102980008C4BFDF7B9FDCDE90201049E0AF1FF373A
:1029900001352846FDF746FDDDE90223FDF7ACFDD4
:1029A0000022854BFDF7F2FBA1F15075CDE90A013C
:1029B0000B95002E5CD1DDE9020100227F4BFDF773
:1029C000E3FB0A9A2B46CDE90201FEF725F8002821
:1029D00040F08182DDE902010A9A05F10043FDF72A
:1029E000FDFF002840F07582DDE90E23CDE90223CA
:1029F000139B002BC0F24B81BAF10E0F00F34781FD
:102A0000694B03EBCA03D3E90023CDE904231F9BE1
:102A1000002B80F2D780B8F1000F00F3D38040F094
:102A20005782DDE904010022644BFDF765FDDDE915
:102A30000223FDF7E7FF46464746002840F02D8277
:102A4000069B069A5D1C31230AF1010A137028E2E5
:102A5000F20705D5D7E90023FDF74EFD0123013527
:102A6000761008376EE7022571E75746464690E72D
:102A70004D4B03EBC60353E90201099B002B48D0E1
:102A800002460B4600204E49FDF760FEDDE90A23B1
:102A9000FDF77AFBCDE90A01069DDDE90201FDF7AC
:102AA000DBFF1190FDF7BEFC02460B46DDE902019B
:102AB000FDF76AFB119BCDE90201303305F8013BBC
:102AC000DDE90A23FDF78AFF002863D1DDE902234F
:102AD00000203749FDF758FBDDE90A23FDF77EFFAB
:102AE000002840F0B580069BEB1A9E427FF77CAF32
:102AF000DDE90A0100222F4BFDF7FEFC0022CDE9A3
:102B00000A01DDE902012B4BFDF7F6FCCDE90201DC
:102B1000C3E7DDE90A23FDF7EFFC069BCDE90A01D7
:102B20009D191E46DDE90201FDF796FF1190FDF7A4
:102B300079FC02460B46DDE90201FDF725FB119BFE
:102B4000CDE90201303306F8013BAE424FF00002FE
:102B500024D1DDE90A011A4BFDF718FB02460B46AA
:102B6000DDE90201FDF758FF002871D1DDE90A23F4
:102B700000201349FDF708FB02460B46DDE9020180
:102B8000FDF72CFF00283FF42FAF15F8013C6A1E1B
:102B9000302B01D0BA464AE01546F6E7054BFDF763
:102BA000ABFCCDE90201BDE7F03C0008C83C0008E1
:102BB0000000F03F0000244000001C4000001440D2
:102BC0000000E03F069DDDE90267DDE904233046B1
:102BD0003946FDF7BBFDFDF73FFF8146FDF722FCBF
:102BE000DDE90423FDF788FC02460B4630463946F2
:102BF000FDF7CAFA09F1300605F8016B069E024698
:102C0000AE1BB0450B4635D1FDF7C0FADDE9042314
:102C100006460F46FDF700FFC8B9DDE9042330463C
:102C20003946FDF7D1FE10B119F0010F0FD1594609
:102C3000204600F0CCFA0023209A2B700AF1010301
:102C40001360229B002B3FF4F3AC1D60F0E4574669
:102C500015F8012C6B1E392A06D1069A9A4207D123
:102C600030231370134601371A7801321A7091E736
:102C70001D46EDE70022994BFDF73EFC00220023A4
:102C800006460F46FDF7A0FE00289ED0CFE7099A22
:102C9000002A00F088801E9A012A6DDC109A002A12
:102CA00066D003F233434D46089E079A01211A4429
:102CB00020469944079200F02AFB0746002D0BDDC1
:102CC000079B002B08DDAB42A8BF2B46079AA9EB58
:102CD0000309ED1AD31A0793089BEBB1099B002B4C
:102CE00065D08EB139463246204600F0AFFB5A46D9
:102CF00001460746204600F013FB59460A9020463D
:102D000000F065FA0A9B9B46089B9A1B04D0594623
:102D1000204600F09BFB83460121204600F0F7FA95
:102D20000C9B0646002B00F0C6811A460146204641
:102D300000F08CFB1E9B0646012B3EDC029B002B09
:102D400037D1039BC3F31303002B34D1039B23F030
:102D500000431B0D1B052BB1079B09F10109013332
:102D60000793012308930C9B002B28D101202EE010
:102D7000129BC3F1360396E7089B08F1FF36B34276
:102D8000B7BF089B9E1BF21A0C9BBFBF08969B18EF
:102D90000C930026B8F1000FB9BFA9EB080500237A
:102DA0004D46434681E7089E4D46099F86E7089AAF
:102DB000ADE70023D6E7029BD4E7002308933369ED
:102DC00006EB8303186900F054FAC0F12000079B5A
:102DD000184410F01F0047D0C0F12003042B3BDD46
:102DE000079BC0F11C008144054403440793B9F1DB
:102DF000000F05DD59464A46204600F075FB834624
:102E0000079B002B05DD31461A46204600F06CFB7F
:102E100006460D9B53B33146584600F0B9FB0028D7
:102E200024DA002359460A22204600F0E7F9099BDC
:102E30000AF1FF3A8346002B00F044810023394613
:102E40000A22204600F0DAF9049B0746002B4DDCED
:102E50001E9B022B4ADD11E0C9D0079A1C331A448D
:102E600099441D441346C1E70346F6E7B8F1000F45
:102E700036DC1E9B022B33DDCDF81080049B63B93A
:102E800031460522204600F0B9F90146064658466B
:102E900000F07EFB00283FF7D3AD1F9B069D6FEA35
:102EA000030A4FF000093146204600F090F9002F48
:102EB0003FF4BDAEB9F1000F05D0B94503D0494686
:102EC000204600F084F93946204600F080F9AEE64D
:102ED00000263746E1E7BA463746B1E50000244010
:102EE000099BCDF81080002B00F0F380002D05DD4C
:102EF00039462A46204600F0F7FA0746089B002B81
:102F00004CD07968204600F02EF905463A6907F161
:102F10000C01023292000C3000F01AF9012229460D
:102F2000204600F0E1FAB9460746069B0793029B4C
:102F300003F00103089331465846FFF7A3FA4946C8
:102F4000054600F13008584600F022FB3A46029050
:102F50003146204600F036FBC368024603BB0146FB
:102F60000990584600F014FB0346099A1146204682
:102F7000099300F02CF9099BA3B91E9A92B9089AFB
:102F800082B9B8F1390F29D0029B002B01DD05F180
:102F90003108079B5D1C83F8008084E73846C2E750
:102FA0000123E3E7029A002A04DB23D11E9A0ABB1D
:102FB000089AFAB9002BECDD59460122204600F0B0
:102FC00093FA3146834600F0E3FA002803DCE0D1AF
:102FD00018F0010FDDD0B8F1390FD8D1079B079A4F
:102FE0005D1C3923137015F8013C6A1E392B4DD036
:102FF000013352E0079A002B02F1010506DDB8F11A
:10300000390FEBD008F10108079BC4E7069B049A2F
:10301000EB1A934205F8018C21D0594600230A226D
:10302000204600F0EBF8B94583464FF000034FF01F
:103030000A024946204605D100F0E0F881460746DD
:10304000079578E700F0DAF83946814600230A222E
:10305000204600F0D3F80746F2E74FF00009594642
:103060000122204600F040FA3146834600F090FAF3
:103070000028B8DC02D118F0010FB4D115F8013CDA
:103080006A1E302B7FF40FAF1546F7E7069B93427D
:1030900005D13123069A0AF1010A137003E7154698
:1030A000A1E7174BFFF7E1BA229B002B7FF4BBAAE5
:1030B000144BFFF7DABA1E9B012B7FF73FAE0C9B38
:1030C000089353E6049B002B03DC1E9B022B3FF767
:1030D000D5AE069D31465846FFF7D4F9069B00F160
:1030E000300805F8018B049AEB1A9A42B5DD59466F
:1030F00000230A22204600F081F88346EAE700BF59
:10310000953C0008B93C0008044B1B68186A044B46
:10311000002808BF1846F030704700BF04000020A8
:1031200068000020024B0146186800F053BB00BF46
:103130000400002010B5C9B202449042034601D1F8
:10314000002303E01C7801308C42F6D1184610BDF4
:1031500010B5431E0A44914200D110BD11F8014B35
:1031600003F8014FF7E770B5456A04460E463DB9CE
:103170001020FFF7D7FF6062C0E901550560C56008
:10318000656AEB6883B1636ADB6853F82600B8B9F7
:10319000012101FA06F56A1D9200204600F0BFFAEF
:1031A00060B1C0E901650EE021220421204600F053
:1031B000B6FA636AE860DB68002BE4D1002070BDDA
:1031C000026843F826200023C0E90333F7E770B50F
:1031D000446A06460D463CB91020FFF7A3FF706213
:1031E000C0E901440460C4603DB1736A6A68DB6889
:1031F00053F82210296043F8225070BD2DE9F041A8
:103200001F4606460C4600230D6901F1140CDCF83C
:103210000000013381B202FB0171000C0F0C02FBB4
:10322000007089B201EB00419D424FEA10474CF813
:10323000041BECDCD7B1A368AB4212DC61683046FA
:103240000131FFF790FF8046226904F10C01023240
:1032500092000C30FFF77CFF21463046FFF7B7FFA6
:10326000444604EB850301355F6125612046BDE8D6
:10327000F081020C12040346B2B90304102013F0CB
:103280007F4F04BF1B02083013F0704F04BF1B01B7
:10329000043013F0404F04BF9B000230002B06DBCC
:1032A0005B0003D5013070470020E8E7202070471D
:1032B0000368014613F007020BD0DA0723D49807FE
:1032C00049BF5B089B0801200B605CBF0B600220BC
:1032D000704798B2A8B910201B0C13F0FF0F04BF61
:1032E0001B0A08301A0704BF1B0904309A0704BFE1
:1032F0009B080230DA0702D45B0806D001300B606D
:1033000070471046E9E7002070472020704710B54D
:103310000C460121FFF727FF01224461026110BD25
:103320002DE9F74F14460A69236988469A42BEBFC1
:103330000B46A0461C46D8F81070D4F81090D8F868
:103340000830D8F8041007EB0906B342B8BF0131C2
:10335000FFF709FF00F114052B46002205EB860E4E
:10336000734516D304F1140208F1140102EB89032A
:1033700001EB87070093009B019293420CD8002E2B
:1033800003DD5EF8043D002B5DD0066103B0BDE8AF
:10339000F08F43F8042BE3E7B2F800B0BBF1000F65
:1033A00023D08946AC464FF0000859F8044BDCF8AE
:1033B00000A0A3B21FFA8AFA0BFB03A34FEA144A38
:1033C000DCF8004043444FEA14480BFB0A84E24611
:1033D00004EB13449BB243EA04434F454FEA1448BD
:1033E0004AF8043B2BD8CCF80480019B0432B3F894
:1033F00002A0BAF1000F20D08946A8464FF0000B7A
:103400002B68B9F800C0B8F802409BB20AFB0C4424
:10341000C4465C4443EA04434CF8043B59F8043B7B
:10342000B8F804B01B0C0AFB03B34F4503EB14437D
:103430004FEA134B05D8C8F8043004359BE7D4464F
:10344000B3E7E046DDE7013E99E700002DE9F843E8
:10345000154612F0030206460F4607D0214C013AEA
:10346000002354F82220FFF7C9FE0746AD1035D0DF
:10347000746A3CB91020FFF755FE7062C0E9014440
:103480000460C460D6F82480D8F808404CB940F2F3
:1034900071213046FFF73BFF00230446C8F80800BF
:1034A00003604FF00008EB070AD539462246304644
:1034B000FFF736FF814639463046FFF788FE4F4614
:1034C0006D100BD0206838B9224621463046FFF7F0
:1034D00027FF2060C0F800800446E4E73846BDE8D6
:1034E000F88300BFB83D00082DE9F0470C460746B9
:1034F000164623694FEA621A0AEB03094968A36872
:1035000009F10105AB4232DB3846FFF72CFE002300
:1035100080461A4600F1140153452BDB20692AEA44
:10352000EA7A04F1140316F01F0201EB8A0103EB9F
:10353000800C25D00020C2F1200E8A461E689640DD
:1035400030434AF8040B53F8040B9C4520FA0EF064
:1035500014D8486008B109F10205013D3846C8F8A1
:1035600010502146FFF733FE4046BDE8F087013199
:103570005B00C7E741F823200133CDE75146DCE784
:10358000043953F8042B9C4541F8042FF9D8E4E79B
:1035900003690A6930B59B1A0CD1920014301431BA
:1035A0008418114454F8045D51F8042D954203D059
:1035B00005D30123184630BDA042F3D3FAE74FF0FC
:1035C000FF33F7E72DE9F0470D4607461146284639
:1035D0001446FFF7DDFF061E08D131463846FFF7D7
:1035E000C2FD0123C0E90436BDE8F087A4BF23462D
:1035F0002C4638466168A6BF1D4600260126FFF707
:10360000B2FD4FF0000EC6602B69266904F114026A
:1036100005F1140902EB860709EB830800F1140198
:1036200052F804AB59F8045B1FFA8AF37344ACB246
:103630001B1B2C0CC4EB1A4404EB23449BB24FEA33
:10364000244EC84543EA0444944641F8044BE7D865
:10365000BC4504D351F8043D83B10661C4E75CF86E
:10366000044BA2B27244131403EB144392B242EA25
:1036700003424FEA234E41F8042BE9E7013EE9E714
:103680002DE9F3411C46DDE9086501219046FFF76D
:103690006AFDC4F31302C4F30A54074634BB019213
:1036A000B8F1000227D002A840F8082DFFF700FE6D
:1036B0000099F0B1019AC0F1200302FA03F30B4321
:1036C000C2407B610192019B002B14BF02210121AA
:1036D000BB613961C4B1A4F2334404443460C0F125
:1036E00035002860384602B0BDE8F08142F480120F
:1036F000D5E77961E7E701A8FFF7DAFD0121019B32
:1037000039617B612030E5E7A0F2324007EB8103AD
:1037100030601869FFF7ADFDC0EB4110E1E738B547
:1037200002FB01F4214600F055F8054618B1224687
:103730000021FEF72FFA284638BD000038B50546AF
:10374000002943D051F8043C0C1F002BB8BFE418EB
:1037500000F027FA1E4A1368104633B963601460FC
:103760002846BDE8384000F01DBAA3420BD92168B5
:103770006218934201BF1A685B6852182260636046
:103780000460EDE713465A680AB1A242FAD91968F3
:103790005818A0420BD12068014458188242196081
:1037A000DED110685268014419605A60D8E702D926
:1037B0000C232B60D4E7206821188A4201BF1168CE
:1037C00052680918216062605C60C9E738BD00BFBB
:1037D000FC01002070B5CD1C25F0030508350C2D2B
:1037E00038BF0C25002D064601DBA94203D90C2366
:1037F0003360002070BD00F0D4F9214A14682146DE
:1038000091B9204C23681BB9304600F08FF9206035
:103810002946304600F08AF9431C24D10C23304657
:10382000336000F0BFF9E4E70B685B1B18D40B2B87
:103830000FD90B60CC18CD50304600F0B3F904F12D
:103840000B00231D20F00700C31AD3D05A42E250C8
:10385000D0E74B688C4216BF636013600C46EBE701
:103860000C464968CCE7C41C24F00304A04205D0F0
:10387000211A304600F05AF90130CFD02560DBE73D
:10388000FC010020000200202DE9F0478E688246EE
:103890009E420C469046994637D88A8912F4906F1A
:1038A00031D00223256809696F1A656905EB450562
:1038B00095FBF3F509F101033B449D4238BF1D46DA
:1038C000530530D52946FFF785FF064650B90C232E
:1038D0004FF0FF30CAF80030A38943F04003A381C2
:1038E000BDE8F0873A462169FFF732FCA38923F44B
:1038F000906343F08003A38126613E4426604E46D8
:103900006561ED1BA5604E4500D94E4632464146E5
:10391000206800F02DF9A36800209B1BA36023689A
:103920001E442660DCE72A4600F03DF906460028E2
:10393000E2D121695046FFF701FFC8E72DE9F04FBA
:103940001D468B899DB01F0680460C4616460FD536
:103950000B696BB94021FFF73DFF2060206128B95A
:103960000C23C8F800304FF0FF30C8E040236361FB
:103970000023099320238DF8293030234FF0010BC9
:103980008DF82A30039537463D4615F8013B0BB1BB
:10399000252B3ED1B7EB060A0BD0534632462146C3
:1039A0004046FFF771FF013000F0A480099B5344AB
:1039B00009933B78002B00F09D8000234FF0FF32ED
:1039C000CDE90523049307938DF853301A932F46BE
:1039D000052217F8011B5048FFF7ACFB049BD0B938
:1039E000D90644BF20228DF853201A0744BF2B224A
:1039F0008DF853202A782A2A15D02F4600200A2530
:103A0000079A394611F8013B303B092B4DD9B8B123
:103A10000FE02F46B8E7404A3D46801A0BFA00F007
:103A200018430490D3E7039A111D12680391002AEA
:103A300001DB079204E0524243F002030792049331
:103A40003B782E2B0CD17B782A2B33D1039B02376A
:103A50001A1D1B680392002BB8BF4FF0FF3305936C
:103A60002E4D032239782846FFF764FB38B14023F6
:103A7000401B03FA00F0049B013703430493397899
:103A8000062227487E1C8DF82810FFF753FB0028DC
:103A900038D0244B13BB039B073323F007030833B1
:103AA0000393099B4B4409936DE705FB0232012008
:103AB0000F46A6E700230A25194601370593384625
:103AC00010F8012B303A092A03D9002BC8D00591F0
:103AD000C6E705FB012101230746F0E703AB00938E
:103AE0002246114B04A94046FEF7EEF8B0F1FF3F25
:103AF0008146D6D1A3895B063FF535AF09981DB045
:103B0000BDE8F08F03AB00932246074B04A9404663
:103B1000FEF786FBEAE700BFC43D0008CA3D000887
:103B2000CE3D0008C91C00088938000838B50023BC
:103B3000054C054608462360FDF7A2FF431C02D151
:103B4000236803B12B6038BD5C02002082B001B94C
:103B500001A942B14BB113780B601278101C18BF49
:103B6000012002B070471046FBE76FF00100F8E754
:103B7000884210B501EB020307D8421E99420AD0D1
:103B800011F8014B02F8014FF8E78342F5D981188B
:103B9000D21AD34200D110BD13F8014D01F8014DE6
:103BA000F7E770477047F8B5074614460E4621B947
:103BB000BDE8F8401146FFF70DBE22B9FFF7BEFD84
:103BC00025462846F8BD00F021F8A0420FD2214634
:103BD0003846FFF7FFFD05460028F2D03146224661
:103BE000FFF7B6FA31463846FFF7A8FDE9E7354654
:103BF000E7E749B1FF2A8BBF8A230A7003600120DF
:103C000088BF4FF0FF3070470846704751F8043CBA
:103C1000181F002BBCBF0B58C0187047F8B500BF69
:103C2000F8BC08BC9E467047F8B500BFF8BC08BC9D
:043C30009E467047F5
:103C380054656D70313A20252E32662043207C2051
:103C480054656D70323A20252E326620430D0A00E5
:103C58000C000000802500000000000000000000AB
:103C68000000000000000000010203040000000042
:103C780000000000010203040506070809494E4632
:103C880000696E66004E414E006E616E0030003075
:103C980031323334353637383941424344454600AA
:103CA80030313233343536373839616263646566AA
:103CB80000496E66696E697479004E614E000000B5
:103CC8000080E03779C34143176E05B5B5B8934610
:103CD800F5F93FE9034F384D321D30F94877825ADC
:103CE8003CBF737FDD4F1575000000000000F03FFA
:103CF80000000000000024400000000000005940BF
:103D08000000000000408F40000000000088C34011
:103D180000000000006AF8400000000080842E4186
:103D280000000000D01263410000000084D79741D2
:103D38000000000065CDCD41000000205FA00242D8
:103D4800000000E876483742000000A2941A6D424D
:103D5800000040E59C30A2420000901EC4BCD64240
:103D680000003426F56B0C430080E03779C34143EB
:103D780000A0D8855734764300C84E676DC1AB4361
:103D8800003D9160E458E143408CB5781DAF15447F
:103D980050EFE2D6E41A4B4492D54D06CFF080445A
:103DA800F64AE1C7022DB544B49DD9794378EA446F
:103DB80005000000190000007D000000232D302BB5
:103DC8002000686C4C006566674546470043005014
:103DD8004F534958002E000020202020202020206A
:103DE80020282828282820202020202020202020A3
:103DF80020202020202020208810101010101010C3
:103E0800101010101010101004040404040404040A
:103E1800040410101010101010414141414141019B
:103E2800010101010101010101010101010101017A
:103E38000101011010101010104242424242420289
:103E4800020202020202020202020202020202024A
:103E580002020210101010200000000000000000F4
:103E6800000000000000000000000000000000004A
:103E7800000000000000000000000000000000003A
:103E8800000000000000000000000000000000002A
:103E9800000000000000000000000000000000001A
:103EA800000000000000000000000000000000000A
:103EB80000000000000000000000000000000000FA
:103EC80000000000000000000000000000000000EA
:083ED8000000000000000000E2
:043EE0005501000880
:043EE40031010008A0
:103EE80001000000080000200000000000000000A1
:103EF80000000000000000000000000000000000BA
:103F080000000000000000000000000000000000A9
:103F18000000000000000000000000000000000099
:103F28000000000000000000000000000000000089
:103F38000000000000000000000000000000000079
:103F48000000000000000000430000000000000026
:103F58000000000000000000000000000000000059
:103F68000000000000000000430000000000000006
:103F78000000000000000000000000000000000039
:103F880000000000000000004300000000000000E6
:103F98000000000000000000000000000000000019
:103FA80000000000000000004300000000000000C6
:103FB80000000000000000000000000000000000F9
:103FC80000000000000000004300000000000000A6
:103FD80000000000000000000000000000000000D9
:103FE8000000000000000000430000000000000086
:103FF80000000000000000000000000000000000B9
:104008000000000000000000430000000000000065
:104018000000000000000000000000000000000098
:104028000000000000000000F33B00084D3B0008C2
:1040380000000000DF3D0008DD3D0008C93D000824
:10404800C93D0008C93D0008C93D0008C93D000830
:10405800C93D0008C93D0008C93D0008C93D000820
:10406800FFFFFFFFFFFFFFFFFFFFFFFFFFFF000056
:1040780001004153434949000000000000000000CE
:104088000000000000000000000000000000000028
:1040980000004153434949000000000000000000AF
:1040A8000000000000000000000000000000000008
:0440B8000000000004
:0400000508001AEDE8
:00000001FF
