:020000040800F2
:1000000000500020253700087537000875370008B4
:1000100075370008753700087537000800000000C4
:10002000000000000000000000000000753700081C
:1000300075370008000000007537000875370008A4
:1000400075370008753700087537000875370008E0
:100050007537000875370008B1290008D529000850
:10006000F92900081D2A0008412A000875370008F0
:1000700075370008753700087537000875370008B0
:1000800075370008753700087529000875370008AE
:10009000753700087537000875370008652A0008AD
:1000A00075370008F52E0008753700087537000809
:1000B000C12E0008212F00084D2F000875370008B9
:1000C0007537000875370008753700087537000860
:1000D000753700085D330008713300088533000868
:1000E0000D2B000875370008000000007537000868
:1000F0007537000875370008753700087537000830
:10010000753700087537000875370008753700081F
:10011000753700087537000875370008753700080F
:1001200075370008753700087537000875370008FF
:1001300010B5054C237833B9044B13B10448AFF321
:1001400000800123237010BDE401002000000000A6
:100150008479000808B5034B1BB103490348AFF38A
:10016000008008BD00000000E8010020847900083C
:1001700010F8012B11F8013B012A28BF9A42F7D051
:10018000D01A7047034613F8012B002AFBD1181A26
:100190000138704781F0004102E000BF83F0004366
:1001A00030B54FEA41044FEA430594EA050F08BF12
:1001B00090EA020F1FBF54EA000C55EA020C7FEAD6
:1001C000645C7FEA655C00F0E2804FEA5454D4EB53
:1001D0005555B8BF6D420CDD2C4480EA020281EA1D
:1001E000030382EA000083EA010180EA020281EA55
:1001F0000303362D88BF30BD11F0004F4FEA0131A7
:100200004FF4801C4CEA113102D0404261EB4101B5
:1002100013F0004F4FEA03334CEA133302D052423B
:1002200063EB430394EA050F00F0A780A4F10104F7
:10023000D5F1200E0DDB02FA0EFC22FA05F2801831
:1002400041F1000103FA0EF2801843FA05F3594117
:100250000EE0A5F120050EF1200E012A03FA0EFC96
:1002600028BF4CF0020C43FA05F3C01851EBE371C0
:1002700001F0004507D54FF0000EDCF1000C7EEBDD
:1002800000006EEB0101B1F5801F1BD3B1F5001F1B
:100290000CD349085FEA30004FEA3C0C04F101043A
:1002A0004FEA445212F5800F80F09A80BCF1004F63
:1002B00008BF5FEA500C50F1000041EB045141EAE5
:1002C000050130BD5FEA4C0C404141EB010111F4E6
:1002D000801FA4F10104E9D191F0000F04BF014691
:1002E0000020B1FA81F308BF2033A3F10B03B3F16F
:1002F00020020CDA0C3208DD02F1140CC2F10C02FF
:1003000001FA0CF021FA02F10CE002F11402D8BF5C
:10031000C2F1200C01FA02F120FA0CFCDCBF41EA28
:100320000C019040E41AA2BF01EB0451294330BDF7
:100330006FEA04041F3C1CDA0C340EDC04F11404D4
:10034000C4F1200220FA04F001FA02F340EA0300AB
:1003500021FA04F345EA030130BDC4F10C04C4F1F1
:10036000200220FA02F001FA04F340EA03002946D1
:1003700030BD21FA04F0294630BD94F0000F83F41B
:10038000801306BF81F480110134013D4EE77FEAFE
:10039000645C18BF7FEA655C29D094EA050F08BF4A
:1003A00090EA020F05D054EA000C04BF194610462B
:1003B00030BD91EA030F1EBF0021002030BD5FEA6F
:1003C000545C05D14000494128BF41F0004130BD97
:1003D00014F580043CBF01F5801130BD01F00045EB
:1003E00045F0FE4141F470014FF0000030BD7FEA5E
:1003F000645C1ABF194610467FEA655C1CBF0B4659
:10040000024650EA013406BF52EA033591EA030F6F
:1004100041F4002130BD00BF90F0000F04BF002167
:10042000704730B54FF4806404F132044FF000059A
:100430004FF0000150E700BF90F0000F04BF002113
:10044000704730B54FF4806404F1320410F0004579
:1004500048BF40424FF000013EE700BF42004FEA74
:10046000E2014FEA31014FEA02701FBF12F07F43F1
:1004700093F07F4F81F06051704732F07F4208BFA8
:10048000704793F07F4F04BF41F40021704730B5AF
:100490004FF4607401F0004521F000411CE700BFFB
:1004A00050EA010208BF704730B54FF000050AE07E
:1004B00050EA010208BF704730B511F0004502D57F
:1004C000404261EB41014FF4806404F132045FEA81
:1004D000915C3FF4D8AE4FF003025FEADC0C18BF2A
:1004E00003325FEADC0C18BF033202EBDC02C2F11C
:1004F000200300FA03FC20FA02F001FA03FE40EAAE
:100500000E0021FA02F11444BDE600BF70B54FF0B1
:10051000FF0C4CF4E06C1CEA11541DBF1CEA13558F
:1005200094EA0C0F95EA0C0F00F0DEF82C4481EAF7
:10053000030621EA4C5123EA4C5350EA013518BF17
:1005400052EA033541F4801143F4801338D0A0FB04
:1005500002CE4FF00005E1FB02E506F00042E0FBB1
:1005600003E54FF00006E1FB03569CF0000F18BFB7
:100570004EF0010EA4F1FF04B6F5007F64F540745F
:1005800004D25FEA4E0E6D4146EB060642EAC621F2
:1005900041EA55514FEAC52040EA5E504FEACE2E5F
:1005A000B4F1FD0C88BFBCF5E06F1ED8BEF1004F62
:1005B00008BF5FEA500E50F1000041EB045170BDDE
:1005C00006F0004646EA010140EA020081EA030122
:1005D000B4EB5C04C2BFD4EB0C0541EA045170BD1E
:1005E00041F480114FF0000E013C00F3AB8014F198
:1005F000360FDEBF002001F0004170BDC4F10004E1
:10060000203C35DA0C341BDC04F11404C4F1200561
:1006100000FA05F320FA04F001FA05F240EA0200BC
:1006200001F0004221F0004110EBD37021FA04F6F2
:1006300042EB06015EEA430E08BF20EAD37070BDAC
:10064000C4F10C04C4F1200500FA04F320FA05F00B
:1006500001FA04F240EA020001F0004110EBD3700D
:1006600041F100015EEA430E08BF20EAD37070BD7D
:10067000C4F1200500FA05F24EEA020E20FA04F356
:1006800001FA05F243EA020321FA04F001F0004105
:1006900021FA04F220EA020000EBD3705EEA430E76
:1006A00008BF20EAD37070BD94F0000F0FD101F0A5
:1006B0000046400041EB010111F4801F08BF013CDE
:1006C000F7D041EA060195F0000F18BF704703F01C
:1006D0000046520043EB030313F4801F08BF013DA3
:1006E000F7D043EA0603704794EA0C0F0CEA13555F
:1006F00018BF95EA0C0F0CD050EA410618BF52EA19
:100700004306D1D181EA030101F000414FF000001E
:1007100070BD50EA410606BF1046194652EA43062C
:1007200019D094EA0C0F02D150EA013613D195EAA0
:100730000C0F05D152EA03361CBF104619460AD1E8
:1007400081EA030101F0004141F0FE4141F47001F2
:100750004FF0000070BD41F0FE4141F4780170BDE2
:1007600070B54FF0FF0C4CF4E06C1CEA11541DBF47
:100770001CEA135594EA0C0F95EA0C0F00F0A7F849
:10078000A4EB050481EA030E52EA03354FEA013176
:1007900000F088804FEA03334FF0805545EA131389
:1007A00043EA12634FEA022245EA111545EA106551
:1007B0004FEA00260EF000419D4208BF964244F1E8
:1007C000FD0404F5407402D25B084FEA3202B61A07
:1007D00065EB03055B084FEA32024FF480104FF4DB
:1007E000002CB6EB020E75EB030E22BFB61A75464F
:1007F00040EA0C005B084FEA3202B6EB020E75EBE2
:10080000030E22BFB61A754640EA5C005B084FEA49
:100810003202B6EB020E75EB030E22BFB61A754616
:1008200040EA9C005B084FEA3202B6EB020E75EB21
:10083000030E22BFB61A754640EADC0055EA060EE2
:1008400018D04FEA051545EA16754FEA06164FEA25
:10085000C30343EA52734FEAC2025FEA1C1CC0D1D1
:1008600011F4801F0BD141EA00014FF000004FF05E
:10087000004CB6E711F4801F04BF01430020B4F11F
:10088000FD0C88BFBCF5E06F3FF6AFAEB5EB030CD7
:1008900004BFB6EB020C5FEA500C50F1000041EBD4
:1008A000045170BD0EF0004E4EEA113114EB5C04A1
:1008B000C2BFD4EB0C0541EA045170BD41F4801174
:1008C0004FF0000E013C90E645EA060E8DE60CEA7C
:1008D000135594EA0C0F08BF95EA0C0F3FF43BAF99
:1008E00094EA0C0F0AD150EA01347FF434AF95EA50
:1008F0000C0F7FF425AF104619462CE795EA0C0F34
:1009000006D152EA03353FF4FDAE1046194622E700
:1009100050EA410618BF52EA43067FF4C5AE50EADA
:1009200041047FF40DAF52EA43057FF4EBAE12E7CA
:100930004FF0FF3C06E000BF4FF0010C02E000BFAB
:100940004FF0010C4DF804CD4FEA410C7FEA6C5C8E
:100950004FEA430C18BF7FEA6C5C1BD001B050EA31
:10096000410C0CBF52EA430C91EA030F02BF90EA1C
:10097000020F0020704710F1000F91EA030F58BFDB
:10098000994208BF90422CBFD8176FEAE37040F03D
:10099000010070474FEA410C7FEA6C5C02D150EADB
:1009A000013C07D14FEA430C7FEA6C5CD6D152EA96
:1009B000033CD3D05DF8040B704700BF844610465B
:1009C00062468C461946634600E000BF01B5FFF75A
:1009D000B7FF002848BF10F1000F01BD4DF808ED2A
:1009E000FFF7F4FF0CBF012000205DF808FB00BFFB
:1009F0004DF808EDFFF7EAFF34BF012000205DF855
:100A000008FB00BF4DF808EDFFF7E0FF94BF0120A1
:100A100000205DF808FB00BF4DF808EDFFF7CEFFA2
:100A200094BF012000205DF808FB00BF4DF808EDE1
:100A3000FFF7C4FF34BF012000205DF808FB00BFB2
:100A40004FEA410C7FEA6C5C02D150EA013C0AD1CA
:100A50004FEA430C7FEA6C5C02D152EA033C02D1BC
:100A60004FF0000070474FF0010070474FEA41021D
:100A700012F5001215D211D56FF47873B3EB6252F0
:100A800012D94FEAC12343F0004343EA505311F017
:100A9000004F23FA02F018BF404270474FF00000A9
:100AA000704750EA013005D111F0004008BF6FF0E7
:100AB000004070474FF00000704700BF4A0011D25D
:100AC00012F5001211D20DD56FF47873B3EB6252A8
:100AD0000ED44FEAC12343F0004343EA505323FAB4
:100AE00002F070474FF00000704750EA013002D129
:100AF0004FF0FF3070474FF0000070474FEA41025F
:100B0000B2F1E04324BFB3F5001CDCF1FE5C0DD96B
:100B100001F0004C4FEAC0024CEA5070B2F1004FB5
:100B200040EB830008BF20F00100704711F0804FB8
:100B300021D113F13872BCBF01F00040704741F47D
:100B400080114FEA5252C2F11802C2F1200C10FA81
:100B50000CF320FA02F018BF40F001004FEAC12365
:100B60004FEAD32303FA0CFC40EA0C0023FA02F309
:100B70004FEA4303CCE77FEA625307D150EA0133DF
:100B80001EBF4FF0FE4040F44000704701F00040AF
:100B900040F0FE4040F40000704700BF80F000408D
:100BA00002E000BF81F0004142001FBF5FEA410345
:100BB00092EA030F7FEA226C7FEA236C6AD04FEA45
:100BC0001262D2EB1363C1BFD2184140484041408A
:100BD000B8BF5B42192B88BF704710F0004F40F43C
:100BE000000020F07F4018BF404211F0004F41F458
:100BF000000121F07F4118BF494292EA030F3FD024
:100C0000A2F1010241FA03FC10EB0C00C3F1200336
:100C100001FA03F100F0004302D5494260EB4000C5
:100C2000B0F5000F13D3B0F1807F06D340084FEA30
:100C3000310102F10102FE2A51D2B1F1004F40EB25
:100C4000C25008BF20F0010040EA0300704749008D
:100C500040EB000010F4000FA2F10102EDD1B0FA58
:100C600080FCACF1080CB2EB0C0200FA0CF0AABF4D
:100C700000EBC25052421843BCBFD04018437047EB
:100C800092F0000F81F4000106BF80F400000132F1
:100C9000013BB5E74FEA41037FEA226C18BF7FEAC8
:100CA000236C21D092EA030F04D092F0000F08BF0A
:100CB0000846704790EA010F1CBF0020704712F0F1
:100CC0007F4F04D1400028BF40F00040704712F130
:100CD00000723CBF00F50000704700F0004343F095
:100CE000FE4040F4000070477FEA226216BF0846CB
:100CF0007FEA23630146420206BF5FEA412390EA8E
:100D0000010F40F4800070474FF0000304E000BF83
:100D100010F0004348BF40425FEA000C08BF704734
:100D200043F0964301464FF000001CE050EA0102F8
:100D300008BF70474FF000030AE000BF50EA01020D
:100D400008BF704711F0004302D5404261EB4101FA
:100D50005FEA010C02BF84460146002043F0B6431F
:100D600008BFA3F18053A3F50003BCFA8CF2083A44
:100D7000A3EBC25310DB01FA02FC634400FA02FC4D
:100D8000C2F12002BCF1004F20FA02F243EB020054
:100D900008BF20F00100704702F1200201FA02FCB6
:100DA000C2F1200250EA4C0021FA02F243EB0200A9
:100DB00008BF20EADC7070474FF0FF0C1CEAD052ED
:100DC0001EBF1CEAD15392EA0C0F93EA0C0F6FD0AE
:100DD0001A4480EA010C400218BF5FEA41211ED08C
:100DE0004FF0006343EA501043EA5111A0FB013178
:100DF0000CF00040B1F5000F3EBF490041EAD3714D
:100E00005B0040EA010062F17F02FD2A1DD8B3F1C8
:100E1000004F40EBC25008BF20F00100704790F037
:100E2000000F0CF0004C08BF49024CEA502040EA89
:100E300051207F3AC2BFD2F1FF0340EAC25070474F
:100E400040F400004FF00003013A5DDC12F1190F8D
:100E5000DCBF00F000407047C2F10002410021FAFF
:100E600002F1C2F1200200FA02FC5FEA310040F117
:100E7000000053EA4C0308BF20EADC70704792F090
:100E8000000F00F0004C02BF400010F4000F013AC8
:100E9000F9D040EA0C0093F0000F01F0004C02BFC3
:100EA000490011F4000F013BF9D041EA0C018FE732
:100EB0000CEAD15392EA0C0F18BF93EA0C0F0AD038
:100EC00030F0004C18BF31F0004CD8D180EA01005E
:100ED00000F00040704790F0000F17BF90F0004FF7
:100EE000084691F0000F91F0004F14D092EA0C0FD9
:100EF00001D142020FD193EA0C0F03D14B0218BF6C
:100F0000084608D180EA010000F0004040F0FE40B1
:100F100040F40000704740F0FE4040F4400070474D
:100F20004FF0FF0C1CEAD0521EBF1CEAD15392EACC
:100F30000C0F93EA0C0F69D0A2EB030280EA010CBC
:100F400049024FEA402037D04FF0805343EA111155
:100F500043EA10130CF000408B4238BF5B0042F1B3
:100F60007D024FF4000C8B4224BF5B1A40EA0C0058
:100F7000B3EB510F24BFA3EB510340EA5C00B3EB8A
:100F8000910F24BFA3EB910340EA9C00B3EBD10F78
:100F900024BFA3EBD10340EADC001B0118BF5FEACA
:100FA0001C1CE0D1FD2A3FF650AF8B4240EBC250F3
:100FB00008BF20F0010070470CF0004C4CEA5020B4
:100FC0007F32C2BFD2F1FF0340EAC250704740F403
:100FD00000004FF00003013A37E792F0000F00F0F5
:100FE000004C02BF400010F4000F013AF9D040EA73
:100FF0000C0093F0000F01F0004C02BF490011F407
:10100000000F013BF9D041EA0C0195E70CEAD153FE
:1010100092EA0C0F08D142027FF47DAF93EA0C0FE5
:101020007FF470AF084676E793EA0C0F04D14B02C9
:101030003FF44CAF08466EE730F0004C18BF31F07B
:10104000004CCAD130F000427FF45CAF31F0004375
:101050007FF43CAF5FE700BF4FF0FF3C06E000BF0E
:101060004FF0010C02E000BF4FF0010C4DF804CD31
:101070004FEA40024FEA41037FEA226C18BF7FEA41
:10108000236C11D001B052EA530C18BF90EA010F43
:1010900058BFB2EB030088BFC81738BF6FEAE170D2
:1010A00018BF40F0010070477FEA226C02D15FEA6E
:1010B000402C05D17FEA236CE4D15FEA412CE1D0DA
:1010C0005DF8040B704700BF844608466146FFE7A1
:1010D0000FB5FFF7C9FF002848BF10F1000F0FBD83
:1010E0004DF808EDFFF7F4FF0CBF012000205DF87C
:1010F00008FB00BF4DF808EDFFF7EAFF34BF012001
:1011000000205DF808FB00BF4DF808EDFFF7E0FF99
:1011100094BF012000205DF808FB00BF4DF808EDEA
:10112000FFF7D2FF94BF012000205DF808FB00BF4D
:101130004DF808EDFFF7C8FF34BF012000205DF82F
:1011400008FB00BF90B58DB000AF0346FB80464B57
:10115000BB62464B7B62464B3B62464BFB61FB8866
:101160001846FFF7D5FD0346B96A1846FFF724FE77
:1011700003464FF08B411846FFF7D2FE0346BB6192
:10118000B969B86AFFF7CCFE03464FF07E511846A6
:10119000FFF708FD03461946786AFFF70DFE034680
:1011A0007B617869FFF75AF903460C4618462146D9
:1011B00006F0B2F903460C4618462146FFF79EFC9E
:1011C00003463B61386AFFF749F903460C46184667
:1011D000214606F0A1F903460C4618462146FFF7C2
:1011E0008DFC0346FB60F869FFF738F903460C46AF
:1011F0001846214606F090F903460C46184621464B
:10120000FFF77CFC0346BB60F9683869FFF7CAFC4E
:1012100003461C46F968B868FFF7C4FC0346194644
:101220002046FFF77DFE034611491846FFF7C4FD2F
:101230000346FB620E49F86AFFF77AFF0346002B6C
:1012400002D00B4BFB620AE04FF00001F86AFFF797
:1012500051FF0346002B02D04FF00003FB62FB6AF4
:1012600018463437BD4690BD3333534000401C46CA
:101270000000C8420050434880B584B000AF3B46F0
:1012800000221A605A609A60DA603B4602221946D0
:10129000054801F0A5FA00F009F8322001F096FDAA
:1012A00000BF1037BD4680BD0024014080B582B02C
:1012B00000AF0121074801F03BFB0346FB80FB88A0
:1012C0001846FFF73FFF38603B6818460837BD46B1
:1012D00080BD00BF0024014080B584B000AF3B4614
:1012E00000221A605A609A60DA603B460122194671
:1012F000054801F075FA00F00BF8322001F066FDA8
:1013000000BF1037BD4680BD002401400000000032
:1013100090B585B000AF0023FB810021164801F095
:1013200007FB0346FB81FB891846FFF785F810A3EE
:10133000D3E90023FFF7EAF803460C461846214696
:101340004FF000020D4BFFF70BFA03460C46184610
:101350002146FFF7D3FB0346BB600949B868FFF796
:101360002BFD03467B607B6818461437BD4690BD55
:101370006666666666660A40002401400000B0406A
:101380000000C84280B584B000AF78600B467B8017
:101390000423BB730223FB737B88BB8107F10C031F
:1013A0001946786801F087FC00BF1037BD4680BD44
:1013B00090B585B000AF786039607B68002B02D0B3
:1013C0003B68002B01D101235EE07A683B689A42BA
:1013D0000DD1002358E07B681B78002B01D100233E
:1013E00052E07B6801337B603B6801333B607B6884
:1013F0001B78FB7302F0EAF90246FB7B01331344CE
:101400001B7803F00303012B03D1FB7B03F12004C2
:1014100000E0FC7B3B681B78BB7302F0D7F9024607
:10142000BB7B013313441B7803F00303012B02D170
:10143000BB7B203300E0BB7B9C42CCD07B681B781D
:101440007B7302F0C3F902467B7B013313441B78A4
:1014500003F00303012B03D17B7B03F1200400E0A5
:101460007C7B3B681B783B7302F0B0F902463B7B08
:10147000013313441B7803F00303012B02D13B7BA0
:10148000203300E03B7BE31A18461437BD4690BD7D
:1014900080B584B000AF78607B681B6828209847CF
:1014A000F860FB68002B04D028220021F86802F0C5
:1014B000C8F9FB6818461037BD4680BD80B584B0BA
:1014C00000AF78600023FB603DE07B681B68FB6039
:1014D0007B68DB6803F48073002B08D17B689B6812
:1014E000002B04D07B689B681846FFF7E7FF7B68FA
:1014F000DB6803F48073002B0CD17B681B69002B25
:1015000008D0144B5B687A681269104698477B686C
:1015100000221A617B68DB6803F40073002B0CD196
:101520007B681B6A002B08D00A4B5B687A68126ADA
:10153000104698477B6800221A62064B5B68786801
:101540009847FB687B607B68002BBED100BF1037DB
:10155000BD4680BD0000002080B400AF2E23184699
:10156000BD4680BC7047000090B599B000AF786070
:1015700039604FF000034FF00004C7E91434002332
:10158000BB64FFF7E9FF034687F84F300023FB6594
:101590003B68002B03D03B681B68002B01D1002364
:1015A00004E10023FB659FE03B681A683B6899688B
:1015B000FB6D0B4413441B782B3B3A2B00F2A480A9
:1015C00001A252F823F000BFB51600080917000861
:1015D000B5160008D316000809170008B51600084C
:1015E000B5160008B5160008B5160008B5160008AF
:1015F000B5160008B5160008B5160008B51600089F
:10160000B51600080917000809170008091700088F
:10161000091700080917000809170008091700082A
:10162000091700080917000809170008091700081A
:10163000B51600080917000809170008091700085F
:1016400009170008091700080917000809170008FA
:1016500009170008091700080917000809170008EA
:1016600009170008091700080917000809170008DA
:1016700009170008091700080917000809170008CA
:1016800009170008091700080917000809170008BA
:1016900009170008091700080917000809170008AA
:1016A000091700080917000809170008091700089A
:1016B000B51600083B681A683B689968FB6D0B44D7
:1016C0001344197807F10802FB6D13440A461A7097
:1016D00007E007F10802FB6D134497F84F201A70DA
:1016E00000BFFB6D0133FB65FB6D3E2B0ED83B68E5
:1016F000002B0BD03B689A68FB6D1A443B685B6813
:101700009A42FFF451AF01E000BF00E000BF07F1D3
:101710000802FB6D134400221A7007F1480207F11A
:1017200008031146184603F0A7FCC7E91401BA6C78
:1017300007F108039A4201D1002337E07A68D7E91C
:101740001434C2E906341CA3D3E90023D7E91401F9
:10175000FFF762F90346002B04D07B686FF000426C
:101760005A6115E04FF00002154BD7E91401FFF75D
:1017700049F90346002B04D07B684FF000425A61C0
:1017800006E0D7E91401FFF771F902467B685A6158
:101790007B680822DA603B689B68BA6C114607F1E7
:1017A00008028A1A1A443B689A6001231846643773
:1017B000BD4690BDAFF300800000C0FFFFFFDF41DA
:1017C0000000E0C180B485B000AF78600023FB600A
:1017D0000023BB600023BB604CE07A68BB68134405
:1017E0001B782F2B0FD97A68BB6813441B78392BD1
:1017F00009D87A68BB6813441B781A46FB681344FF
:10180000303BFB602DE07A68BB6813441B78402BAB
:101810000FD97A68BB6813441B78462B09D87A68BD
:10182000BB6813441B781A46FB681344373BFB60C4
:1018300017E07A68BB6813441B78602B0FD97A686D
:10184000BB6813441B78662B09D87A68BB681344BD
:101850001B781A46FB681344573BFB6001E00023EA
:101860000CE0BB68022B02D8FB681B01FB60BB6865
:101870000133BB60BB68032BAFD9FB681846143734
:10188000BD4680BC7047000080B58AB000AFF860EC
:10189000B9607A6000237B620023FB61FB68BB6157
:1018A000002387F82330002387F82230002387F8AD
:1018B0002130002387F82030BA68BB69D31A052B82
:1018C00040F3B780BB6902331846FFF77BFFF8612E
:1018D000FB69B3F55C4F04D3FB69B3F5604FC0F00F
:1018E000AA80FB69B3F5584F37D3FB69B3F55C4F5A
:1018F00033D2BB6906337B6100233B610C2387F83D
:101900002130BA687B69D31A052B40F396807B6936
:101910001B785C2B40F093807B6901331B78752B1F
:1019200040F08D807B6902331846FFF74BFF38612A
:101930003B69B3F55C4FC0F082803B69B3F5604F03
:101940007DD2FB699A02424B13403A69C2F3090205
:10195000134303F580337B6204E0062387F82130CC
:10196000FB697B627B6A7F2B03D8012387F82330D6
:101970001FE07B6AB3F5006F06D2022387F823309D
:10198000C02387F8203014E07B6AB3F5803F06D28D
:10199000032387F82330E02387F8203009E07B6AAF
:1019A000B3F5881F4DD2042387F82330F02387F83E
:1019B000203097F82330013B87F8223015E07B6A0E
:1019C000DBB203F03F03DAB27B68196897F8223084
:1019D0000B4462F07F02D2B21A707B6A9B097B6271
:1019E00097F82230013B87F8223097F82230002BFD
:1019F000E5D197F82330012B09D97B6AD9B27B68EE
:101A00001B6897F820200A43D2B21A7007E07B6A5D
:101A1000DAB27B681B6802F07F02D2B21A707B6870
:101A20001A6897F823301A447B681A6097F82130B7
:101A300009E000BF06E000BF04E000BF02E000BF15
:101A400000E000BF002318462837BD4680BD00BF18
:101A500000FC0F0080B58AB000AF786039603B6849
:101A60001A683B689B68013313447B623B681A68C1
:101A70003B689B68013313443B620023FB600023F7
:101A8000FB613B681A683B689B6813441B78222BF8
:101A900040F06C8100233B610023BB6118E03B6A8E
:101AA0001B785C2B11D13B6A01331A463B681B68DB
:101AB000D31A1A463B685B689A4280F05981BB6929
:101AC0000133BB613B6A01333B623B6A01333B62DA
:101AD0003B6A3A6812689B1A1A463B685B689A42EE
:101AE00003D23B6A1B78222BD9D13B6A3A68126831
:101AF0009B1A1A463B685B689A4280F03B813B6ABE
:101B00001B78222B40F036813B6A3A6811683A68AC
:101B100092680A449B1A1A46BB69D31A3B613B6818
:101B20001B693A69013210469847F861FB69002B3E
:101B300000F02281FB69FB60FCE07B6A1B785C2B78
:101B400008D07A6A531C7B62FB68591CF9601278D2
:101B50001A70EFE00223FB753A6A7B6AD31A002BF6
:101B600040F30C817B6A01331B78223B532B00F23C
:101B7000078101A252F823F0051D0008811D00080D
:101B8000811D0008811D0008811D0008811D0008BD
:101B9000811D0008811D0008811D0008811D0008AD
:101BA000811D0008811D0008811D0008051D000819
:101BB000811D0008811D0008811D0008811D00088D
:101BC000811D0008811D0008811D0008811D00087D
:101BD000811D0008811D0008811D0008811D00086D
:101BE000811D0008811D0008811D0008811D00085D
:101BF000811D0008811D0008811D0008811D00084D
:101C0000811D0008811D0008811D0008811D00083C
:101C1000811D0008811D0008811D0008811D00082C
:101C2000811D0008811D0008811D0008811D00081C
:101C3000811D0008811D0008811D0008811D00080C
:101C4000811D0008811D0008811D0008811D0008FC
:101C5000811D0008811D0008811D0008811D0008EC
:101C6000051D0008811D0008811D0008811D000858
:101C7000811D0008811D0008C91C0008811D000885
:101C8000811D0008811D0008D51C0008811D000869
:101C9000811D0008811D0008811D0008811D0008AC
:101CA000811D0008811D0008E11C0008811D00083D
:101CB000811D0008811D0008ED1C0008811D000821
:101CC000F91C0008131D0008FB685A1CFA60082262
:101CD0001A702BE0FB685A1CFA600C221A7025E07F
:101CE000FB685A1CFA600A221A701FE0FB685A1C33
:101CF000FA600D221A7019E0FB685A1CFA6009227A
:101D00001A7013E0FB685A1CFA607A6A52781A70EB
:101D10000CE007F10C031A46396A786AFFF7B4FD44
:101D20000346FB75FB7D002B2CD000BFFB7D7A6A40
:101D300013447B627A6A3B6A9A42FFF4FEAEFB6808
:101D400000221A707B681022DA607B68FA691A61D7
:101D50003B6A3A6812689B1A1A463B689A603B686D
:101D60009B685A1C3B689A60012320E000BF0AE090
:101D700000BF08E000BF06E000BF04E000BF02E0D3
:101D800000BF00E000BFFB69002B05D03B685B692A
:101D9000F86998470023FB617B6A002B06D07B6AB9
:101DA0003A6812689B1A1A463B689A6000231846E4
:101DB0002837BD4680BD00BF80B483B000AF7860D7
:101DC0007B68002B03D07B681B68002B01D10023AC
:101DD0002CE07B68002B05D07B689A687B685B6889
:101DE0009A4206D37B6821E07B689B685A1C7B681B
:101DF0009A607B68002B0DD07B689A687B685B6873
:101E00009A4207D27B681A687B689B6813441B78E8
:101E1000202BE9D97B689A687B685B689A4204D179
:101E20007B689B685A1E7B689A607B6818460C37F3
:101E3000BD4680BC7047000080B582B000AF7860BE
:101E40007B68002B07D07B681B68002B03D07B6866
:101E50009B68002B01D000231CE07B68002B18D06E
:101E60007B689B681A1D7B685B689A4211D27B680D
:101E70001A687B689B68134403220849184602F0DD
:101E8000C6FA0346002B04D17B689B68DA1C7B688A
:101E90009A607B6818460837BD4680BDD87900082F
:101EA00080B586B000AFF860B9607A60FB68002B3F
:101EB00001D100230CE0F868FEF764F90346013312
:101EC0007B617B68BA687969F86800F005F80346B9
:101ED00018461837BD4680BD80B58EB000AFF8609B
:101EE000B9607A603B6007F1180300221A605A60FB
:101EF0009A60DA601A615A619A6100237B63404BF1
:101F000000221A603E4B00225A60FB68002B42D030
:101F1000BB68002B3FD0FB68BB61BB68FB61002343
:101F20003B62384A07F1280307CA83E807003548AF
:101F3000FFF7AEFA78637B6B002B2ED007F1180306
:101F40001846FFF779FF03461846FFF735FF0346AB
:101F50001946786B00F066F80346002B1FD03B68EB
:101F6000002B0ED007F118031846FFF725FF3A6A39
:101F7000FB699A420FD2BA693B6A13441B78002B63
:101F800009D17B68002B04D0BA693B6A1A447B688C
:101F90001A607B6B2FE000BF02E000BF00E000BFD3
:101FA0007B6B002B02D0786BFFF788FAFB68002B65
:101FB00020D0FB683B6100237B613A6AFB699A424F
:101FC00002D23B6A7B6105E0FB69002B02D0FB6912
:101FD000013B7B617B68002B04D03A697B691A4422
:101FE0007B681A60064B1A4607F1100393E803005A
:101FF00082E80300002318463837BD4680BD00BF85
:10200000000200200000002080B582B000AF7860A0
:10201000002200217868FFF743FF0346184608377F
:10202000BD4680BD80B582B000AF786039603B6846
:10203000002B03D03B681B68002B01D10023D2E0AA
:102040003B68002B1DD03B689B681A1D3B685B6892
:102050009A4216D83B681A683B689B68134404226E
:102060006349184602F0D3F90346002B09D17B6877
:102070000422DA603B689B681A1D3B689A60012362
:10208000B1E03B68002B1DD03B689B685A1D3B6844
:102090005B689A4216D83B681A683B689B68134491
:1020A00005225449184602F0B2F90346002B09D123
:1020B0007B680122DA603B689B685A1D3B689A6026
:1020C000012390E03B68002B20D03B689B681A1DE1
:1020D0003B685B689A4219D83B681A683B689B6802
:1020E000134404224449184602F091F90346002B98
:1020F0000CD17B680222DA607B6801225A613B685E
:102100009B681A1D3B689A6001236CE03B68002BBA
:1021100013D03B689A683B685B689A420DD23B6873
:102120001A683B689B6813441B78222B05D13968D9
:102130007868FFF78FFC034655E03B68002B23D0FF
:102140003B689A683B685B689A421DD23B681A6894
:102150003B689B6813441B782D2B0FD03B681A6893
:102160003B689B6813441B782F2B0DD93B681A687A
:102170003B689B6813441B78392B05D8396878680D
:10218000FFF7F2F903462EE03B68002B13D03B68C3
:102190009A683B685B689A420DD23B681A683B6854
:1021A0009B6813441B785B2B05D13968786800F075
:1021B00025F8034617E03B68002B13D03B689A686C
:1021C0003B685B689A420DD23B681A683B689B6823
:1021D00013441B787B2B05D13968786800F0D2F85E
:1021E000034600E0002318460837BD4680BD00BF07
:1021F000AC790008DC790008E479000880B586B085
:1022000000AF7860396000237B6100233B613B684D
:10221000DB68B3F57A7F01D30023AFE03B68DB686E
:102220005A1C3B68DA603B681A683B689B68134439
:102230001B785B2B40F094803B689B685A1C3B6882
:102240009A603868FFF7B8FD3B68002B0DD03B68FB
:102250009A683B685B689A4207D23B681A683B6899
:102260009B6813441B785D2B61D03B68002B05D025
:102270003B689A683B685B689A4205D33B689B68F9
:102280005A1E3B689A6072E03B689B685A1E3B6826
:102290009A603B6810331846FFF7FAF8F860FB685D
:1022A000002B5FD07B69002B04D1FB687B617B69CD
:1022B0003B6107E03B69FA681A60FB683A695A605B
:1022C000FB683B613B689B685A1C3B689A603868B6
:1022D000FFF772FD39683869FFF7A4FE0346002B4B
:1022E00042D03868FFF768FD3B68002B0DD03B6893
:1022F0009A683B685B689A4207D23B681A683B68F9
:102300009B6813441B782C2BC3D03B68002B2DD02B
:102310003B689A683B685B689A4227D23B681A68B8
:102320003B689B6813441B785D2B1FD100E000BF06
:102330003B68DB685A1E3B68DA607B69002B02D081
:102340007B693A695A607B682022DA607B687A6927
:102350009A603B689B685A1C3B689A6001230DE0B9
:1023600000BF04E000BF02E000BF00E000BF7B69E7
:10237000002B02D07869FFF7A1F800231846183720
:10238000BD4680BD80B586B000AF7860396000235F
:102390007B6100233B613B68DB68B3F57A7F01D347
:1023A0000023F0E03B68DB685A1C3B68DA603B685E
:1023B000002B00F0DA803B689A683B685B689A42C1
:1023C00080F0D3803B681A683B689B6813441B7895
:1023D0007B2B40F0CA803B689B685A1C3B689A6024
:1023E0003868FFF7E9FC3B68002B0ED03B689A6821
:1023F0003B685B689A4208D23B681A683B689B68F6
:1024000013441B787D2B00F097803B68002B05D090
:102410003B689A683B685B689A4205D33B689B6857
:102420005A1E3B689A60A7E03B689B685A1E3B684F
:102430009A603B6810331846FFF72AF8F860FB688B
:10244000002B00F094807B69002B04D1FB687B613A
:102450007B693B6107E03B69FA681A60FB683A698F
:102460005A60FB683B613B68002B7ED03B689B68F1
:102470005A1C3B685B689A4277D23B689B685A1C3F
:102480003B689A603868FFF797FC39683869FFF74E
:10249000E1FA0346002B6CD03868FFF78DFC3B69EE
:1024A0001A693B691A623B6900221A613B68002B7A
:1024B0005BD03B689A683B685B689A4255D23B6840
:1024C0001A683B689B6813441B783A2B4DD13B68D4
:1024D0009B685A1C3B689A603868FFF76DFC396846
:1024E0003869FFF79FFD0346002B44D03868FFF79B
:1024F00063FC3B68002B0DD03B689A683B685B68C7
:102500009A4207D23B681A683B689B6813441B7861
:102510002C2B8ED03B68002B27D03B689A683B68F9
:102520005B689A4221D23B681A683B689B681344F7
:102530001B787D2B19D100E000BF3B68DB685A1E79
:102540003B68DA607B69002B02D07B693A695A608C
:102550007B684022DA607B687A699A603B689B6896
:102560005A1C3B689A6001230DE000BF04E000BFE5
:1025700002E000BF00E000BF7B69002B02D0786959
:10258000FEF79CFF002318461837BD4680BD80B576
:1025900086B000AFF860B9607A6000237B61FB68A9
:1025A000002B02D0BB68002B01D1002333E0FB6875
:1025B0009B687B617B68002B17D002E07B691B68FE
:1025C0007B617B69002B1CD07B691B6A002B18D0B8
:1025D0007B691B6A1946B868FDF7CAFD0346002BE4
:1025E000ECD10EE07B691B687B617B69002B08D016
:1025F0007B691B6A1946B868FEF7DAFE0346002BB2
:10260000F0D17B69002B03D07B691B6A002B01D1C1
:10261000002300E07B6918461837BD4680BD80B5B1
:1026200082B000AF78603960012239687868FFF7BE
:10263000AEFF034618460837BD4680BD80B483B060
:1026400000AF78607B68002B01D1002307E07B6836
:10265000DB68DBB2042B0CBF01230023DBB218467E
:102660000C37BD4680BC704780B483B000AF786043
:102670007B68002B01D1002307E07B68DB68DBB2BD
:10268000102B0CBF01230023DBB218460C37BD46CC
:1026900080BC704780B588B000AF786039607868DA
:1026A000FFF7B2FCF861FB69002B03D1324801F05F
:1026B00023FE5EE03149F869FFF7B1FFB8613049A8
:1026C000F869FFF7ACFF78612E49F869FFF7A7FFBB
:1026D0003861B869FFF7C8FF0346002B2FD078692F
:1026E000FFF7C2FF0346002B29D03A68BB691B697C
:1026F0001946104601F083FE3B685A1D7B691B6931
:102700001946104601F07BFE3869FFF797FF034634
:10271000002B02D13B69002B07D13B680A331A4AD0
:102720001068186012791A7120E03B6803F10A0200
:102730003B691B691946104601F061FE16E0134B18
:10274000FB60F868FDF71EFD0346DAB20023F96866
:102750000F4800F0E5FC3B6800221A703B68053327
:1027600000221A703B680A3300221A70F869FEF7DB
:10277000A5FE2037BD4680BD147A0008307A0008D7
:10278000387A0008407A0008487A0008507A000831
:102790000038014080B584B000AF78607868FFF7FA
:1027A00033FCF860FB68002B0DD10B4BBB60B868A5
:1027B000FDF7E8FC0346DAB20023B968074800F0E9
:1027C000AFFC002303E0F868FEF778FE012318460B
:1027D0001037BD4680BD00BF707A00080038014048
:1027E00080B586B000AFF860B9601346FB804A4BF5
:1027F0009B69494A43F004039361FB68474A93424B
:1028000006D1454B9B69444A43F40073936109E048
:10281000FB68434A934205D13F4B9B693E4A43F4D0
:10282000806393610023BB74FB883B8207F1100334
:1028300019463C4800F03FFA3A4B1B68394A23F0EE
:10284000FF031360FB689B6843F00102FB689A601A
:10285000FB685A68BB681B681A43FB685A60BB6810
:102860009B79012B06D1FB689B6843F00202FB6851
:102870009A6009E0BB689B79002B05D1FB689B68D7
:1028800023F00202FB689A60BB68DB79002B06D15B
:10289000FB689B6823F40062FB689A6009E0BB68F0
:1028A000DB79012B05D1FB689B6843F40062FB6870
:1028B0009A60BB681B7A012B0CD11B4B1B681A4A10
:1028C00043F480231360FB685B6843F02002FB68DD
:1028D0005A6009E0BB681B7A002B05D1FB685B6876
:1028E00023F02002FB685A60BB68DB680F4A136064
:1028F00000237B6102E07B6901337B617B69B3F577
:102900007A7FF8DDFB689B6843F00102FB689A6000
:1029100000BF1837BD4680BD0010024000240140B2
:10292000002801400008014000E100E024020020EE
:1029300080B485B000AF78600B467B800023FB81BC
:102940007A887B685A637B689B6843F480027B6863
:102950009A6000BF7B681B6803F00203002BF9D06C
:102960007B68DB6CFB81FB8918461437BD4680BC55
:102970007047000080B500AF0A4B1B68002B02D0E7
:10298000084B1B689847084B1B68074A23F0020353
:102990001360064B1B68054A23F00203136000BF57
:1029A00080BD00BF24020020002401400028014017
:1029B00080B500AF054B5B69044A43F001035361E6
:1029C000034B1B68984700BF80BD00BF0004014057
:1029D0002802002080B500AF054B5B69044A43F034
:1029E00002035361034B5B68984700BF80BD00BF83
:1029F000000401402802002080B500AF054B5B6950
:102A0000044A43F004035361034B9B68984700BF9B
:102A100080BD00BF000401402802002080B500AF47
:102A2000054B5B69044A43F008035361034BDB68C1
:102A3000984700BF80BD00BF00040140280200206D
:102A400080B500AF054B5B69044A43F01003536146
:102A5000034B1B69984700BF80BD00BF00040140C5
:102A60002802002080B500AF264B5B6903F02003ED
:102A7000002B08D0234B5B69224A43F020035361AB
:102A8000214B5B6998471F4B5B6903F04003002BA8
:102A900008D01C4B5B691B4A43F0400353611A4B3F
:102AA0009B699847174B5B6903F08003002B08D0A4
:102AB000144B5B69134A43F080035361124BDB698B
:102AC0009847104B5B6903F48073002B08D00D4BC3
:102AD0005B690C4A43F4807353610B4B1B6A984744
:102AE000084B5B6903F40073002B08D0054B5B694E
:102AF000044A43F400735361034B5B6A984700BF79
:102B000080BD00BF000401402802002080B500AF56
:102B1000354B5B6903F48063002B08D0324B5B6953
:102B2000314A43F480635361304B9B6A98472E4B84
:102B30005B6903F48063002B08D02B4B5B692A4A46
:102B400043F480635361294B9B6A9847264B5B692A
:102B500003F40063002B08D0234B5B69224A43F443
:102B600000635361214BDB6A98471F4B5B6903F499
:102B70008053002B08D01C4B5B691B4A43F48053E5
:102B800053611A4B1B6B9847174B5B6903F4005357
:102B9000002B08D0144B5B69134A43F40053536174
:102BA000124B5B6B9847104B5B6903F48043002B1F
:102BB00008D00D4B5B690C4A43F4804353610B4BC7
:102BC0009B6B9847084B5B6903F40043002B08D0CC
:102BD000054B5B69044A43F400435361034BDB6BD1
:102BE000984700BF80BD00BF0004014028020020BC
:102BF00080B483B000AF0346FB80FB88802B42D0BB
:102C0000802B11DC082B36D0082B06DC022B2ED0B3
:102C1000042B2ED0012B28D047E0202B2FD0402B87
:102C20002FD0102B29D040E0B3F5006F33D0B3F58F
:102C3000006F09DCB3F5007F29D0B3F5806F28D091
:102C4000B3F5807F21D030E0B3F5005F27D0B3F536
:102C5000005F03DCB3F5805F1FD026E0B3F5804F43
:102C60001FD0B3F5004F1ED01FE000231EE0042349
:102C70001CE008231AE00C2318E0102316E01423AC
:102C800014E0182312E01C2310E000230EE00423BC
:102C90000CE008230AE00C2308E0102306E01423CC
:102CA00004E0182302E01C2300E0002318460C3740
:102CB000BD4680BC704790B585B000AF7860396084
:102CC0000023BB600023FB733B681B88802B02D969
:102CD0007B68043300E07B68BB603B681B88184658
:102CE000FFF786FF02460F239340DA43BB681B6859
:102CF0001A40BB681A603B689B78042B0BD03B687A
:102D00009B78052B07D03B689B78062B03D03B684C
:102D10009B78072B0ED13B689B78043B9B005AB2F3
:102D20003B68DB785BB203F00F035BB213435BB22B
:102D3000FB7339E03B689B78012B03D03B689B78A1
:102D4000002B0CD13B689B789B005BB203F00F0318
:102D50005AB297F90F3013435BB2FB7324E03B6820
:102D60009B78082B04D1FB7B43F00403FB731BE02F
:102D7000FB7B43F00803FB733B689B78022B07D176
:102D80007B68DB683A6812881A437B68DA600BE07C
:102D90003B689B78032B07D17B68DB683A68128815
:102DA000D2431A407B68DA60FC7B3B681B8818467C
:102DB000FFF71EFF034604FA03F2BB681B681A43C1
:102DC000BB681A6000BF1437BD4690BD80B485B0A3
:102DD00000AF78600023FB600BE00023BB6002E0E3
:102DE000BB680133BB60BB68FE2BF9D9FB680133BC
:102DF000FB60FA687B689A42EFD300BF1437BD4688
:102E000080BC704780B400AF0B4B5B689B0803F03D
:102E10000303012B06D0012B02D3022B04D005E0C3
:102E2000064B04E0064B02E0064B00E00023184688
:102E3000BD4680BC704700BF0010024000127A00FF
:102E4000006A18000024F40080B500AFFFF7DAFF35
:102E50000146054B5B681B0903F00F03034AD35C73
:102E600021FA03F3184680BD00100240087C0008D8
:102E700080B500AFFFF7E8FF0146054B5B681B0A12
:102E800003F00703034AD35C21FA03F3184680BD1D
:102E900000100240007C000880B500AFFFF7D4FFAF
:102EA0000146054B5B68DB0A03F00703034AD35C6A
:102EB00021FA03F3184680BD00100240007C000890
:102EC00080B400AF4FF080431B6903F00103002B77
:102ED0000AD04FF080431B694FF0804223F001037A
:102EE0001361034B00221A7000BFBD4680BC7047BF
:102EF0000C00002080B400AF074B1B69064A23F08A
:102F000001031361054B1B8801339AB2034B1A80EE
:102F100000BFBD4680BC7047002C01400C02002061
:102F200080B400AF074B1B69064A23F0010313610D
:102F3000054B1B8801339AB2034B1A8000BFBD4674
:102F400080BC7047000400400A02002080B400AF3B
:102F5000074B1B69064A23F001031361054B1B88CD
:102F600001339AB2034B1A8000BFBD4680BC704744
:102F7000000800400802002080B582B000AF7860F1
:102F800039607B685D4A934209D15D4A3B681360B2
:102F90005C4B9B695B4A43F4804393611AE07B6816
:102FA000594A934209D1564A3B685360554BDB69F5
:102FB000544A43F40033D3610CE07B68534A934294
:102FC00008D14F4A3B6893604E4BDB694D4A43F44E
:102FD0008023D3617B68DB6843F400527B68DA604E
:102FE0007B68DB683A6812781A437B68DA607B6832
:102FF000DB683A68127A1A437B68DA607B681B697F
:103000003A68527A1A437B681A617B681B693A688E
:10301000927A1A437B681A617B685B693A68D27A54
:103020001A437B685A617B68344A934205D1FFF7A3
:1030300033FF0246364B1A6004E0FFF719FF0246E1
:10304000334B1A60324B1A683B685B681B01B2FB5A
:10305000F3F319012E4B1A6813469B0013449A0090
:103060001A443B685B689B00B2FBF3F2284B18687C
:103070003B685B681B01B0FBF3F3642000FB03F3C8
:10308000D31A1B01234AA2FB03235B0903F00F039E
:103090000B43214A1360204B1A687B689A603B6897
:1030A0001B7B002B26D07B68DB683A68127B1A43B7
:1030B0007B68DA607B68114A934206D1174B1B6824
:1030C000164A43F02003136014E07B680E4A9342D3
:1030D00006D1124B1B68114A43F04003136009E00C
:1030E0007B680A4A934205D10C4B1B680B4A43F09C
:1030F0008003136000BF0837BD4680BD0038014023
:1031000070020020001002400044004000480140CE
:103110006C0200201F85EB516802002004E100E0F2
:1031200080B489B000AFF860B96011461A460B460A
:10313000FB711346BB71BB68FB61FB68254A934278
:1031400003D1254B1B681B7A0AE0FB68234A934294
:1031500003D1214B5B681B7A02E01F4B9B681B7AF3
:10316000FB75FB681B4A934203D11B4B1B685B7AC0
:103170000AE0FB68194A934203D1174B5B685B7AFC
:1031800002E0154B9B685B7ABB75FB7D002B1CD165
:103190000023BB6115E0FB691B787B75BB79002BB5
:1031A00006D100BFFB681B6803F08003002BF9D039
:1031B0007A7DFB685A60FB690133FB61BB690133AF
:1031C000BB61FB79BA699A42E5DB00BF2437BD4693
:1031D00080BC70470038014070020020004400406D
:1031E00080B487B000AFF860B9601346FB71FB791B
:1031F000002B06D100BFFB681B6803F02003002BE7
:10320000F9D0FB681F4A934203D11F4B1B681B7AFE
:103210000AE0FB681D4A934203D11B4B5B681B7A93
:1032200002E0194B9B681B7AFB75FB68154A9342B9
:1032300003D1154B1B685B7A0AE0FB68134A934283
:1032400003D1114B5B685B7A02E00F4B9B685B7AA2
:10325000BB75FB7D002B10D1BB7D002B05D1FB681E
:103260005B68DAB2BB681A7007E0FB685B68DBB2C8
:1032700003F07F03DAB2BB681A7000BF1C37BD468B
:1032800080BC7047003801407002002000440040BC
:1032900080B584B000AF78607B682B4A934218D128
:1032A0004FF40073BB810623BB730123FB7307F14B
:1032B0000C0319462548FFF7FEFC4FF48063BB81E1
:1032C0000823BB7307F10C0319462048FFF7F3FCF2
:1032D00036E07B681E4A934216D10423BB81062345
:1032E000BB730123FB7307F10C0319461748FFF763
:1032F000E2FC0823BB810823BB7307F10C031946CA
:103300001248FFF7D8FC1BE07B68124A934217D1A2
:103310004FF48063BB810623BB730123FB7307F16A
:103320000C0319460C48FFF7C6FC4FF40063BB8141
:103330000823BB7307F10C0319460748FFF7BBFCD2
:1033400000BF1037BD4680BD003801400008014075
:103350000044004000480140000C014080B500AF2F
:10336000024B1B681B69984700BF80BD700200209C
:1033700080B500AF024B5B681B69984700BF80BDFA
:103380007002002080B500AF024B9B681B69984714
:1033900000BF80BD7002002080B584B000AFFB1D6F
:1033A000012219464448FFF71BFFF91D00230122A3
:1033B0004148FFF7B5FEFB79082B02D0FB797F2B44
:1033C0000ED13E4B1B68002B71DD3C4B1B68013B53
:1033D0003A4A1360394B1B68394A0021D15466E0E0
:1033E000FB797D2B3ED1354B1B68302B22DC334BD8
:1033F0001B685A1C31490A60F979314AD1542F4B64
:103400001B682F4A0021D1542D48FFF7C3F903460A
:10341000002B08D12B4B00221A70322200212848A1
:1034200000F00FFA02E0274B01221A70234B002212
:103430001A603CE0214B00221A60224B00221A70D5
:10344000214BBB60B868FCF79DFE0346DAB200234F
:10345000B9681948FFF764FE32220021184800F0CD
:10346000F0F924E0154B1B68302B08DC134B1B686C
:103470005A1C12490A60F979114AD15417E00F4BCE
:1034800000221A600F4B00221A700F4BFB60F86885
:10349000FCF778FE0346DAB20023F9680648FFF726
:1034A0003FFE32220021064800F0CBF9FFE700BFC3
:1034B0001037BD4680BD00BF00380140100200201B
:1034C0007C06002014020020A47B000880B500AF19
:1034D000FFF762FF00BF80BD80B400AF074B9B6960
:1034E000064A43F004039361044B9B69034A43F08B
:1034F0000103936100BFBD4680BC704700100240CD
:10350000B0B59AB002AFFFF7E7FF304B07F14C04BC
:103510001D460FCD0FC42B68236007F14C031946DD
:103520002B48FFF729FD2A48FFF7B2FE042387F84E
:103530004A30022387F84B304FF40063A7F8483035
:1035400007F1480319462348FFF7B5FBFDF7C4FE12
:10355000FDF792FE4FF400611E48FDF713FF1E4B6E
:103560001B78002BFBD007F1380319461B48FFF7E7
:1035700091F807F13803591D07F13802381D07F19A
:1035800038030A3300930B46154900F0D5FE3B1D66
:103590001846FCF7F7FD0346DAB2391D00230C4844
:1035A000FFF7BEFD0C4B00221A70322200210B489F
:1035B00000F047F93B1D1846FCF7E4FD02463B1DB1
:1035C0000021184600F03DF9C9E700BFEC7B000878
:1035D0000038014000080140140200207C06002051
:1035E000C47B000880B586B000AFF860B9607A602F
:1035F00000237B610AE0AFF300800146BB685A1CE0
:10360000BA60CAB21A707B6901337B617A697B68E0
:103610009A42F0DB7B6818461837BD4680BD80B5FE
:1036200086B000AFF860B9607A6000237B6109E082
:10363000BB685A1CBA601B781846AFF300807B69E0
:1036400001337B617A697B689A42F1DB7B681846BB
:103650001837BD4680BD80B483B000AF78604FF0AE
:10366000FF3318460C37BD4680BC704780B483B02A
:1036700000AF786039603B684FF400525A60002315
:1036800018460C37BD4680BC704780B483B000AF8D
:103690007860012318460C37BD4680BC704780B463
:1036A00085B000AFF860B9607A600023184614371F
:1036B000BD4680BC7047000080B586B000AF786022
:1036C000144A154BD31A7B617B693B61134B1B6812
:1036D000002B02D1114B124A1A60104B1A687B68FA
:1036E00013443A699A4207D200F046F802460C2386
:1036F00013604FF0FF3309E0084B1B68FB60074B7A
:103700001A687B681344054A1360FB68184618372B
:10371000BD4680BD005000200008000018020020B7
:10372000B80600200D488546AFF300800C480D49CF
:103730000D4A002302E0D458C4500433C4188C420C
:10374000F9D30A4A0A4C002301E013600432A24272
:10375000FBD300F017F8FFF7D3FEFEE70050002080
:1037600000000020E40100203C7F0008E40100206C
:10377000B4060020FEE70000014B1868704700BF48
:103780001000002070B500250C4E0D4CA41BA41099
:10379000A54209D104F0F6F800250A4E0A4CA41BF4
:1037A000A410A54205D170BD56F8253098470135C3
:1037B000EEE756F8253098470135F2E7347F0008E8
:1037C000347F0008347F0008387F0008044B054A26
:1037D0001B681B6A002B08BF1346D3F8EC00704728
:1037E0001000002074000020024B0146186800F011
:1037F0007DB800BF10000020024B0146186800F0A1
:1038000029B800BF1000002082B001B901A942B15F
:103810004BB113780B601278101C18BF012002B056
:1038200070471046FBE76FF00100F8E710B5431E44
:103830000A44914200D110BD11F8014B03F8014F29
:10384000F7E703460244934200D1704703F8011B97
:10385000F9E7000038B50546002943D051F8043C8B
:103860000C1F002BB8BFE41803F099F81E4A136828
:10387000104633B9636014602846BDE8384003F051
:103880008FB8A3420BD921686218934201BF1A680E
:103890005B685218226063600460EDE713465A6863
:1038A0000AB1A242FAD919685818A0420BD120686F
:1038B0000144581882421960DED1106852680144F0
:1038C00019605A60D8E702D90C232B60D4E720682E
:1038D00021188A4201BF116852680918216062608C
:1038E0005C60C9E738BD00BF1C02002070B5CD1C6C
:1038F00025F0030508350C2D38BF0C25002D064694
:1039000001DBA94203D90C233360002070BD03F012
:1039100046F8214A1468214691B9204C23681BB906
:10392000304600F0F9FC20602946304600F0F4FCF7
:10393000431C24D10C233046336003F031F8E4E714
:103940000B685B1B18D40B2B0FD90B60CC18CD5018
:10395000304603F025F804F10B00231D20F007008A
:10396000C31AD3D05A42E250D0E74B688C4216BFFC
:10397000636013600C46EBE70C464968CCE7C41C57
:1039800024F00304A04205D0211A304600F0C4FC04
:103990000130CFD02560DBE71C0200202002002090
:1039A000002B2DE9F0471E46BBBF03F100431E4626
:1039B00000232D2388B0149FDDE9121A27F0200779
:1039C000462F1446109D0B7004D0452F00D10135B1
:1039D000022300E0032307AA049206AACDE902A26B
:1039E000CDE900352246334601F0D6FC472F80460C
:1039F00002D1119BDB0726D5462F08EB050911D113
:103A000098F80030302B0AD100220023204631469E
:103A1000FCF7E4FF18B9C5F10105CAF80050DAF85F
:103A2000003099440022002320463146FCF7D6FF9F
:103A300038B93022079B4B4505D2591C07911A70A3
:103A4000F8E7CDF81C904046079B159AA3EB0803B6
:103A5000136008B0BDE8F087F7B50029B4BF2D2387
:103A60002B230446B8BF4942092904F8022B4370AE
:103A700021DD0DF107031F460A2691FBF6F506FB33
:103A80001511092D01F1300103F8011C03F1FF327A
:103A9000294609DC3031023B02F8011CBB422246B8
:103AA00004D3101A03B0F0BD1346E6E713F8012B58
:103AB00004F8012BF2E7302319448370021DC17012
:103AC000EFE700002DE9F04F91B00C461A9F9346A6
:103AD0001E46054602F0B8FE036818460993FCF737
:103AE00051FB00230E933B680A90073323F0070332
:103AF00003F1080294F81880D4F800A03A60D3E9E2
:103B00000023C4E91223D4E9127929F000430B936E
:103B10004FF0FF32A64B38460B99FCF791FF68BB7C
:103B20004FF0FF32A24B38460B99FCF76BFF28BBD6
:103B30000022002338464946FCF75AFF10B12D23D6
:103B400084F843309B4F9C4BB8F1470F98BF1F46FA
:103B500003234FF0000923612AF004032360009639
:103B60005B460FAA2146284600F0E2F9013040F0FA
:103B700090804FF0FF3011B0BDE8F08F3A464B46D1
:103B800038464946FCF75CFF10B18C4F8C4BDBE7A5
:103B900063684AF48062591C0DA80EA940D106231F
:103BA00063604FF0000C0DF13303CDE9012363682E
:103BB0002260CDE9030800933A464B46CDE9051C47
:103BC0002846FFF7EDFE08F0DF03472B074609D133
:103BD0000D9BD81C02DB6268934247DDA8F1020806
:103BE0005FFA88F8B8F1650F0D9924D8013942467B
:103BF00004F150000D91FFF72FFF0E9A8146131824
:103C0000012A236102DC2268D10701D50133236137
:103C10009DF83330002BA2D02D2384F843309EE74B
:103C2000B8F1670F00F06E81B8F1470FB9D1002BE2
:103C3000B7D10123B4E7B8F1660F19D10029636841
:103C40000CDD216113B92268D20702D501330B4480
:103C500023610D9B4FF00009A365D9E713B92268D2
:103C6000D00701D50233F3E70123F1E74FF06708EE
:103C7000DDE90D32934205DB22682361D107E8D5E7
:103C80000133E5E7002BCCBF0123C3F1020313444A
:103C9000DEE723685A0507D423693A465946284681
:103CA000B047013029D164E7B8F1650F40F2D78001
:103CB000D4E9120100220023FCF790FE88B301230F
:103CC000404A59462846B04701303FF452AFDDE93B
:103CD0000D239A4202DB2368D8070ED5DDE90923BC
:103CE00059462846B04701303FF443AF002704F15E
:103CF0001A080E9B013BBB4209DC23689F0700F1B9
:103D0000FD80E0680F9B9842B8BF184633E7012357
:103D1000424659462846B04701303FF42AAF0137A2
:103D2000E7E70D9B002B2BDC0123264A594628464A
:103D3000B04701303FF41DAF0D9B23B90E9B13B963
:103D40002368D907D9D5DDE9092359462846B04764
:103D500001303FF40EAF4FF0000804F11A090D9B3B
:103D60005B42434501DC0E9B97E701234A465946D7
:103D70002846B04701303FF4FCAE08F10108EEE7F9
:103D80000E9AA36D9A42A8BF1A46002A904607DDF4
:103D9000134659463A462846B04701303FF4E9AE4B
:103DA00004F11A034FF0000A28EAE8780B9315E0B3
:103DB000FFFFEF7F2E7C00082A7C0008367C00087D
:103DC000327C00083A7C000801230B9A59462846A9
:103DD000B04701303FF4CDAE0AF1010AD4F8589053
:103DE000A9EB08035345EFDCDDE90D239A424F446C
:103DF00014DB2368DA0711D40E9B0D99A3EB09029B
:103E0000A3EB01099145A8BF9146B9F1000F0DDC64
:103E1000002729EAE97904F11A0818E0DDE9092305
:103E200059462846B0470130E6D1A2E64B463A460D
:103E300059462846B0470130EAD19AE60123424666
:103E400059462846B04701303FF493AE0137DDE9CB
:103E50000D239B1AA3EB0903BB42EFDC4DE70E9A3F
:103E6000012A01DCDB0738D501233A4659462846AA
:103E7000B04701303FF47DAEDDE9092359462846BD
:103E8000B047013007F101073FF473AED4E91201E6
:103E90000E9B002203F1FF380023FCF79FFDC0B901
:103EA00043463A4659462846B04701300DD160E6B0
:103EB0000123424659462846B04701303FF459AEE7
:103EC00001370E9B013BBB42F2DC4B4604F1500232
:103ED000E4E6002704F11A08F3E70123E1E70123F0
:103EE000424659462846B04701303FF442AE0137BA
:103EF000E3680F9A9B1ABB42F1DC02E7002704F14A
:103F00001908F5E7002B3FF494AE4FF0000CCDE913
:103F1000051C0DF133012260CDE90308CDE9012133
:103F200000933A464B462846FFF73AFD07464FE6D0
:103F30002DE9F04791461F468A680B690646934271
:103F4000B8BF1346C9F8003091F843200C46DDF89D
:103F5000208012B10133C9F800302368990642BFAE
:103F6000D9F800300233C9F80030256815F006058D
:103F700007D104F1190AE368D9F800209B1AAB4273
:103F800029DC94F843302268003318BF01239206DD
:103F90002ED404F1430239463046C047013021D0C7
:103FA0002368E56803F00603042B18BF0025D9F841
:103FB00000204FF0000908BFAD1AA368226908BFAE
:103FC00025EAE5759342C4BF9B1AED181A344D4596
:103FD0001AD1002008E00123524639463046C04736
:103FE000013003D14FF0FF30BDE8F0870135C2E763
:103FF0003020E11881F843005A1C94F845102244FF
:10400000023382F84310C4E7012322463946304682
:10401000C0470130E6D009F10109D8E72DE9F043A6
:1040200001F1430C0C46097E85B06E291746064601
:1040300098460C9A00F0B38022D8632936D00AD86B
:10404000002900F0B980582900F0838004F142056E
:1040500084F8421032E0642901D06929F6D1206841
:104060001368050603F104012AD51B681160002BB3
:1040700003DA2D225B4284F843206F480A2239E09C
:10408000732900F09D8008D86F2920D07029DDD1D8
:10409000236843F02003236003E0752917D07829B3
:1040A000D4D17823654884F8453055E0136804F18D
:1040B0004205191D1B68116084F8423001238CE011
:1040C0001B6810F0400F116018BF1BB2CFE71368D8
:1040D0002568181D1060280601D51B6802E06806D7
:1040E000FBD51B886F2914BF0A22082252480021E1
:1040F00084F843106568002DA560C0F295802168A2
:1041000021F004012160002B3DD1002D40F08E8074
:104110006546082A0BD12368DB0708D52369626846
:104120009A42DEBF302305F8013C05F1FF35ACEBC8
:1041300005032361CDF800803B4603AA21463046A3
:10414000FFF7F6FE01304DD14FF0FF3005B0BDE86E
:10415000F083394884F84510136821681D1D1B68D9
:1041600015600A060BD5CA0744BF41F02001216043
:104170001BB9226822F0200222601022B7E74D0608
:1041800048BF9BB2EFE76546B3FBF2F102FB113388
:10419000C35C05F8013D0B460029F5D1B9E713686A
:1041A0002568181D6169106028061B6801D5196013
:1041B00002E06A06FBD51980002365462361B9E752
:1041C0001368191D11601D6862680021284602F0FD
:1041D000BFFB08B1401B606063682361002384F863
:1041E0004330A7E723692A4639463046C0470130A5
:1041F000AAD023689B0713D4E068039B9842B8BFFA
:104200001846A3E701234A4639463046C0470130E5
:104210009AD00135E368039A9B1AAB42F2DCEBE7D4
:10422000002504F11909F5E7002BACD1037804F15E
:10423000420584F842306CE73C7C00084D7C000865
:1042400070B50E46054618B183690BB901F048FFF9
:10425000AB69AC6813B9284601F042FF234B9C427E
:1042600017D16C68A3891B071DD52369DBB1013EFB
:10427000A36816F8011F013BA360E9B9002B2EDAF1
:1042800022460A21284600F009FF013011D00A20F9
:1042900011E0174B9C4201D1AC68E3E7154B9C42FF
:1042A00008BFEC68DEE72146284600F069FF0028D9
:1042B000DDD04FF0FF3070BD002B04DAA2699A42C6
:1042C00006DC0A2904D023685A1C22601970CFE743
:1042D0002246284600F0E2FE0130C9D1E9E70A2073
:1042E00023685A1C22601870E5E700BFE07D0008D3
:1042F000007E0008C07D0008024B01461868FFF7E9
:104300009FBF00BF10000020024B0A4601461868FC
:1043100002F04EBF1000002038B50023054C0546C2
:1043200008462360FFF7C8F9431C02D1236803B194
:104330002B6038BDB00600200EB46FF0004100B510
:104340009CB01DAB02900690079104910848094962
:1043500053F8042B0591006802A9019302F0A8FF0D
:104360000022029B1A701CB05DF804EB03B070478A
:10437000100000200802FFFF10B50C46B1F90E1026
:1043800003F08EF80028ABBF636DA3891B1823F4DC
:104390008053ACBF6365A38110BD2DE9F0411F467A
:1043A0008B890546DB050C46164605D502230022FF
:1043B000B1F90E1002F056FAA389324623F4805365
:1043C000A381B4F90E103B462846BDE8F04100F049
:1043D000C5BE10B50C46B1F90E1002F043FA431CED
:1043E000A38915BF606523F4805343F48053A381F0
:1043F00018BFA38110BDB1F90E1000F02FBF034606
:1044000011F8012B03F8012B002AF9D1704710B5E0
:104410006AB10139841810F8013B11F8012F934259
:1044200003D1A04201D0002BF5D1981A10BD10463F
:10443000FCE72DE9F0410F46904602F07DFD044671
:104440000D46B8F1000F11D0C7F30A53C3F16B0347
:10445000002B0BDD00241B0503F17F5505F54015EE
:1044600022462B46FCF752F804460D4620462946C4
:10447000BDE8F081000000002DE9F04F1F46002349
:10448000A1B0834638460E4617921C9302F0DAF923
:1044900080460068FBF776FE4FF0000904464FF0B7
:1044A000000A1B961B9B1A780D2A32D8092A36D28D
:1044B000002A3ED000230D931B9D2B78302B40F01B
:1044C000AC806B78582B01D0782B67D10D9B02976D
:1044D00001931CAB0093894A1DAB1BA9584601F000
:1044E000D9FE10F00704064605D0062C2BD1002378
:1044F00001351B950D93179B002B40F0A6850D9B56
:10450000E3B14A460AF100431046194621B0BDE81E
:10451000F08F2B2A15D02D2A04D0202ACAD101339E
:104520001B93BFE701220D925A1C1B925B78002B54
:10453000C2D1179B1B96002B40F085854A465346F7
:10454000E2E70022EFE71C9A3AB135211EA802F0FB
:10455000E6FD1C99584602F058FA013C042C06D896
:10456000DFE804F00A0314170A00DDE91E9A310798
:10457000C1D54AF0004ABEE71D9ADDE91E9302F25A
:10458000334223F4801343EA025AF0E7DFF870A1C4
:10459000EDE76FF0004A4FF0FF39E8E71B9B5A1C2C
:1045A0001B925B78302BF9D0002BA4D0012300257F
:1045B0000A2207931B9B0695089304951B9807787E
:1045C000A7F13003D9B2092929D92246D8F8001019
:1045D000FFF71DFF002831D000203B460246049C17
:1045E0000590652B01D0452B14D124B910B9079B38
:1045F000002B9ED000241B9E731C1B9373782B2BC7
:1046000078D02D2B70D04FF0000CA3F13007092F7C
:104610007CD91B964FF0000E9AE00023C7E704995F
:1046200001300829D7BF069902FB053502FB01338B
:104630000693049B1B9001330493BFE71B9B1A193D
:104640001B92049A1B5D002A37D00246049CA3F1FA
:104650003001092913D901210591C2E71B9B0130C3
:104660005A1C1B925B78302BF8D0A3F13102082A38
:1046700000F2F0841B9A0892024600200446B3F12F
:10468000300E00F1010112D00A440A27214600EB46
:10469000040C8C4513D12118082904F101040444A9
:1046A00019DC0A21069B01FB03E3069300211B9BF7
:1046B000581C1B905B780846C9E70498D3E7082983
:1046C00001F1010103DC069B7B430693E1E710291E
:1046D000D8BF7D43DDE7102CDCBF0A2101FB05E5D7
:1046E000E4E70123059381E74FF0010CB31C1B9312
:1046F000B3788AE74FF0000CF8E700BF607C000851
:104700000000F07F1B9B5F1C1B975B78302BF9D060
:10471000A3F13107082F3FF67DAFA3F1300E1B9BAD
:1047200009931B9B5F1C1B975B78A3F13008B8F1C2
:10473000090F37D909997F1A082F44F61F6737DC0C
:10474000BE45A8BFBE46BCF1000F01D0CEF1000EA1
:10475000002C51D100287FF4CEAE079A002A7FF4B6
:10476000CAAE059A002A7FF4E4AE4E2B27D021DC96
:10477000492B7FF4DEAEA4491BA801F0BFFF00283F
:104780003FF4D7AE1B9BA149013B1BA81B9301F033
:10479000B5FF10B91B9B01331B93DFF884A24FF0C8
:1047A0000009A8E60A2101FB0E3EAEF1300EB8E783
:1047B000BE46C8E7692BDED06E2B7FF4BAAE9449B3
:1047C0001BA801F09BFF00283FF4B3AE1B9B1B7896
:1047D000282B0ED11EAA8F491BA801F0A3FF052884
:1047E00007D11F9BDDF8789043F0FF4A4AF4E00AB6
:1047F00081E6DFF834A2D2E7AEEB02030793049B15
:104800000698002B08BF2346102C0493A046A8BF8F
:104810004FF01008FBF700FE092C81468A4613DC96
:10482000079B002B3FF467AE079B7EDD162B65DCF4
:10483000794A02EBC30E4A46DEE900015346FBF714
:1048400065FE81468A4656E6734B03EBC80353E97F
:104850001223FBF75BFE064628460F46FBF7DCFDFE
:1048600002460B4630463946FBF79AFC0F2C814630
:104870008A46D5DD079BA4EB08089844B8F1000FE1
:1048800040F39A8018F00F030AD063494A4601EBBF
:10489000C301D1E900015346FBF738FE81468A4641
:1048A00038F00F0877D0B8F59A7F4BDD4FF000084D
:1048B000CDF81080CDF82080CDF8188022234FF05D
:1048C0000009DFF85CA1CBF80030089B002B3FF417
:1048D00012AE1C99584602F098F80699584602F014
:1048E00094F80499584602F090F80899584602F056
:1048F0008CF84146584602F088F8FCE5079AC4F166
:1049000025039342B6DB444DC4F10F0405EBC4010B
:104910004A46D1E900015346FBF7F8FD079B1C1BF3
:1049200005EBC405D5E9002389E713F1160FA1DBD8
:10493000394A4846A2EBC302D2E900235146FBF7AD
:104940000FFF7EE70023484651461D46334E4FEA8F
:104950002818B8F1010F21DC0BB181468A462F4B94
:10496000AAF1547A03EBC5054A46D5E9000153463E
:10497000FBF7CCFD2A4B0A460B402A4981468B4265
:1049800094D8A1F580118B4286BF4FF0FF39DFF834
:104990009CA002F1547A002305937BE018F0010FEC
:1049A00006D006EBC503D3E90023FBF7AFFD0123D7
:1049B00001354FEA6808CCE7EDD0C8F1000818F0DF
:1049C0000F020AD0144B484603EBC2035146D3E909
:1049D0000023FBF7C5FE81468A465FEA2818DAD035
:1049E000B8F11F0F24DD4FF00008CDF81080CDF88E
:1049F0002080CDF8188022234FF000094FF0000AE4
:104A0000CBF8003061E700BF2F7C0008B47D0008C0
:104A1000377C0008747C0008487E0008207E00086F
:104A20000000F07F0000A07C0000F8FFFFFFEF7F98
:104A300018F0100318BF6A23484605935146002317
:104A4000A14DB8F1000F00F313810BB181468A46E6
:104A5000059BBBB1CAF30A53C3F16B03002B51464C
:104A600010DD1F2B40F31081342BD8BF4FF0FF32E5
:104A70004FF00009CFBF4FF05C7A203B02FA03F3FE
:104A800003EA010A0022002348465146FBF7A6FF2D
:104A90000028A8D1069B049A0093089923465846FB
:104AA00002F005F8089000283FF400AF079A079B32
:104AB000002AC3F10003A8BF00234FF000080E93A3
:104AC00022EAE2731693CDF81080089B5846596885
:104AD00001F067FF069000283FF4F0AE089B0C3011
:104AE0001A6903F10C0102329200FEF79FFE1EAB21
:104AF00001931DAB00934A4653465846CDE90A9AA6
:104B000002F090FA1C9000283FF4D8AE01215846DC
:104B100002F059F80490034600283FF4CFAE1D9DE3
:104B20001E9A002DABBF0E9B169BEE185C1B059BBF
:104B3000A8BF169CA5EB03051544644B05F1FF3592
:104B4000B8BF0E9E9D42C2F1360280F2AF805B1B61
:104B50001F2BA2EB03024FF0010700F39C800025FE
:104B600007FA03F30F93B718059BBE4214441C4485
:104B70003346A8BF3B46A342A8BF2346002BC2BF73
:104B8000FF1AE41AF61A0E9BBBB11A46049958464E
:104B900002F0B8F8049000283FF490AE01461C9A49
:104BA000584602F019F8099000283FF487AE1C9986
:104BB000584601F02AFF099B1C93002F7ADC079BC3
:104BC000002B08DD169A0699584602F09BF80690CD
:104BD00000283FF473AE002C08DD224606995846A3
:104BE00002F0DEF8069000283FF468AE002E08DDE3
:104BF00032460499584602F0D3F8049000283FF456
:104C00005DAE069A1C99584602F038F98046002895
:104C10003FF454AE0024C3680499C4600C9302F0BE
:104C200013F9A04254DA0C9BF3B9B9F1000F1BD170
:104C3000CAF31303C3B92AF000431B0D1B05B3F1DC
:104C4000D66F11D9D8F814301BB9D8F81030012B11
:104C50000ADD41460122584602F0A2F80499804636
:104C600002F0F2F8002868DC059B002B72D130E6D8
:104C700018F0010F04D0D5E90023FBF747FC01230E
:104C80004FEA68080835DCE64FF0FF3202FA03F31A
:104C900003EA0909F6E6C5F17F4505F57F0505F547
:104CA0007B45E23507FA05F50F975CE70123002500
:104CB0000F9358E73A461C99584602F071F81C9039
:104CC00000287FF47CAFF9E5887C000802FCFFFF38
:104CD000CDF824A040F089800C9ACAF3130342B3A4
:104CE000AF4A934256D1059B4846EBB15346AD4A75
:104CF0004FF0FF311A40B2F1D46F18D8120DC2F143
:104D00006B0301FA03F3984244D1A74B099A9A42E4
:104D100002D101303FF4D2ADA24B099A4FF0000905
:104D20001A4002F5801A9FE74FF0FF33EBE70B467E
:104D3000E9E77BBBB9F1000F2CD105995346994A9D
:104D4000F1B102EA0A01B1F1D66F19DCB1F15C7F71
:104D50007FF751AE0023954A4846CDE914325146BB
:104D6000DDE91423FBF7D2FB81468A4600297FF454
:104D7000B0AD00287FF4ADAD2223CBF80030A8E51C
:104D80001340A3F580136FEA135A4FF0FF396FEA0F
:104D90000A5A69E79DB1099B1D423FF465AF0C9B20
:104DA000059A4846514673B1FFF743FB02460B464E
:104DB000DDE90A01FBF7F4F981468A4654E70F9BC7
:104DC00013EA090FE9E7FFF734FB02460B46DDE97A
:104DD0000A01FBF7E3F90022002381468A46FBF72C
:104DE000FDFD00287FF407AE3EE70499404602F03F
:104DF00068F900224FF0804306460F46FBF702FE9B
:104E0000002875D00C9B002B47D00026684F684DBA
:104E1000099B23F000431B0D1B050F930F9A654B55
:104E20009A4240F0CF80DDE90A23CDE91423099BA3
:104E30004846A3F1547A514602F07EF802460B46EA
:104E400030463946FBF762FB4A465346FBF7A8F962
:104E50000B465449584A1940914281465ED90B9BF2
:104E600002F15472934203D10A9B01333FF426AD01
:104E70004FF0FF39DFF830A11C99584601F0C5FD0D
:104E80000699584601F0C1FD0499584601F0BDFD50
:104E90004146584601F0B9FD17E6B9F1000F19D1A6
:104EA000099BC3F31303E3B90022414B3046394653
:104EB000FBF79EFDC8B90022404B30463946FBF750
:104EC00025FB04460D4605F1004318941993DDE9CE
:104ED00018679DE7B9F1010F03D1099B002B3FF43F
:104EE0008AAD0026364F002491E70C9C334DEAE74B
:104EF000324B002230463946FBF708FB0C9B044638
:104F00000D4633B901F1004310901193DDE91067AC
:104F10007EE702460B46CDE91023F7E703F1547A0A
:104F2000059B002BA8D12AF000431B0D0F9A1B05EF
:104F30009A425646A0D129462046FBF797FDFBF73B
:104F40007BFA0B46024629462046FBF727F90C9BC5
:104F500004460D4633B9B9F1000F03D1CAF3130665
:104F6000002E6AD00AA3D3E9002320462946FBF786
:104F70003FFD00287FF4ADAC07A3D3E90023204612
:104F80002946FBF753FD00283FF476AFA1E400BFAC
:104F90009535A094FFFFDF3F35E5AF350000E03FDA
:104FA000FFFF0F000000F07FFFFFEF7F0000503990
:104FB0000000F03F0000E07FFFFF9F7C0000E03F2B
:104FC0000000F0BF059B13B30F9BB3F1D46F1ED845
:104FD00025A3D3E9002320462946FBF713FD90B112
:104FE00029462046FBF76AFD002808BF0120FBF791
:104FF00013FA0C9B04460D46D3B901F100431290FD
:105000001393DDE912670F9A07F1D6639F1ADDE962
:105010000A0101F091FF02460B4630463946FBF784
:1050200075FADDE90A23FBF7BBF881468A4677E784
:1050300002460B46CDE91223E3E70DA3D3E9002393
:10504000FBF7D6FC9FE700230D931B9B179A136079
:10505000FFF755BA652B4FF000023FF442AB012138
:1050600014460591FFF7BFBA0000C0FFFFFFDF4104
:105070009535A094FFFFCF3F064B10B41C68064A3D
:10508000236A002B08BF13460A460146204610BC7F
:10509000FFF7F2B91000002074000020F8B50E46AA
:1050A0001446054618B183690BB901F019F8214B74
:1050B0009C422AD16C68A369A360A3891A072ED5E4
:1050C000236963B323692068F6B2C01A636937465F
:1050D000834204DC2146284600F098FF28BBA368E1
:1050E0000130013BA36023685A1C22601E70636973
:1050F000834204D0A389DB0719D50A2E17D1214694
:10510000284600F083FF90B10FE00B4B9C4201D189
:10511000AC68D0E7094B9C4208BFEC68CBE721465E
:10512000284600F02DF80028CCD04FF0FF37384645
:10513000F8BD00BFE07D0008007E0008C07D0008CB
:1051400049B1FF2A8BBF8A230A700360012088BF00
:105150004FF0FF30704708467047000038B50546ED
:10516000084611460022054C22601A46FEF757FAFF
:10517000431C02D1236803B12B6038BDB006002068
:10518000324B70B51D6806460C4625B1AB6913B9A4
:10519000284600F0A5FF2E4B9C420FD16C68B4F955
:1051A0000C309AB215072CD4D00611D409223260E3
:1051B00043F04003A3814FF0FF303EE0254B9C427B
:1051C00001D1AC68EBE7244B9C4208BFEC68E6E7F2
:1051D000510712D5616B41B104F14403994202D0E9
:1051E0003046FEF737FB00236363A38923F02403D3
:1051F000A3810023636023692360A38943F008032C
:10520000A38123694BB9A38903F42073B3F5007F0D
:1052100003D02146304601F05BFBA28912F0010366
:105220000CD00023A36063695B42A361236953B977
:10523000B4F90C3013F08000BAD170BD920758BF9A
:105240006369A360F2E70020F7E700BF10000020C9
:10525000E07D0008007E0008C07D000838B500230E
:10526000054C054608462360FEF7F5F9431C02D1BC
:10527000236803B12B6038BDB00600202DE9F74F3D
:1052800003690C698046A342C0F28480013C01F1AD
:10529000140700F1140657F8245056F8240001357D
:1052A000B0FBF5F54FEA840C06EB0C0307EB0C0999
:1052B00001939DB34FF0000A3846B646D34650F8E6
:1052C000042B93B205FB03A3120C4FEA134A05FB10
:1052D00002A29BB2ABEB0303DEF800B04FEA124A26
:1052E0001FFA8BFB5B441FFA82FBDEF8002081452E
:1052F000CBEB124202EB23429BB243EA02434FEA5A
:10530000224B4EF8043BDAD256F80C3033B9019BED
:10531000043B9E421A4631D3C8F81040404601F083
:1053200093FD002826DB30464FF0000C013557F87E
:10533000041BD0F800E08BB2ACEB03031FFA8EF233
:1053400013440A0CC2EB1E4202EB23429BB243EA17
:105350000243B9454FEA224C40F8043BE7D256F8E5
:10536000242006EB84032AB9043B9E421A460BD341
:10537000C8F81040284603B0BDE8F08F1268043B1F
:10538000002AC9D1013CC4E71268043B002AEFD1CE
:10539000013CEAE70020EEE72DE9F04F16461F46F4
:1053A000456A95B00446DDF88480CDE902673DB9D1
:1053B0001020FEF719FA6062C0E901550560C5606A
:1053C000636A196851B15A68012393404A608B603F
:1053D000204601F01AFB0022636A1A603B1EAFBF31
:1053E0000023012223F000430393ACBFC8F8003030
:1053F000C8F80020AE4BDDF80C8033EA08031BD15F
:1054000042F20F73209A1360029B23B9C8F3130072
:10541000002800F04585229B53B9A64B21E0A64BFE
:1054200006930833229A1360069815B0BDE8F08FF2
:10543000A04B06930333F5E7DDE902670022002362
:1054400030463946FBF7CAFA824660B10123209AFA
:105450001360229B002B00F02085984B229A13604A
:10546000013B0693E0E712AB019313AB0093324686
:105470003B46204601F0D6FDC8F30A558346002D71
:105480007DD0B046C7F3130343F07F5949F4401968
:10549000A5F2FF35CDF840A00022894B4046494691
:1054A000FAF77CFE7CA3D3E90023FBF72FF87CA35B
:1054B000D3E90023FAF774FE064628460F46FAF7AA
:1054C000BBFF79A3D3E90023FBF720F802460B4684
:1054D00030463946FAF764FE06460F46FBF7C6FA31
:1054E00000228246002330463946FBF781FA48B154
:1054F0005046FAF7A1FF32463B46FBF76FFA08B970
:105500000AF1FF3ABAF1160F5AD8DDE902236D49C4
:1055100001EBCA01D1E90001FBF788FA002851D05C
:1055200000230AF1FF3A0D93129B5D1B6B1E07933C
:1055300043BF0023C5F1010907934FF00009BAF1F9
:10554000000F41DB079BCDF830A0534407930023A5
:1055500008931E9B092B00F28F80052BC4BF043BD0
:105560001E931E9BC8BF0025A3F10203D8BF0125CF
:10557000032B00F28D80DFE803F07B7D2F6FDDE9E8
:1055800012531D4405F23240202813DDC0F14000C3
:10559000029B08FA00F805F2124023FA00F048EAEC
:1055A0000000FAF739FF01238046A1F1F879013DA7
:1055B000109371E7029BC0F1200003FA00F0F0E7BE
:1055C0000123B0E70D90AFE7CAF100030893002371
:1055D000A9EB0A090C93BCE7012309931F9B002B3D
:1055E00074DD984604930022666A7260042202F118
:1055F0001400984271686ED9204601F0D2F9636AAE
:1056000030601B68B8F10E0F069300F2ED80002D9C
:1056100000F0EA80DDE90223BAF1000FCDE90E23A4
:1056200077DD284A0AF00F034FEA2A1602EBC3037C
:10563000F006D3E90023CDE90A2368D5DDE90E01A0
:10564000214B0325D3E90823FBF78AF8CDE90201B2
:1056500006F00F061C4F4FE0012309931F9B534494
:1056600003F1010804934346012BB8BF0123BAE7B5
:105670000023B2E70023F0E70125002309951E93DC
:105680004FF0FF3300220493984612231F92AAE79B
:1056900001230993F4E700BF61436F63A787D23FFB
:1056A000B3C8608B288AC63FFB799F501344D33F11
:1056B0000000F07FBA7D0008B17D00083B7C000847
:1056C0000000F83F487E0008207E00080123049374
:1056D00098461A46DAE701317160520087E7F10710
:1056E00008D5DDE90A01D7E90023FAF70FFFCDE974
:1056F0000A01013576100837002EF0D1DDE90A23C2
:10570000DDE90201FBF72CF8CDE902011BE00225DF
:10571000A0E700F0A480DDE90E01CAF10006A04B6D
:1057200006F00F0203EBC203D3E90023FAF7EEFE03
:1057300002250023CDE902019A4F3611002E40F0D8
:105740008380002BE0D10D9B002B00F08A80DDE9E7
:105750000223CDE90A23DDE90A010022924BFBF77F
:1057600047F900287DD0B8F1000F7AD0049B002BB8
:1057700036DDDDE90A0100228C4BFAF7C7FECDE9E0
:105780000201049E0AF1FF3701352846FAF754FE5C
:10579000DDE90223FAF7BAFE0022854BFAF700FD95
:1057A000A1F15075CDE90A010B95002E5CD1DDE920
:1057B000020100227F4BFAF7F1FC0A9A2B46CDE951
:1057C0000201FBF733F9002840F08182DDE9020194
:1057D0000A9A05F10043FBF70BF9002840F07582A7
:1057E000DDE90E23CDE90223139B002BC0F24B8190
:1057F000BAF10E0F00F34781694B03EBCA03D3E9FB
:105800000023CDE904231F9B002B80F2D780B8F141
:10581000000F00F3D38040F05782DDE9040100223D
:10582000644BFAF773FEDDE90223FBF7F5F8464611
:105830004746002840F02D82069B069A5D1C3123C6
:105840000AF1010A137028E2F20705D5D7E900230F
:10585000FAF75CFE01230135761008376EE7022562
:1058600071E75746464690E74D4B03EBC60353E9B5
:105870000201099B002B48D002460B4600204E49EE
:10588000FAF76EFFDDE90A23FAF788FCCDE90A0191
:10589000069DDDE90201FBF7E9F81190FAF7CCFD6E
:1058A00002460B46DDE90201FAF778FC119BCDE9CF
:1058B0000201303305F8013BDDE90A23FBF798F8D4
:1058C000002863D1DDE9022300203749FAF766FC9E
:1058D000DDE90A23FBF78CF8002840F0B580069B31
:1058E000EB1A9E427FF77CAFDDE90A0100222F4BC5
:1058F000FAF70CFE0022CDE90A01DDE902012B4B8B
:10590000FAF704FECDE90201C3E7DDE90A23FAF75D
:10591000FDFD069BCDE90A019D191E46DDE9020148
:10592000FBF7A4F81190FAF787FD02460B46DDE974
:105930000201FAF733FC119BCDE90201303306F87E
:10594000013BAE424FF0000224D1DDE90A011A4BBF
:10595000FAF726FC02460B46DDE90201FBF766F882
:10596000002871D1DDE90A2300201349FAF716FC5B
:1059700002460B46DDE90201FBF73AF800283FF446
:105980002FAF15F8013C6A1E302B01D0BA464AE011
:105990001546F6E7054BFAF7B9FDCDE90201BDE77B
:1059A000487E0008207E00080000F03F00002440F0
:1059B00000001C40000014400000E03F069DDDE9AF
:1059C0000267DDE9042330463946FAF7C9FEFBF7E2
:1059D0004DF88146FAF730FDDDE90423FAF796FD2C
:1059E00002460B4630463946FAF7D8FB09F1300635
:1059F00005F8016B069E0246AE1BB0450B4635D13D
:105A0000FAF7CEFBDDE9042306460F46FBF70EF856
:105A1000C8B9DDE9042330463946FAF7DFFF10B193
:105A200019F0010F0FD15946204600F0EEFF002378
:105A3000209A2B700AF101031360229B002B3FF484
:105A4000F3AC1D60F0E4574615F8012C6B1E392AA3
:105A500006D1069A9A4207D13023137013460137B4
:105A60001A7801321A7091E71D46EDE70022994B32
:105A7000FAF74CFD0022002306460F46FAF7AEFF68
:105A800000289ED0CFE7099A002A00F088801E9A4D
:105A9000012A6DDC109A002A66D003F233434D468A
:105AA000089E079A01211A4420469944079201F062
:105AB0008AF80746002D0BDD079B002B08DDAB4263
:105AC000A8BF2B46079AA9EB0309ED1AD31A07932F
:105AD000089BEBB1099B002B65D08EB1394632464D
